{
  "contractName": "Gachapon",
  "abi": [
    {
      "inputs": [],
      "stateMutability": "nonpayable",
      "type": "constructor"
    },
    {
      "anonymous": false,
      "inputs": [
        {
          "indexed": true,
          "internalType": "address",
          "name": "owner",
          "type": "address"
        },
        {
          "indexed": true,
          "internalType": "address",
          "name": "approved",
          "type": "address"
        },
        {
          "indexed": true,
          "internalType": "uint256",
          "name": "tokenId",
          "type": "uint256"
        }
      ],
      "name": "Approval",
      "type": "event"
    },
    {
      "anonymous": false,
      "inputs": [
        {
          "indexed": true,
          "internalType": "address",
          "name": "owner",
          "type": "address"
        },
        {
          "indexed": true,
          "internalType": "address",
          "name": "operator",
          "type": "address"
        },
        {
          "indexed": false,
          "internalType": "bool",
          "name": "approved",
          "type": "bool"
        }
      ],
      "name": "ApprovalForAll",
      "type": "event"
    },
    {
      "anonymous": false,
      "inputs": [
        {
          "indexed": true,
          "internalType": "address",
          "name": "from",
          "type": "address"
        },
        {
          "indexed": true,
          "internalType": "address",
          "name": "to",
          "type": "address"
        },
        {
          "indexed": true,
          "internalType": "uint256",
          "name": "tokenId",
          "type": "uint256"
        }
      ],
      "name": "Transfer",
      "type": "event"
    },
    {
      "inputs": [
        {
          "internalType": "address",
          "name": "to",
          "type": "address"
        },
        {
          "internalType": "uint256",
          "name": "tokenId",
          "type": "uint256"
        }
      ],
      "name": "approve",
      "outputs": [],
      "stateMutability": "nonpayable",
      "type": "function"
    },
    {
      "inputs": [
        {
          "internalType": "address",
          "name": "owner",
          "type": "address"
        }
      ],
      "name": "balanceOf",
      "outputs": [
        {
          "internalType": "uint256",
          "name": "",
          "type": "uint256"
        }
      ],
      "stateMutability": "view",
      "type": "function",
      "constant": true
    },
    {
      "inputs": [
        {
          "internalType": "uint256",
          "name": "tokenId",
          "type": "uint256"
        }
      ],
      "name": "getApproved",
      "outputs": [
        {
          "internalType": "address",
          "name": "",
          "type": "address"
        }
      ],
      "stateMutability": "view",
      "type": "function",
      "constant": true
    },
    {
      "inputs": [
        {
          "internalType": "address",
          "name": "owner",
          "type": "address"
        },
        {
          "internalType": "address",
          "name": "operator",
          "type": "address"
        }
      ],
      "name": "isApprovedForAll",
      "outputs": [
        {
          "internalType": "bool",
          "name": "",
          "type": "bool"
        }
      ],
      "stateMutability": "view",
      "type": "function",
      "constant": true
    },
    {
      "inputs": [],
      "name": "name",
      "outputs": [
        {
          "internalType": "string",
          "name": "",
          "type": "string"
        }
      ],
      "stateMutability": "view",
      "type": "function",
      "constant": true
    },
    {
      "inputs": [
        {
          "internalType": "uint256",
          "name": "tokenId",
          "type": "uint256"
        }
      ],
      "name": "ownerOf",
      "outputs": [
        {
          "internalType": "address",
          "name": "",
          "type": "address"
        }
      ],
      "stateMutability": "view",
      "type": "function",
      "constant": true
    },
    {
      "inputs": [
        {
          "internalType": "bytes32",
          "name": "requestId",
          "type": "bytes32"
        },
        {
          "internalType": "uint256",
          "name": "randomness",
          "type": "uint256"
        }
      ],
      "name": "rawFulfillRandomness",
      "outputs": [],
      "stateMutability": "nonpayable",
      "type": "function"
    },
    {
      "inputs": [
        {
          "internalType": "bytes32",
          "name": "",
          "type": "bytes32"
        }
      ],
      "name": "request_address",
      "outputs": [
        {
          "internalType": "address",
          "name": "",
          "type": "address"
        }
      ],
      "stateMutability": "view",
      "type": "function",
      "constant": true
    },
    {
      "inputs": [
        {
          "internalType": "address",
          "name": "from",
          "type": "address"
        },
        {
          "internalType": "address",
          "name": "to",
          "type": "address"
        },
        {
          "internalType": "uint256",
          "name": "tokenId",
          "type": "uint256"
        }
      ],
      "name": "safeTransferFrom",
      "outputs": [],
      "stateMutability": "nonpayable",
      "type": "function"
    },
    {
      "inputs": [
        {
          "internalType": "address",
          "name": "from",
          "type": "address"
        },
        {
          "internalType": "address",
          "name": "to",
          "type": "address"
        },
        {
          "internalType": "uint256",
          "name": "tokenId",
          "type": "uint256"
        },
        {
          "internalType": "bytes",
          "name": "_data",
          "type": "bytes"
        }
      ],
      "name": "safeTransferFrom",
      "outputs": [],
      "stateMutability": "nonpayable",
      "type": "function"
    },
    {
      "inputs": [
        {
          "internalType": "address",
          "name": "operator",
          "type": "address"
        },
        {
          "internalType": "bool",
          "name": "approved",
          "type": "bool"
        }
      ],
      "name": "setApprovalForAll",
      "outputs": [],
      "stateMutability": "nonpayable",
      "type": "function"
    },
    {
      "inputs": [
        {
          "internalType": "bytes4",
          "name": "interfaceId",
          "type": "bytes4"
        }
      ],
      "name": "supportsInterface",
      "outputs": [
        {
          "internalType": "bool",
          "name": "",
          "type": "bool"
        }
      ],
      "stateMutability": "view",
      "type": "function",
      "constant": true
    },
    {
      "inputs": [],
      "name": "symbol",
      "outputs": [
        {
          "internalType": "string",
          "name": "",
          "type": "string"
        }
      ],
      "stateMutability": "view",
      "type": "function",
      "constant": true
    },
    {
      "inputs": [
        {
          "internalType": "uint256",
          "name": "",
          "type": "uint256"
        }
      ],
      "name": "token_attack",
      "outputs": [
        {
          "internalType": "uint256",
          "name": "",
          "type": "uint256"
        }
      ],
      "stateMutability": "view",
      "type": "function",
      "constant": true
    },
    {
      "inputs": [],
      "name": "token_count",
      "outputs": [
        {
          "internalType": "uint256",
          "name": "",
          "type": "uint256"
        }
      ],
      "stateMutability": "view",
      "type": "function",
      "constant": true
    },
    {
      "inputs": [
        {
          "internalType": "uint256",
          "name": "",
          "type": "uint256"
        }
      ],
      "name": "token_uri_ids",
      "outputs": [
        {
          "internalType": "uint256",
          "name": "",
          "type": "uint256"
        }
      ],
      "stateMutability": "view",
      "type": "function",
      "constant": true
    },
    {
      "inputs": [
        {
          "internalType": "address",
          "name": "from",
          "type": "address"
        },
        {
          "internalType": "address",
          "name": "to",
          "type": "address"
        },
        {
          "internalType": "uint256",
          "name": "tokenId",
          "type": "uint256"
        }
      ],
      "name": "transferFrom",
      "outputs": [],
      "stateMutability": "nonpayable",
      "type": "function"
    },
    {
      "inputs": [
        {
          "internalType": "uint256",
          "name": "",
          "type": "uint256"
        }
      ],
      "name": "uri_pool",
      "outputs": [
        {
          "internalType": "string",
          "name": "",
          "type": "string"
        }
      ],
      "stateMutability": "view",
      "type": "function",
      "constant": true
    },
    {
      "inputs": [
        {
          "internalType": "uint256",
          "name": "tokenId",
          "type": "uint256"
        }
      ],
      "name": "tokenURI",
      "outputs": [
        {
          "internalType": "string",
          "name": "",
          "type": "string"
        }
      ],
      "stateMutability": "view",
      "type": "function",
      "constant": true
    },
    {
      "inputs": [
        {
          "internalType": "string",
          "name": "uri",
          "type": "string"
        }
      ],
      "name": "addURIToPool",
      "outputs": [],
      "stateMutability": "nonpayable",
      "type": "function"
    },
    {
      "inputs": [
        {
          "internalType": "uint256",
          "name": "id",
          "type": "uint256"
        },
        {
          "internalType": "string",
          "name": "uri",
          "type": "string"
        }
      ],
      "name": "setURIInPool",
      "outputs": [],
      "stateMutability": "nonpayable",
      "type": "function"
    },
    {
      "inputs": [
        {
          "internalType": "address",
          "name": "to",
          "type": "address"
        }
      ],
      "name": "mintNFT",
      "outputs": [],
      "stateMutability": "nonpayable",
      "type": "function"
    }
  ],
  "bytecode": "0x60c060405260646007557301be23585060835e02b77ef475b0cc51aa1e0709600d60006101000a81548173ffffffffffffffffffffffffffffffffffffffff021916908373ffffffffffffffffffffffffffffffffffffffff16021790555073b3dccb4cf7a26f6cf6b120cf5a73875b7bbc655b600e60006101000a81548173ffffffffffffffffffffffffffffffffffffffff021916908373ffffffffffffffffffffffffffffffffffffffff1602179055507f2ed0feb3e7fd2022120aa84fab1945545a9f2ffc9076fd6156fa96eaff4c131160001b600f5567016345785d8a0000601055348015620000f357600080fd5b50600e60009054906101000a900473ffffffffffffffffffffffffffffffffffffffff16600d60009054906101000a900473ffffffffffffffffffffffffffffffffffffffff166040518060400160405280600681526020017f4d79204e465400000000000000000000000000000000000000000000000000008152506040518060400160405280600581526020017f4e465431300000000000000000000000000000000000000000000000000000008152508160009080519060200190620001be92919062000250565b508060019080519060200190620001d792919062000250565b5050508173ffffffffffffffffffffffffffffffffffffffff1660a08173ffffffffffffffffffffffffffffffffffffffff1660601b815250508073ffffffffffffffffffffffffffffffffffffffff1660808173ffffffffffffffffffffffffffffffffffffffff1660601b81525050505062000365565b8280546200025e9062000300565b90600052602060002090601f016020900481019282620002825760008555620002ce565b82601f106200029d57805160ff1916838001178555620002ce565b82800160010185558215620002ce579182015b82811115620002cd578251825591602001919060010190620002b0565b5b509050620002dd9190620002e1565b5090565b5b80821115620002fc576000816000905550600101620002e2565b5090565b600060028204905060018216806200031957607f821691505b6020821081141562000330576200032f62000336565b5b50919050565b7f4e487b7100000000000000000000000000000000000000000000000000000000600052602260045260246000fd5b60805160601c60a05160601c6132886200039f60003960008181610b2c015261161901526000818161087001526115dd01526132886000f3fe608060405234801561001057600080fd5b50600436106101425760003560e01c806370a08231116100b8578063ac7a53ea1161007c578063ac7a53ea14610385578063b88d4fde146103b5578063c87b56dd146103d1578063d5069fbe14610401578063e985e9c51461041d578063ea763e441461044d57610142565b806370a08231146102cf57806394985ddd146102ff57806395d89b411461031b578063a22cb46514610339578063aa90d0811461035557610142565b806323b872dd1161010a57806323b872dd146101ff57806342842e0e1461021b578063447b70371461023757806348bd3eca1461025357806354ba0f27146102835780636352211e1461029f57610142565b806301ffc9a71461014757806306fdde0314610177578063081812fc14610195578063095ea7b3146101c557806323b161ab146101e1575b600080fd5b610161600480360381019061015c9190612129565b61047d565b60405161016e919061267d565b60405180910390f35b61017f61055f565b60405161018c9190612706565b60405180910390f35b6101af60048036038101906101aa91906121cc565b6105f1565b6040516101bc91906125d8565b60405180910390f35b6101df60048036038101906101da919061204f565b610676565b005b6101e961078e565b6040516101f69190612928565b60405180910390f35b61021960048036038101906102149190611f39565b610794565b005b61023560048036038101906102309190611f39565b6107f4565b005b610251600480360381019061024c9190612183565b610814565b005b61026d600480360381019061026891906121cc565b610853565b60405161027a9190612928565b60405180910390f35b61029d60048036038101906102989190611ecc565b61086b565b005b6102b960048036038101906102b491906121cc565b6109c0565b6040516102c691906125d8565b60405180910390f35b6102e960048036038101906102e49190611ecc565b610a72565b6040516102f69190612928565b60405180910390f35b610319600480360381019061031491906120e9565b610b2a565b005b610323610bc6565b6040516103309190612706565b60405180910390f35b610353600480360381019061034e919061200f565b610c58565b005b61036f600480360381019061036a91906121cc565b610dd9565b60405161037c9190612706565b60405180910390f35b61039f600480360381019061039a91906120bc565b610e85565b6040516103ac91906125d8565b60405180910390f35b6103cf60048036038101906103ca9190611f8c565b610eb8565b005b6103eb60048036038101906103e691906121cc565b610f1a565b6040516103f89190612706565b60405180910390f35b61041b60048036038101906104169190612226565b611025565b005b61043760048036038101906104329190611ef9565b61105c565b604051610444919061267d565b60405180910390f35b610467600480360381019061046291906121cc565b6110f0565b6040516104749190612928565b60405180910390f35b60007f80ac58cd000000000000000000000000000000000000000000000000000000007bffffffffffffffffffffffffffffffffffffffffffffffffffffffff1916827bffffffffffffffffffffffffffffffffffffffffffffffffffffffff1916148061054857507f5b5e139f000000000000000000000000000000000000000000000000000000007bffffffffffffffffffffffffffffffffffffffffffffffffffffffff1916827bffffffffffffffffffffffffffffffffffffffffffffffffffffffff1916145b80610558575061055782611108565b5b9050919050565b60606000805461056e90612bcf565b80601f016020809104026020016040519081016040528092919081815260200182805461059a90612bcf565b80156105e75780601f106105bc576101008083540402835291602001916105e7565b820191906000526020600020905b8154815290600101906020018083116105ca57829003601f168201915b5050505050905090565b60006105fc82611172565b61063b576040517f08c379a000000000000000000000000000000000000000000000000000000000815260040161063290612868565b60405180910390fd5b6004600083815260200190815260200160002060009054906101000a900473ffffffffffffffffffffffffffffffffffffffff169050919050565b6000610681826109c0565b90508073ffffffffffffffffffffffffffffffffffffffff168373ffffffffffffffffffffffffffffffffffffffff1614156106f2576040517f08c379a00000000000000000000000000000000000000000000000000000000081526004016106e9906128e8565b60405180910390fd5b8073ffffffffffffffffffffffffffffffffffffffff166107116111de565b73ffffffffffffffffffffffffffffffffffffffff161480610740575061073f8161073a6111de565b61105c565b5b61077f576040517f08c379a0000000000000000000000000000000000000000000000000000000008152600401610776906127e8565b60405180910390fd5b61078983836111e6565b505050565b60085481565b6107a561079f6111de565b8261129f565b6107e4576040517f08c379a00000000000000000000000000000000000000000000000000000000081526004016107db90612908565b60405180910390fd5b6107ef83838361137d565b505050565b61080f83838360405180602001604052806000815250610eb8565b505050565b600b8190806001815401808255809150506001900390600052602060002001600090919091909150908051906020019061084f929190611ca1565b5050565b60096020528060005260406000206000915090505481565b6010547f000000000000000000000000000000000000000000000000000000000000000073ffffffffffffffffffffffffffffffffffffffff166370a08231306040518263ffffffff1660e01b81526004016108c791906125d8565b60206040518083038186803b1580156108df57600080fd5b505afa1580156108f3573d6000803e3d6000fd5b505050506040513d601f19601f8201168201806040525081019061091791906121f9565b1015610958576040517f08c379a000000000000000000000000000000000000000000000000000000000815260040161094f906127a8565b60405180910390fd5b6000610968600f546010546115d9565b905081600a600083815260200190815260200160002060006101000a81548173ffffffffffffffffffffffffffffffffffffffff021916908373ffffffffffffffffffffffffffffffffffffffff1602179055505050565b6000806002600084815260200190815260200160002060009054906101000a900473ffffffffffffffffffffffffffffffffffffffff169050600073ffffffffffffffffffffffffffffffffffffffff168173ffffffffffffffffffffffffffffffffffffffff161415610a69576040517f08c379a0000000000000000000000000000000000000000000000000000000008152600401610a6090612828565b60405180910390fd5b80915050919050565b60008073ffffffffffffffffffffffffffffffffffffffff168273ffffffffffffffffffffffffffffffffffffffff161415610ae3576040517f08c379a0000000000000000000000000000000000000000000000000000000008152600401610ada90612808565b60405180910390fd5b600360008373ffffffffffffffffffffffffffffffffffffffff1673ffffffffffffffffffffffffffffffffffffffff168152602001908152602001600020549050919050565b7f000000000000000000000000000000000000000000000000000000000000000073ffffffffffffffffffffffffffffffffffffffff163373ffffffffffffffffffffffffffffffffffffffff1614610bb8576040517f08c379a0000000000000000000000000000000000000000000000000000000008152600401610baf906128c8565b60405180910390fd5b610bc2828261173b565b5050565b606060018054610bd590612bcf565b80601f0160208091040260200160405190810160405280929190818152602001828054610c0190612bcf565b8015610c4e5780601f10610c2357610100808354040283529160200191610c4e565b820191906000526020600020905b815481529060010190602001808311610c3157829003601f168201915b5050505050905090565b610c606111de565b73ffffffffffffffffffffffffffffffffffffffff168273ffffffffffffffffffffffffffffffffffffffff161415610cce576040517f08c379a0000000000000000000000000000000000000000000000000000000008152600401610cc590612788565b60405180910390fd5b8060056000610cdb6111de565b73ffffffffffffffffffffffffffffffffffffffff1673ffffffffffffffffffffffffffffffffffffffff16815260200190815260200160002060008473ffffffffffffffffffffffffffffffffffffffff1673ffffffffffffffffffffffffffffffffffffffff16815260200190815260200160002060006101000a81548160ff0219169083151502179055508173ffffffffffffffffffffffffffffffffffffffff16610d886111de565b73ffffffffffffffffffffffffffffffffffffffff167f17307eab39ab6107e8899845ad3d59bd9653f200f220920489ca2b5937696c3183604051610dcd919061267d565b60405180910390a35050565b600b8181548110610de957600080fd5b906000526020600020016000915090508054610e0490612bcf565b80601f0160208091040260200160405190810160405280929190818152602001828054610e3090612bcf565b8015610e7d5780601f10610e5257610100808354040283529160200191610e7d565b820191906000526020600020905b815481529060010190602001808311610e6057829003601f168201915b505050505081565b600a6020528060005260406000206000915054906101000a900473ffffffffffffffffffffffffffffffffffffffff1681565b610ec9610ec36111de565b8361129f565b610f08576040517f08c379a0000000000000000000000000000000000000000000000000000000008152600401610eff90612908565b60405180910390fd5b610f1484848484611859565b50505050565b6060610f2582611172565b610f64576040517f08c379a0000000000000000000000000000000000000000000000000000000008152600401610f5b906128a8565b60405180910390fd5b600b600960008481526020019081526020016000205481548110610f8b57610f8a612d04565b5b906000526020600020018054610fa090612bcf565b80601f0160208091040260200160405190810160405280929190818152602001828054610fcc90612bcf565b80156110195780601f10610fee57610100808354040283529160200191611019565b820191906000526020600020905b815481529060010190602001808311610ffc57829003601f168201915b50505050509050919050565b80600b838154811061103a57611039612d04565b5b906000526020600020019080519060200190611057929190611ca1565b505050565b6000600560008473ffffffffffffffffffffffffffffffffffffffff1673ffffffffffffffffffffffffffffffffffffffff16815260200190815260200160002060008373ffffffffffffffffffffffffffffffffffffffff1673ffffffffffffffffffffffffffffffffffffffff16815260200190815260200160002060009054906101000a900460ff16905092915050565b600c6020528060005260406000206000915090505481565b60007f01ffc9a7000000000000000000000000000000000000000000000000000000007bffffffffffffffffffffffffffffffffffffffffffffffffffffffff1916827bffffffffffffffffffffffffffffffffffffffffffffffffffffffff1916149050919050565b60008073ffffffffffffffffffffffffffffffffffffffff166002600084815260200190815260200160002060009054906101000a900473ffffffffffffffffffffffffffffffffffffffff1673ffffffffffffffffffffffffffffffffffffffff1614159050919050565b600033905090565b816004600083815260200190815260200160002060006101000a81548173ffffffffffffffffffffffffffffffffffffffff021916908373ffffffffffffffffffffffffffffffffffffffff160217905550808273ffffffffffffffffffffffffffffffffffffffff16611259836109c0565b73ffffffffffffffffffffffffffffffffffffffff167f8c5be1e5ebec7d5bd14f71427d1e84f3dd0314c0f7b2291e5b200ac8c7c3b92560405160405180910390a45050565b60006112aa82611172565b6112e9576040517f08c379a00000000000000000000000000000000000000000000000000000000081526004016112e0906127c8565b60405180910390fd5b60006112f4836109c0565b90508073ffffffffffffffffffffffffffffffffffffffff168473ffffffffffffffffffffffffffffffffffffffff16148061136357508373ffffffffffffffffffffffffffffffffffffffff1661134b846105f1565b73ffffffffffffffffffffffffffffffffffffffff16145b806113745750611373818561105c565b5b91505092915050565b8273ffffffffffffffffffffffffffffffffffffffff1661139d826109c0565b73ffffffffffffffffffffffffffffffffffffffff16146113f3576040517f08c379a00000000000000000000000000000000000000000000000000000000081526004016113ea90612888565b60405180910390fd5b600073ffffffffffffffffffffffffffffffffffffffff168273ffffffffffffffffffffffffffffffffffffffff161415611463576040517f08c379a000000000000000000000000000000000000000000000000000000000815260040161145a90612768565b60405180910390fd5b61146e8383836118b5565b6114796000826111e6565b6001600360008573ffffffffffffffffffffffffffffffffffffffff1673ffffffffffffffffffffffffffffffffffffffff16815260200190815260200160002060008282546114c99190612aaa565b925050819055506001600360008473ffffffffffffffffffffffffffffffffffffffff1673ffffffffffffffffffffffffffffffffffffffff16815260200190815260200160002060008282546115209190612a54565b92505081905550816002600083815260200190815260200160002060006101000a81548173ffffffffffffffffffffffffffffffffffffffff021916908373ffffffffffffffffffffffffffffffffffffffff160217905550808273ffffffffffffffffffffffffffffffffffffffff168473ffffffffffffffffffffffffffffffffffffffff167fddf252ad1be2c89b69c2b068fc378daa952ba7f163c4a11628f55a4df523b3ef60405160405180910390a4505050565b60007f000000000000000000000000000000000000000000000000000000000000000073ffffffffffffffffffffffffffffffffffffffff16634000aea07f00000000000000000000000000000000000000000000000000000000000000008486600060405160200161164d929190612698565b6040516020818303038152906040526040518463ffffffff1660e01b815260040161167a9392919061263f565b602060405180830381600087803b15801561169457600080fd5b505af11580156116a8573d6000803e3d6000fd5b505050506040513d601f19601f820116820180604052508101906116cc919061208f565b5060006116ef8460003060066000898152602001908152602001600020546118ba565b9050600160066000868152602001908152602001600020546117119190612a54565b600660008681526020019081526020016000208190555061173284826118f6565b91505092915050565b60016008600082825461174e9190612a54565b92505081905550611794600a600084815260200190815260200160002060009054906101000a900473ffffffffffffffffffffffffffffffffffffffff16600854611929565b60008160006040516020016117aa929190612943565b6040516020818303038152906040528051906020012060001c905060008260016040516020016117db92919061296c565b6040516020818303038152906040528051906020012060001c9050600b80549050826118079190612c46565b600960006008548152602001908152602001600020819055506001600754826118309190612c46565b61183a9190612a54565b600c600060085481526020019081526020016000208190555050505050565b61186484848461137d565b61187084848484611af7565b6118af576040517f08c379a00000000000000000000000000000000000000000000000000000000081526004016118a690612728565b60405180910390fd5b50505050565b505050565b6000848484846040516020016118d394939291906126c1565b6040516020818303038152906040528051906020012060001c9050949350505050565b6000828260405160200161190b9291906125ac565b60405160208183030381529060405280519060200120905092915050565b600073ffffffffffffffffffffffffffffffffffffffff168273ffffffffffffffffffffffffffffffffffffffff161415611999576040517f08c379a000000000000000000000000000000000000000000000000000000000815260040161199090612848565b60405180910390fd5b6119a281611172565b156119e2576040517f08c379a00000000000000000000000000000000000000000000000000000000081526004016119d990612748565b60405180910390fd5b6119ee600083836118b5565b6001600360008473ffffffffffffffffffffffffffffffffffffffff1673ffffffffffffffffffffffffffffffffffffffff1681526020019081526020016000206000828254611a3e9190612a54565b92505081905550816002600083815260200190815260200160002060006101000a81548173ffffffffffffffffffffffffffffffffffffffff021916908373ffffffffffffffffffffffffffffffffffffffff160217905550808273ffffffffffffffffffffffffffffffffffffffff16600073ffffffffffffffffffffffffffffffffffffffff167fddf252ad1be2c89b69c2b068fc378daa952ba7f163c4a11628f55a4df523b3ef60405160405180910390a45050565b6000611b188473ffffffffffffffffffffffffffffffffffffffff16611c8e565b15611c81578373ffffffffffffffffffffffffffffffffffffffff1663150b7a02611b416111de565b8786866040518563ffffffff1660e01b8152600401611b6394939291906125f3565b602060405180830381600087803b158015611b7d57600080fd5b505af1925050508015611bae57506040513d601f19601f82011682018060405250810190611bab9190612156565b60015b611c31573d8060008114611bde576040519150601f19603f3d011682016040523d82523d6000602084013e611be3565b606091505b50600081511415611c29576040517f08c379a0000000000000000000000000000000000000000000000000000000008152600401611c2090612728565b60405180910390fd5b805181602001fd5b63150b7a0260e01b7bffffffffffffffffffffffffffffffffffffffffffffffffffffffff1916817bffffffffffffffffffffffffffffffffffffffffffffffffffffffff191614915050611c86565b600190505b949350505050565b600080823b905060008111915050919050565b828054611cad90612bcf565b90600052602060002090601f016020900481019282611ccf5760008555611d16565b82601f10611ce857805160ff1916838001178555611d16565b82800160010185558215611d16579182015b82811115611d15578251825591602001919060010190611cfa565b5b509050611d239190611d27565b5090565b5b80821115611d40576000816000905550600101611d28565b5090565b6000611d57611d52846129ba565b612995565b905082815260208101848484011115611d7357611d72612d67565b5b611d7e848285612b8d565b509392505050565b6000611d99611d94846129eb565b612995565b905082815260208101848484011115611db557611db4612d67565b5b611dc0848285612b8d565b509392505050565b600081359050611dd7816131df565b92915050565b600081359050611dec816131f6565b92915050565b600081519050611e01816131f6565b92915050565b600081359050611e168161320d565b92915050565b600081359050611e2b81613224565b92915050565b600081519050611e4081613224565b92915050565b600082601f830112611e5b57611e5a612d62565b5b8135611e6b848260208601611d44565b91505092915050565b600082601f830112611e8957611e88612d62565b5b8135611e99848260208601611d86565b91505092915050565b600081359050611eb18161323b565b92915050565b600081519050611ec68161323b565b92915050565b600060208284031215611ee257611ee1612d71565b5b6000611ef084828501611dc8565b91505092915050565b60008060408385031215611f1057611f0f612d71565b5b6000611f1e85828601611dc8565b9250506020611f2f85828601611dc8565b9150509250929050565b600080600060608486031215611f5257611f51612d71565b5b6000611f6086828701611dc8565b9350506020611f7186828701611dc8565b9250506040611f8286828701611ea2565b9150509250925092565b60008060008060808587031215611fa657611fa5612d71565b5b6000611fb487828801611dc8565b9450506020611fc587828801611dc8565b9350506040611fd687828801611ea2565b925050606085013567ffffffffffffffff811115611ff757611ff6612d6c565b5b61200387828801611e46565b91505092959194509250565b6000806040838503121561202657612025612d71565b5b600061203485828601611dc8565b925050602061204585828601611ddd565b9150509250929050565b6000806040838503121561206657612065612d71565b5b600061207485828601611dc8565b925050602061208585828601611ea2565b9150509250929050565b6000602082840312156120a5576120a4612d71565b5b60006120b384828501611df2565b91505092915050565b6000602082840312156120d2576120d1612d71565b5b60006120e084828501611e07565b91505092915050565b60008060408385031215612100576120ff612d71565b5b600061210e85828601611e07565b925050602061211f85828601611ea2565b9150509250929050565b60006020828403121561213f5761213e612d71565b5b600061214d84828501611e1c565b91505092915050565b60006020828403121561216c5761216b612d71565b5b600061217a84828501611e31565b91505092915050565b60006020828403121561219957612198612d71565b5b600082013567ffffffffffffffff8111156121b7576121b6612d6c565b5b6121c384828501611e74565b91505092915050565b6000602082840312156121e2576121e1612d71565b5b60006121f084828501611ea2565b91505092915050565b60006020828403121561220f5761220e612d71565b5b600061221d84828501611eb7565b91505092915050565b6000806040838503121561223d5761223c612d71565b5b600061224b85828601611ea2565b925050602083013567ffffffffffffffff81111561226c5761226b612d6c565b5b61227885828601611e74565b9150509250929050565b61228b81612ade565b82525050565b61229a81612af0565b82525050565b6122a981612afc565b82525050565b6122c06122bb82612afc565b612c32565b82525050565b60006122d182612a1c565b6122db8185612a32565b93506122eb818560208601612b9c565b6122f481612d76565b840191505092915050565b61230881612b69565b82525050565b61231781612b7b565b82525050565b600061232882612a27565b6123328185612a43565b9350612342818560208601612b9c565b61234b81612d76565b840191505092915050565b6000612363603283612a43565b915061236e82612d87565b604082019050919050565b6000612386601c83612a43565b915061239182612dd6565b602082019050919050565b60006123a9602483612a43565b91506123b482612dff565b604082019050919050565b60006123cc601983612a43565b91506123d782612e4e565b602082019050919050565b60006123ef602b83612a43565b91506123fa82612e77565b604082019050919050565b6000612412602c83612a43565b915061241d82612ec6565b604082019050919050565b6000612435603883612a43565b915061244082612f15565b604082019050919050565b6000612458602a83612a43565b915061246382612f64565b604082019050919050565b600061247b602983612a43565b915061248682612fb3565b604082019050919050565b600061249e602083612a43565b91506124a982613002565b602082019050919050565b60006124c1602c83612a43565b91506124cc8261302b565b604082019050919050565b60006124e4602983612a43565b91506124ef8261307a565b604082019050919050565b6000612507602f83612a43565b9150612512826130c9565b604082019050919050565b600061252a601f83612a43565b915061253582613118565b602082019050919050565b600061254d602183612a43565b915061255882613141565b604082019050919050565b6000612570603183612a43565b915061257b82613190565b604082019050919050565b61258f81612b52565b82525050565b6125a66125a182612b52565b612c3c565b82525050565b60006125b882856122af565b6020820191506125c88284612595565b6020820191508190509392505050565b60006020820190506125ed6000830184612282565b92915050565b60006080820190506126086000830187612282565b6126156020830186612282565b6126226040830185612586565b818103606083015261263481846122c6565b905095945050505050565b60006060820190506126546000830186612282565b6126616020830185612586565b818103604083015261267381846122c6565b9050949350505050565b60006020820190506126926000830184612291565b92915050565b60006040820190506126ad60008301856122a0565b6126ba6020830184612586565b9392505050565b60006080820190506126d660008301876122a0565b6126e36020830186612586565b6126f06040830185612282565b6126fd6060830184612586565b95945050505050565b60006020820190508181036000830152612720818461231d565b905092915050565b6000602082019050818103600083015261274181612356565b9050919050565b6000602082019050818103600083015261276181612379565b9050919050565b600060208201905081810360008301526127818161239c565b9050919050565b600060208201905081810360008301526127a1816123bf565b9050919050565b600060208201905081810360008301526127c1816123e2565b9050919050565b600060208201905081810360008301526127e181612405565b9050919050565b6000602082019050818103600083015261280181612428565b9050919050565b600060208201905081810360008301526128218161244b565b9050919050565b600060208201905081810360008301526128418161246e565b9050919050565b6000602082019050818103600083015261286181612491565b9050919050565b60006020820190508181036000830152612881816124b4565b9050919050565b600060208201905081810360008301526128a1816124d7565b9050919050565b600060208201905081810360008301526128c1816124fa565b9050919050565b600060208201905081810360008301526128e18161251d565b9050919050565b6000602082019050818103600083015261290181612540565b9050919050565b6000602082019050818103600083015261292181612563565b9050919050565b600060208201905061293d6000830184612586565b92915050565b60006040820190506129586000830185612586565b61296560208301846122ff565b9392505050565b60006040820190506129816000830185612586565b61298e602083018461230e565b9392505050565b600061299f6129b0565b90506129ab8282612c01565b919050565b6000604051905090565b600067ffffffffffffffff8211156129d5576129d4612d33565b5b6129de82612d76565b9050602081019050919050565b600067ffffffffffffffff821115612a0657612a05612d33565b5b612a0f82612d76565b9050602081019050919050565b600081519050919050565b600081519050919050565b600082825260208201905092915050565b600082825260208201905092915050565b6000612a5f82612b52565b9150612a6a83612b52565b9250827fffffffffffffffffffffffffffffffffffffffffffffffffffffffffffffffff03821115612a9f57612a9e612c77565b5b828201905092915050565b6000612ab582612b52565b9150612ac083612b52565b925082821015612ad357612ad2612c77565b5b828203905092915050565b6000612ae982612b32565b9050919050565b60008115159050919050565b6000819050919050565b60007fffffffff0000000000000000000000000000000000000000000000000000000082169050919050565b600073ffffffffffffffffffffffffffffffffffffffff82169050919050565b6000819050919050565b600060ff82169050919050565b6000612b7482612b5c565b9050919050565b6000612b8682612b5c565b9050919050565b82818337600083830152505050565b60005b83811015612bba578082015181840152602081019050612b9f565b83811115612bc9576000848401525b50505050565b60006002820490506001821680612be757607f821691505b60208210811415612bfb57612bfa612cd5565b5b50919050565b612c0a82612d76565b810181811067ffffffffffffffff82111715612c2957612c28612d33565b5b80604052505050565b6000819050919050565b6000819050919050565b6000612c5182612b52565b9150612c5c83612b52565b925082612c6c57612c6b612ca6565b5b828206905092915050565b7f4e487b7100000000000000000000000000000000000000000000000000000000600052601160045260246000fd5b7f4e487b7100000000000000000000000000000000000000000000000000000000600052601260045260246000fd5b7f4e487b7100000000000000000000000000000000000000000000000000000000600052602260045260246000fd5b7f4e487b7100000000000000000000000000000000000000000000000000000000600052603260045260246000fd5b7f4e487b7100000000000000000000000000000000000000000000000000000000600052604160045260246000fd5b600080fd5b600080fd5b600080fd5b600080fd5b6000601f19601f8301169050919050565b7f4552433732313a207472616e7366657220746f206e6f6e20455243373231526560008201527f63656976657220696d706c656d656e7465720000000000000000000000000000602082015250565b7f4552433732313a20746f6b656e20616c7265616479206d696e74656400000000600082015250565b7f4552433732313a207472616e7366657220746f20746865207a65726f2061646460008201527f7265737300000000000000000000000000000000000000000000000000000000602082015250565b7f4552433732313a20617070726f766520746f2063616c6c657200000000000000600082015250565b7f4e6f7420656e6f756768204c494e4b202d2066696c6c20636f6e74726163742060008201527f7769746820666175636574000000000000000000000000000000000000000000602082015250565b7f4552433732313a206f70657261746f7220717565727920666f72206e6f6e657860008201527f697374656e7420746f6b656e0000000000000000000000000000000000000000602082015250565b7f4552433732313a20617070726f76652063616c6c6572206973206e6f74206f7760008201527f6e6572206e6f7220617070726f76656420666f7220616c6c0000000000000000602082015250565b7f4552433732313a2062616c616e636520717565727920666f7220746865207a6560008201527f726f206164647265737300000000000000000000000000000000000000000000602082015250565b7f4552433732313a206f776e657220717565727920666f72206e6f6e657869737460008201527f656e7420746f6b656e0000000000000000000000000000000000000000000000602082015250565b7f4552433732313a206d696e7420746f20746865207a65726f2061646472657373600082015250565b7f4552433732313a20617070726f76656420717565727920666f72206e6f6e657860008201527f697374656e7420746f6b656e0000000000000000000000000000000000000000602082015250565b7f4552433732313a207472616e73666572206f6620746f6b656e2074686174206960008201527f73206e6f74206f776e0000000000000000000000000000000000000000000000602082015250565b7f4552433732314d657461646174613a2055524920717565727920666f72206e6f60008201527f6e6578697374656e7420746f6b656e0000000000000000000000000000000000602082015250565b7f4f6e6c7920565246436f6f7264696e61746f722063616e2066756c66696c6c00600082015250565b7f4552433732313a20617070726f76616c20746f2063757272656e74206f776e6560008201527f7200000000000000000000000000000000000000000000000000000000000000602082015250565b7f4552433732313a207472616e736665722063616c6c6572206973206e6f74206f60008201527f776e6572206e6f7220617070726f766564000000000000000000000000000000602082015250565b6131e881612ade565b81146131f357600080fd5b50565b6131ff81612af0565b811461320a57600080fd5b50565b61321681612afc565b811461322157600080fd5b50565b61322d81612b06565b811461323857600080fd5b50565b61324481612b52565b811461324f57600080fd5b5056fea26469706673582212204fbe3539a307af4262065d45609e7e36e0e43f63af9a971a69c1a10a4104176464736f6c63430008060033",
  "immutableReferences": {
    "2961": [
      {
        "length": 32,
        "start": 2160
      },
      {
        "length": 32,
        "start": 5597
      }
    ],
    "2963": [
      {
        "length": 32,
        "start": 2860
      },
      {
        "length": 32,
        "start": 5657
      }
    ]
  },
  "source": "// SPDX-License-Identifier: MIT\npragma solidity 0.8.6;\n\nimport \"./dependencies/ERC20.sol\";\nimport \"./dependencies/ERC721.sol\";\nimport \"./dependencies/VRFConsumerBase.sol\";\n\ncontract Gachapon is ERC721, VRFConsumerBase {\n  uint MAXIMUM_ATTACK = 100;\n  uint256 public token_count;\n  mapping (uint256 => uint256) public token_uri_ids;\n  mapping (bytes32 => address) public request_address;\n  string[] public uri_pool;\n  mapping (uint256 => uint) public token_attack;\n\n  //Chainlink preset variables\n  address LINK_TOKEN = 0x01BE23585060835E02B77ef475b0Cc51aA1e0709;\n  address VRF_COORDINATOR = 0xb3dCcb4Cf7a26f6cf6B120Cf5A73875B7BBc655B;\n  bytes32 KEYHASH = 0x2ed0feb3e7fd2022120aa84fab1945545a9f2ffc9076fd6156fa96eaff4c1311;\n  uint256 internal FEE = 0.1 ether;\n\n  constructor()\n    ERC721(\"My NFT\", \"NFT10\") \n    VRFConsumerBase(\n      VRF_COORDINATOR, // VRF Coordinator\n      LINK_TOKEN // LINK Token\n    ){}\n\n  function tokenURI(uint256 tokenId) public view virtual override returns (string memory) {\n    require(_exists(tokenId), \"ERC721Metadata: URI query for nonexistent token\");\n    return uri_pool[token_uri_ids[tokenId]];\n  }\n\n  function addURIToPool(string memory uri) public {\n    uri_pool.push(uri);\n  }\n\n  function setURIInPool(uint256 id, string memory uri) public {\n    uri_pool[id] = uri;\n  }\n\n  function mintNFT(address to) public\n  {\n    require(LINK.balanceOf(address(this)) >= FEE, \"Not enough LINK - fill contract with faucet\");\n\n    bytes32 requestId = requestRandomness(\n      KEYHASH, // KeyHash\n      FEE // Fee\n    );\n    request_address[requestId] = to;\n  }\n\n  function fulfillRandomness(bytes32 requestId, uint256 randomness) internal override {\n    token_count += 1;\n    _mint(request_address[requestId], token_count);\n    uint256 randomness1 = uint256(keccak256(abi.encode(randomness, 0)));\n    uint256 randomness2 = uint256(keccak256(abi.encode(randomness, 1)));\n    token_uri_ids[token_count] = randomness1 % uri_pool.length;\n    token_attack[token_count] = (randomness2 % MAXIMUM_ATTACK) + 1;\n  }\n}",
  "sourcePath": "/home/turupawn/Projects/Cryptobrawl/contracts/Gachapon.sol",
  "compiler": {
    "name": "solc",
    "version": "0.8.6+commit.11564f7e.Emscripten.clang"
  },
  "schemaVersion": "3.3.4",
  "updatedAt": "2021-07-24T06:29:28.889Z",
  "networkType": "ethereum",
  "devdoc": {
    "kind": "dev",
    "methods": {
      "approve(address,uint256)": {
        "details": "See {IERC721-approve}."
      },
      "balanceOf(address)": {
        "details": "See {IERC721-balanceOf}."
      },
      "getApproved(uint256)": {
        "details": "See {IERC721-getApproved}."
      },
      "isApprovedForAll(address,address)": {
        "details": "See {IERC721-isApprovedForAll}."
      },
      "name()": {
        "details": "See {IERC721Metadata-name}."
      },
      "ownerOf(uint256)": {
        "details": "See {IERC721-ownerOf}."
      },
      "safeTransferFrom(address,address,uint256)": {
        "details": "See {IERC721-safeTransferFrom}."
      },
      "safeTransferFrom(address,address,uint256,bytes)": {
        "details": "See {IERC721-safeTransferFrom}."
      },
      "setApprovalForAll(address,bool)": {
        "details": "See {IERC721-setApprovalForAll}."
      },
      "supportsInterface(bytes4)": {
        "details": "See {IERC165-supportsInterface}."
      },
      "symbol()": {
        "details": "See {IERC721Metadata-symbol}."
      },
      "tokenURI(uint256)": {
        "details": "See {IERC721Metadata-tokenURI}."
      },
      "transferFrom(address,address,uint256)": {
        "details": "See {IERC721-transferFrom}."
      }
    },
    "version": 1
  },
  "userdoc": {
    "kind": "user",
    "methods": {},
    "version": 1
  }
}