{
  "contractName": "Gachapon",
  "abi": [
    {
      "inputs": [],
      "stateMutability": "nonpayable",
      "type": "constructor"
    },
    {
      "anonymous": false,
      "inputs": [
        {
          "indexed": true,
          "internalType": "address",
          "name": "owner",
          "type": "address"
        },
        {
          "indexed": true,
          "internalType": "address",
          "name": "approved",
          "type": "address"
        },
        {
          "indexed": true,
          "internalType": "uint256",
          "name": "tokenId",
          "type": "uint256"
        }
      ],
      "name": "Approval",
      "type": "event"
    },
    {
      "anonymous": false,
      "inputs": [
        {
          "indexed": true,
          "internalType": "address",
          "name": "owner",
          "type": "address"
        },
        {
          "indexed": true,
          "internalType": "address",
          "name": "operator",
          "type": "address"
        },
        {
          "indexed": false,
          "internalType": "bool",
          "name": "approved",
          "type": "bool"
        }
      ],
      "name": "ApprovalForAll",
      "type": "event"
    },
    {
      "anonymous": false,
      "inputs": [
        {
          "indexed": true,
          "internalType": "address",
          "name": "from",
          "type": "address"
        },
        {
          "indexed": true,
          "internalType": "address",
          "name": "to",
          "type": "address"
        },
        {
          "indexed": true,
          "internalType": "uint256",
          "name": "tokenId",
          "type": "uint256"
        }
      ],
      "name": "Transfer",
      "type": "event"
    },
    {
      "inputs": [
        {
          "internalType": "address",
          "name": "to",
          "type": "address"
        },
        {
          "internalType": "uint256",
          "name": "tokenId",
          "type": "uint256"
        }
      ],
      "name": "approve",
      "outputs": [],
      "stateMutability": "nonpayable",
      "type": "function"
    },
    {
      "inputs": [
        {
          "internalType": "address",
          "name": "owner",
          "type": "address"
        }
      ],
      "name": "balanceOf",
      "outputs": [
        {
          "internalType": "uint256",
          "name": "",
          "type": "uint256"
        }
      ],
      "stateMutability": "view",
      "type": "function",
      "constant": true
    },
    {
      "inputs": [
        {
          "internalType": "uint256",
          "name": "tokenId",
          "type": "uint256"
        }
      ],
      "name": "getApproved",
      "outputs": [
        {
          "internalType": "address",
          "name": "",
          "type": "address"
        }
      ],
      "stateMutability": "view",
      "type": "function",
      "constant": true
    },
    {
      "inputs": [
        {
          "internalType": "address",
          "name": "owner",
          "type": "address"
        },
        {
          "internalType": "address",
          "name": "operator",
          "type": "address"
        }
      ],
      "name": "isApprovedForAll",
      "outputs": [
        {
          "internalType": "bool",
          "name": "",
          "type": "bool"
        }
      ],
      "stateMutability": "view",
      "type": "function",
      "constant": true
    },
    {
      "inputs": [],
      "name": "name",
      "outputs": [
        {
          "internalType": "string",
          "name": "",
          "type": "string"
        }
      ],
      "stateMutability": "view",
      "type": "function",
      "constant": true
    },
    {
      "inputs": [
        {
          "internalType": "uint256",
          "name": "tokenId",
          "type": "uint256"
        }
      ],
      "name": "ownerOf",
      "outputs": [
        {
          "internalType": "address",
          "name": "",
          "type": "address"
        }
      ],
      "stateMutability": "view",
      "type": "function",
      "constant": true
    },
    {
      "inputs": [
        {
          "internalType": "bytes32",
          "name": "requestId",
          "type": "bytes32"
        },
        {
          "internalType": "uint256",
          "name": "randomness",
          "type": "uint256"
        }
      ],
      "name": "rawFulfillRandomness",
      "outputs": [],
      "stateMutability": "nonpayable",
      "type": "function"
    },
    {
      "inputs": [
        {
          "internalType": "bytes32",
          "name": "",
          "type": "bytes32"
        }
      ],
      "name": "request_address",
      "outputs": [
        {
          "internalType": "address",
          "name": "",
          "type": "address"
        }
      ],
      "stateMutability": "view",
      "type": "function",
      "constant": true
    },
    {
      "inputs": [
        {
          "internalType": "address",
          "name": "from",
          "type": "address"
        },
        {
          "internalType": "address",
          "name": "to",
          "type": "address"
        },
        {
          "internalType": "uint256",
          "name": "tokenId",
          "type": "uint256"
        }
      ],
      "name": "safeTransferFrom",
      "outputs": [],
      "stateMutability": "nonpayable",
      "type": "function"
    },
    {
      "inputs": [
        {
          "internalType": "address",
          "name": "from",
          "type": "address"
        },
        {
          "internalType": "address",
          "name": "to",
          "type": "address"
        },
        {
          "internalType": "uint256",
          "name": "tokenId",
          "type": "uint256"
        },
        {
          "internalType": "bytes",
          "name": "_data",
          "type": "bytes"
        }
      ],
      "name": "safeTransferFrom",
      "outputs": [],
      "stateMutability": "nonpayable",
      "type": "function"
    },
    {
      "inputs": [
        {
          "internalType": "address",
          "name": "operator",
          "type": "address"
        },
        {
          "internalType": "bool",
          "name": "approved",
          "type": "bool"
        }
      ],
      "name": "setApprovalForAll",
      "outputs": [],
      "stateMutability": "nonpayable",
      "type": "function"
    },
    {
      "inputs": [],
      "name": "symbol",
      "outputs": [
        {
          "internalType": "string",
          "name": "",
          "type": "string"
        }
      ],
      "stateMutability": "view",
      "type": "function",
      "constant": true
    },
    {
      "inputs": [
        {
          "internalType": "uint256",
          "name": "index",
          "type": "uint256"
        }
      ],
      "name": "tokenByIndex",
      "outputs": [
        {
          "internalType": "uint256",
          "name": "",
          "type": "uint256"
        }
      ],
      "stateMutability": "view",
      "type": "function",
      "constant": true
    },
    {
      "inputs": [
        {
          "internalType": "address",
          "name": "owner",
          "type": "address"
        },
        {
          "internalType": "uint256",
          "name": "index",
          "type": "uint256"
        }
      ],
      "name": "tokenOfOwnerByIndex",
      "outputs": [
        {
          "internalType": "uint256",
          "name": "",
          "type": "uint256"
        }
      ],
      "stateMutability": "view",
      "type": "function",
      "constant": true
    },
    {
      "inputs": [
        {
          "internalType": "uint256",
          "name": "",
          "type": "uint256"
        }
      ],
      "name": "token_attack",
      "outputs": [
        {
          "internalType": "uint256",
          "name": "",
          "type": "uint256"
        }
      ],
      "stateMutability": "view",
      "type": "function",
      "constant": true
    },
    {
      "inputs": [],
      "name": "token_count",
      "outputs": [
        {
          "internalType": "uint256",
          "name": "",
          "type": "uint256"
        }
      ],
      "stateMutability": "view",
      "type": "function",
      "constant": true
    },
    {
      "inputs": [
        {
          "internalType": "uint256",
          "name": "",
          "type": "uint256"
        }
      ],
      "name": "token_uri_ids",
      "outputs": [
        {
          "internalType": "uint256",
          "name": "",
          "type": "uint256"
        }
      ],
      "stateMutability": "view",
      "type": "function",
      "constant": true
    },
    {
      "inputs": [],
      "name": "totalSupply",
      "outputs": [
        {
          "internalType": "uint256",
          "name": "",
          "type": "uint256"
        }
      ],
      "stateMutability": "view",
      "type": "function",
      "constant": true
    },
    {
      "inputs": [
        {
          "internalType": "address",
          "name": "from",
          "type": "address"
        },
        {
          "internalType": "address",
          "name": "to",
          "type": "address"
        },
        {
          "internalType": "uint256",
          "name": "tokenId",
          "type": "uint256"
        }
      ],
      "name": "transferFrom",
      "outputs": [],
      "stateMutability": "nonpayable",
      "type": "function"
    },
    {
      "inputs": [
        {
          "internalType": "uint256",
          "name": "",
          "type": "uint256"
        }
      ],
      "name": "uri_pool",
      "outputs": [
        {
          "internalType": "string",
          "name": "",
          "type": "string"
        }
      ],
      "stateMutability": "view",
      "type": "function",
      "constant": true
    },
    {
      "inputs": [
        {
          "internalType": "uint256",
          "name": "tokenId",
          "type": "uint256"
        }
      ],
      "name": "tokenURI",
      "outputs": [
        {
          "internalType": "string",
          "name": "",
          "type": "string"
        }
      ],
      "stateMutability": "view",
      "type": "function",
      "constant": true
    },
    {
      "inputs": [
        {
          "internalType": "string",
          "name": "uri",
          "type": "string"
        }
      ],
      "name": "addURIToPool",
      "outputs": [],
      "stateMutability": "nonpayable",
      "type": "function"
    },
    {
      "inputs": [
        {
          "internalType": "uint256",
          "name": "id",
          "type": "uint256"
        },
        {
          "internalType": "string",
          "name": "uri",
          "type": "string"
        }
      ],
      "name": "setURIInPool",
      "outputs": [],
      "stateMutability": "nonpayable",
      "type": "function"
    },
    {
      "inputs": [
        {
          "internalType": "address",
          "name": "to",
          "type": "address"
        }
      ],
      "name": "mintNFT",
      "outputs": [],
      "stateMutability": "nonpayable",
      "type": "function"
    },
    {
      "inputs": [
        {
          "internalType": "bytes4",
          "name": "interfaceId",
          "type": "bytes4"
        }
      ],
      "name": "supportsInterface",
      "outputs": [
        {
          "internalType": "bool",
          "name": "",
          "type": "bool"
        }
      ],
      "stateMutability": "view",
      "type": "function",
      "constant": true
    }
  ],
  "bytecode": "0x60c06040526064600b557301be23585060835e02b77ef475b0cc51aa1e0709601160006101000a81548173ffffffffffffffffffffffffffffffffffffffff021916908373ffffffffffffffffffffffffffffffffffffffff16021790555073b3dccb4cf7a26f6cf6b120cf5a73875b7bbc655b601260006101000a81548173ffffffffffffffffffffffffffffffffffffffff021916908373ffffffffffffffffffffffffffffffffffffffff1602179055507f2ed0feb3e7fd2022120aa84fab1945545a9f2ffc9076fd6156fa96eaff4c131160001b60135567016345785d8a0000601455348015620000f357600080fd5b50601260009054906101000a900473ffffffffffffffffffffffffffffffffffffffff16601160009054906101000a900473ffffffffffffffffffffffffffffffffffffffff166040518060400160405280600681526020017f4d79204e465400000000000000000000000000000000000000000000000000008152506040518060400160405280600581526020017f4e465431300000000000000000000000000000000000000000000000000000008152508160009080519060200190620001be92919062000250565b508060019080519060200190620001d792919062000250565b5050508173ffffffffffffffffffffffffffffffffffffffff1660a08173ffffffffffffffffffffffffffffffffffffffff1660601b815250508073ffffffffffffffffffffffffffffffffffffffff1660808173ffffffffffffffffffffffffffffffffffffffff1660601b81525050505062000365565b8280546200025e9062000300565b90600052602060002090601f016020900481019282620002825760008555620002ce565b82601f106200029d57805160ff1916838001178555620002ce565b82800160010185558215620002ce579182015b82811115620002cd578251825591602001919060010190620002b0565b5b509050620002dd9190620002e1565b5090565b5b80821115620002fc576000816000905550600101620002e2565b5090565b600060028204905060018216806200031957607f821691505b6020821081141562000330576200032f62000336565b5b50919050565b7f4e487b7100000000000000000000000000000000000000000000000000000000600052602260045260246000fd5b60805160601c60a05160601c613a636200039f60003960008181610c2e015261172b01526000818161097201526116ef0152613a636000f3fe608060405234801561001057600080fd5b50600436106101735760003560e01c806354ba0f27116100de578063aa90d08111610097578063c87b56dd11610071578063c87b56dd14610480578063d5069fbe146104b0578063e985e9c5146104cc578063ea763e44146104fc57610173565b8063aa90d08114610404578063ac7a53ea14610434578063b88d4fde1461046457610173565b806354ba0f27146103325780636352211e1461034e57806370a082311461037e57806394985ddd146103ae57806395d89b41146103ca578063a22cb465146103e857610173565b806323b872dd1161013057806323b872dd1461024e5780632f745c591461026a57806342842e0e1461029a578063447b7037146102b657806348bd3eca146102d25780634f6ccce71461030257610173565b806301ffc9a71461017857806306fdde03146101a8578063081812fc146101c6578063095ea7b3146101f657806318160ddd1461021257806323b161ab14610230575b600080fd5b610192600480360381019061018d91906127b1565b61052c565b60405161019f9190612d4b565b60405180910390f35b6101b061053e565b6040516101bd9190612dd4565b60405180910390f35b6101e060048036038101906101db9190612854565b6105d0565b6040516101ed9190612ca6565b60405180910390f35b610210600480360381019061020b91906126d7565b610655565b005b61021a61076d565b6040516102279190613036565b60405180910390f35b61023861077a565b6040516102459190613036565b60405180910390f35b610268600480360381019061026391906125c1565b610780565b005b610284600480360381019061027f91906126d7565b6107e0565b6040516102919190613036565b60405180910390f35b6102b460048036038101906102af91906125c1565b610885565b005b6102d060048036038101906102cb919061280b565b6108a5565b005b6102ec60048036038101906102e79190612854565b6108e4565b6040516102f99190613036565b60405180910390f35b61031c60048036038101906103179190612854565b6108fc565b6040516103299190613036565b60405180910390f35b61034c60048036038101906103479190612554565b61096d565b005b61036860048036038101906103639190612854565b610ac2565b6040516103759190612ca6565b60405180910390f35b61039860048036038101906103939190612554565b610b74565b6040516103a59190613036565b60405180910390f35b6103c860048036038101906103c39190612771565b610c2c565b005b6103d2610cc8565b6040516103df9190612dd4565b60405180910390f35b61040260048036038101906103fd9190612697565b610d5a565b005b61041e60048036038101906104199190612854565b610edb565b60405161042b9190612dd4565b60405180910390f35b61044e60048036038101906104499190612744565b610f87565b60405161045b9190612ca6565b60405180910390f35b61047e60048036038101906104799190612614565b610fba565b005b61049a60048036038101906104959190612854565b61101c565b6040516104a79190612dd4565b60405180910390f35b6104ca60048036038101906104c591906128ae565b611127565b005b6104e660048036038101906104e19190612581565b61115e565b6040516104f39190612d4b565b60405180910390f35b61051660048036038101906105119190612854565b6111f2565b6040516105239190613036565b60405180910390f35b60006105378261120a565b9050919050565b60606000805461054d906132dd565b80601f0160208091040260200160405190810160405280929190818152602001828054610579906132dd565b80156105c65780601f1061059b576101008083540402835291602001916105c6565b820191906000526020600020905b8154815290600101906020018083116105a957829003601f168201915b5050505050905090565b60006105db82611284565b61061a576040517f08c379a000000000000000000000000000000000000000000000000000000000815260040161061190612f56565b60405180910390fd5b6004600083815260200190815260200160002060009054906101000a900473ffffffffffffffffffffffffffffffffffffffff169050919050565b600061066082610ac2565b90508073ffffffffffffffffffffffffffffffffffffffff168373ffffffffffffffffffffffffffffffffffffffff1614156106d1576040517f08c379a00000000000000000000000000000000000000000000000000000000081526004016106c890612fd6565b60405180910390fd5b8073ffffffffffffffffffffffffffffffffffffffff166106f06112f0565b73ffffffffffffffffffffffffffffffffffffffff16148061071f575061071e816107196112f0565b61115e565b5b61075e576040517f08c379a000000000000000000000000000000000000000000000000000000000815260040161075590612ed6565b60405180910390fd5b61076883836112f8565b505050565b6000600880549050905090565b600c5481565b61079161078b6112f0565b826113b1565b6107d0576040517f08c379a00000000000000000000000000000000000000000000000000000000081526004016107c790612ff6565b60405180910390fd5b6107db83838361148f565b505050565b60006107eb83610b74565b821061082c576040517f08c379a000000000000000000000000000000000000000000000000000000000815260040161082390612df6565b60405180910390fd5b600660008473ffffffffffffffffffffffffffffffffffffffff1673ffffffffffffffffffffffffffffffffffffffff168152602001908152602001600020600083815260200190815260200160002054905092915050565b6108a083838360405180602001604052806000815250610fba565b505050565b600f819080600181540180825580915050600190039060005260206000200160009091909190915090805190602001906108e0929190612329565b5050565b600d6020528060005260406000206000915090505481565b600061090661076d565b8210610947576040517f08c379a000000000000000000000000000000000000000000000000000000000815260040161093e90613016565b60405180910390fd5b6008828154811061095b5761095a613441565b5b90600052602060002001549050919050565b6014547f000000000000000000000000000000000000000000000000000000000000000073ffffffffffffffffffffffffffffffffffffffff166370a08231306040518263ffffffff1660e01b81526004016109c99190612ca6565b60206040518083038186803b1580156109e157600080fd5b505afa1580156109f5573d6000803e3d6000fd5b505050506040513d601f19601f82011682018060405250810190610a199190612881565b1015610a5a576040517f08c379a0000000000000000000000000000000000000000000000000000000008152600401610a5190612e96565b60405180910390fd5b6000610a6a6013546014546116eb565b905081600e600083815260200190815260200160002060006101000a81548173ffffffffffffffffffffffffffffffffffffffff021916908373ffffffffffffffffffffffffffffffffffffffff1602179055505050565b6000806002600084815260200190815260200160002060009054906101000a900473ffffffffffffffffffffffffffffffffffffffff169050600073ffffffffffffffffffffffffffffffffffffffff168173ffffffffffffffffffffffffffffffffffffffff161415610b6b576040517f08c379a0000000000000000000000000000000000000000000000000000000008152600401610b6290612f16565b60405180910390fd5b80915050919050565b60008073ffffffffffffffffffffffffffffffffffffffff168273ffffffffffffffffffffffffffffffffffffffff161415610be5576040517f08c379a0000000000000000000000000000000000000000000000000000000008152600401610bdc90612ef6565b60405180910390fd5b600360008373ffffffffffffffffffffffffffffffffffffffff1673ffffffffffffffffffffffffffffffffffffffff168152602001908152602001600020549050919050565b7f000000000000000000000000000000000000000000000000000000000000000073ffffffffffffffffffffffffffffffffffffffff163373ffffffffffffffffffffffffffffffffffffffff1614610cba576040517f08c379a0000000000000000000000000000000000000000000000000000000008152600401610cb190612fb6565b60405180910390fd5b610cc4828261184d565b5050565b606060018054610cd7906132dd565b80601f0160208091040260200160405190810160405280929190818152602001828054610d03906132dd565b8015610d505780601f10610d2557610100808354040283529160200191610d50565b820191906000526020600020905b815481529060010190602001808311610d3357829003601f168201915b5050505050905090565b610d626112f0565b73ffffffffffffffffffffffffffffffffffffffff168273ffffffffffffffffffffffffffffffffffffffff161415610dd0576040517f08c379a0000000000000000000000000000000000000000000000000000000008152600401610dc790612e76565b60405180910390fd5b8060056000610ddd6112f0565b73ffffffffffffffffffffffffffffffffffffffff1673ffffffffffffffffffffffffffffffffffffffff16815260200190815260200160002060008473ffffffffffffffffffffffffffffffffffffffff1673ffffffffffffffffffffffffffffffffffffffff16815260200190815260200160002060006101000a81548160ff0219169083151502179055508173ffffffffffffffffffffffffffffffffffffffff16610e8a6112f0565b73ffffffffffffffffffffffffffffffffffffffff167f17307eab39ab6107e8899845ad3d59bd9653f200f220920489ca2b5937696c3183604051610ecf9190612d4b565b60405180910390a35050565b600f8181548110610eeb57600080fd5b906000526020600020016000915090508054610f06906132dd565b80601f0160208091040260200160405190810160405280929190818152602001828054610f32906132dd565b8015610f7f5780601f10610f5457610100808354040283529160200191610f7f565b820191906000526020600020905b815481529060010190602001808311610f6257829003601f168201915b505050505081565b600e6020528060005260406000206000915054906101000a900473ffffffffffffffffffffffffffffffffffffffff1681565b610fcb610fc56112f0565b836113b1565b61100a576040517f08c379a000000000000000000000000000000000000000000000000000000000815260040161100190612ff6565b60405180910390fd5b6110168484848461196b565b50505050565b606061102782611284565b611066576040517f08c379a000000000000000000000000000000000000000000000000000000000815260040161105d90612f96565b60405180910390fd5b600f600d6000848152602001908152602001600020548154811061108d5761108c613441565b5b9060005260206000200180546110a2906132dd565b80601f01602080910402602001604051908101604052809291908181526020018280546110ce906132dd565b801561111b5780601f106110f05761010080835404028352916020019161111b565b820191906000526020600020905b8154815290600101906020018083116110fe57829003601f168201915b50505050509050919050565b80600f838154811061113c5761113b613441565b5b906000526020600020019080519060200190611159929190612329565b505050565b6000600560008473ffffffffffffffffffffffffffffffffffffffff1673ffffffffffffffffffffffffffffffffffffffff16815260200190815260200160002060008373ffffffffffffffffffffffffffffffffffffffff1673ffffffffffffffffffffffffffffffffffffffff16815260200190815260200160002060009054906101000a900460ff16905092915050565b60106020528060005260406000206000915090505481565b60007f780e9d63000000000000000000000000000000000000000000000000000000007bffffffffffffffffffffffffffffffffffffffffffffffffffffffff1916827bffffffffffffffffffffffffffffffffffffffffffffffffffffffff1916148061127d575061127c826119c7565b5b9050919050565b60008073ffffffffffffffffffffffffffffffffffffffff166002600084815260200190815260200160002060009054906101000a900473ffffffffffffffffffffffffffffffffffffffff1673ffffffffffffffffffffffffffffffffffffffff1614159050919050565b600033905090565b816004600083815260200190815260200160002060006101000a81548173ffffffffffffffffffffffffffffffffffffffff021916908373ffffffffffffffffffffffffffffffffffffffff160217905550808273ffffffffffffffffffffffffffffffffffffffff1661136b83610ac2565b73ffffffffffffffffffffffffffffffffffffffff167f8c5be1e5ebec7d5bd14f71427d1e84f3dd0314c0f7b2291e5b200ac8c7c3b92560405160405180910390a45050565b60006113bc82611284565b6113fb576040517f08c379a00000000000000000000000000000000000000000000000000000000081526004016113f290612eb6565b60405180910390fd5b600061140683610ac2565b90508073ffffffffffffffffffffffffffffffffffffffff168473ffffffffffffffffffffffffffffffffffffffff16148061147557508373ffffffffffffffffffffffffffffffffffffffff1661145d846105d0565b73ffffffffffffffffffffffffffffffffffffffff16145b806114865750611485818561115e565b5b91505092915050565b8273ffffffffffffffffffffffffffffffffffffffff166114af82610ac2565b73ffffffffffffffffffffffffffffffffffffffff1614611505576040517f08c379a00000000000000000000000000000000000000000000000000000000081526004016114fc90612f76565b60405180910390fd5b600073ffffffffffffffffffffffffffffffffffffffff168273ffffffffffffffffffffffffffffffffffffffff161415611575576040517f08c379a000000000000000000000000000000000000000000000000000000000815260040161156c90612e56565b60405180910390fd5b611580838383611aa9565b61158b6000826112f8565b6001600360008573ffffffffffffffffffffffffffffffffffffffff1673ffffffffffffffffffffffffffffffffffffffff16815260200190815260200160002060008282546115db91906131b8565b925050819055506001600360008473ffffffffffffffffffffffffffffffffffffffff1673ffffffffffffffffffffffffffffffffffffffff16815260200190815260200160002060008282546116329190613162565b92505081905550816002600083815260200190815260200160002060006101000a81548173ffffffffffffffffffffffffffffffffffffffff021916908373ffffffffffffffffffffffffffffffffffffffff160217905550808273ffffffffffffffffffffffffffffffffffffffff168473ffffffffffffffffffffffffffffffffffffffff167fddf252ad1be2c89b69c2b068fc378daa952ba7f163c4a11628f55a4df523b3ef60405160405180910390a4505050565b60007f000000000000000000000000000000000000000000000000000000000000000073ffffffffffffffffffffffffffffffffffffffff16634000aea07f00000000000000000000000000000000000000000000000000000000000000008486600060405160200161175f929190612d66565b6040516020818303038152906040526040518463ffffffff1660e01b815260040161178c93929190612d0d565b602060405180830381600087803b1580156117a657600080fd5b505af11580156117ba573d6000803e3d6000fd5b505050506040513d601f19601f820116820180604052508101906117de9190612717565b50600061180184600030600a600089815260200190815260200160002054611ab9565b90506001600a6000868152602001908152602001600020546118239190613162565b600a6000868152602001908152602001600020819055506118448482611af5565b91505092915050565b6001600c60008282546118609190613162565b925050819055506118a6600e600084815260200190815260200160002060009054906101000a900473ffffffffffffffffffffffffffffffffffffffff16600c54611b28565b60008160006040516020016118bc929190613051565b6040516020818303038152906040528051906020012060001c905060008260016040516020016118ed92919061307a565b6040516020818303038152906040528051906020012060001c9050600f80549050826119199190613354565b600d6000600c548152602001908152602001600020819055506001600b54826119429190613354565b61194c9190613162565b60106000600c5481526020019081526020016000208190555050505050565b61197684848461148f565b61198284848484611cf6565b6119c1576040517f08c379a00000000000000000000000000000000000000000000000000000000081526004016119b890612e16565b60405180910390fd5b50505050565b60007f80ac58cd000000000000000000000000000000000000000000000000000000007bffffffffffffffffffffffffffffffffffffffffffffffffffffffff1916827bffffffffffffffffffffffffffffffffffffffffffffffffffffffff19161480611a9257507f5b5e139f000000000000000000000000000000000000000000000000000000007bffffffffffffffffffffffffffffffffffffffffffffffffffffffff1916827bffffffffffffffffffffffffffffffffffffffffffffffffffffffff1916145b80611aa25750611aa182611e8d565b5b9050919050565b611ab4838383611ef7565b505050565b600084848484604051602001611ad29493929190612d8f565b6040516020818303038152906040528051906020012060001c9050949350505050565b60008282604051602001611b0a929190612c7a565b60405160208183030381529060405280519060200120905092915050565b600073ffffffffffffffffffffffffffffffffffffffff168273ffffffffffffffffffffffffffffffffffffffff161415611b98576040517f08c379a0000000000000000000000000000000000000000000000000000000008152600401611b8f90612f36565b60405180910390fd5b611ba181611284565b15611be1576040517f08c379a0000000000000000000000000000000000000000000000000000000008152600401611bd890612e36565b60405180910390fd5b611bed60008383611aa9565b6001600360008473ffffffffffffffffffffffffffffffffffffffff1673ffffffffffffffffffffffffffffffffffffffff1681526020019081526020016000206000828254611c3d9190613162565b92505081905550816002600083815260200190815260200160002060006101000a81548173ffffffffffffffffffffffffffffffffffffffff021916908373ffffffffffffffffffffffffffffffffffffffff160217905550808273ffffffffffffffffffffffffffffffffffffffff16600073ffffffffffffffffffffffffffffffffffffffff167fddf252ad1be2c89b69c2b068fc378daa952ba7f163c4a11628f55a4df523b3ef60405160405180910390a45050565b6000611d178473ffffffffffffffffffffffffffffffffffffffff1661200b565b15611e80578373ffffffffffffffffffffffffffffffffffffffff1663150b7a02611d406112f0565b8786866040518563ffffffff1660e01b8152600401611d629493929190612cc1565b602060405180830381600087803b158015611d7c57600080fd5b505af1925050508015611dad57506040513d601f19601f82011682018060405250810190611daa91906127de565b60015b611e30573d8060008114611ddd576040519150601f19603f3d011682016040523d82523d6000602084013e611de2565b606091505b50600081511415611e28576040517f08c379a0000000000000000000000000000000000000000000000000000000008152600401611e1f90612e16565b60405180910390fd5b805181602001fd5b63150b7a0260e01b7bffffffffffffffffffffffffffffffffffffffffffffffffffffffff1916817bffffffffffffffffffffffffffffffffffffffffffffffffffffffff191614915050611e85565b600190505b949350505050565b60007f01ffc9a7000000000000000000000000000000000000000000000000000000007bffffffffffffffffffffffffffffffffffffffffffffffffffffffff1916827bffffffffffffffffffffffffffffffffffffffffffffffffffffffff1916149050919050565b611f0283838361201e565b600073ffffffffffffffffffffffffffffffffffffffff168373ffffffffffffffffffffffffffffffffffffffff161415611f4557611f4081612023565b611f84565b8173ffffffffffffffffffffffffffffffffffffffff168373ffffffffffffffffffffffffffffffffffffffff1614611f8357611f82838261206c565b5b5b600073ffffffffffffffffffffffffffffffffffffffff168273ffffffffffffffffffffffffffffffffffffffff161415611fc757611fc2816121d9565b612006565b8273ffffffffffffffffffffffffffffffffffffffff168273ffffffffffffffffffffffffffffffffffffffff16146120055761200482826122aa565b5b5b505050565b600080823b905060008111915050919050565b505050565b6008805490506009600083815260200190815260200160002081905550600881908060018154018082558091505060019003906000526020600020016000909190919091505550565b6000600161207984610b74565b61208391906131b8565b9050600060076000848152602001908152602001600020549050818114612168576000600660008673ffffffffffffffffffffffffffffffffffffffff1673ffffffffffffffffffffffffffffffffffffffff168152602001908152602001600020600084815260200190815260200160002054905080600660008773ffffffffffffffffffffffffffffffffffffffff1673ffffffffffffffffffffffffffffffffffffffff168152602001908152602001600020600084815260200190815260200160002081905550816007600083815260200190815260200160002081905550505b6007600084815260200190815260200160002060009055600660008573ffffffffffffffffffffffffffffffffffffffff1673ffffffffffffffffffffffffffffffffffffffff16815260200190815260200160002060008381526020019081526020016000206000905550505050565b600060016008805490506121ed91906131b8565b905060006009600084815260200190815260200160002054905060006008838154811061221d5761221c613441565b5b90600052602060002001549050806008838154811061223f5761223e613441565b5b90600052602060002001819055508160096000838152602001908152602001600020819055506009600085815260200190815260200160002060009055600880548061228e5761228d613412565b5b6001900381819060005260206000200160009055905550505050565b60006122b583610b74565b905081600660008573ffffffffffffffffffffffffffffffffffffffff1673ffffffffffffffffffffffffffffffffffffffff168152602001908152602001600020600083815260200190815260200160002081905550806007600084815260200190815260200160002081905550505050565b828054612335906132dd565b90600052602060002090601f016020900481019282612357576000855561239e565b82601f1061237057805160ff191683800117855561239e565b8280016001018555821561239e579182015b8281111561239d578251825591602001919060010190612382565b5b5090506123ab91906123af565b5090565b5b808211156123c85760008160009055506001016123b0565b5090565b60006123df6123da846130c8565b6130a3565b9050828152602081018484840111156123fb576123fa6134a4565b5b61240684828561329b565b509392505050565b600061242161241c846130f9565b6130a3565b90508281526020810184848401111561243d5761243c6134a4565b5b61244884828561329b565b509392505050565b60008135905061245f816139ba565b92915050565b600081359050612474816139d1565b92915050565b600081519050612489816139d1565b92915050565b60008135905061249e816139e8565b92915050565b6000813590506124b3816139ff565b92915050565b6000815190506124c8816139ff565b92915050565b600082601f8301126124e3576124e261349f565b5b81356124f38482602086016123cc565b91505092915050565b600082601f8301126125115761251061349f565b5b813561252184826020860161240e565b91505092915050565b60008135905061253981613a16565b92915050565b60008151905061254e81613a16565b92915050565b60006020828403121561256a576125696134ae565b5b600061257884828501612450565b91505092915050565b60008060408385031215612598576125976134ae565b5b60006125a685828601612450565b92505060206125b785828601612450565b9150509250929050565b6000806000606084860312156125da576125d96134ae565b5b60006125e886828701612450565b93505060206125f986828701612450565b925050604061260a8682870161252a565b9150509250925092565b6000806000806080858703121561262e5761262d6134ae565b5b600061263c87828801612450565b945050602061264d87828801612450565b935050604061265e8782880161252a565b925050606085013567ffffffffffffffff81111561267f5761267e6134a9565b5b61268b878288016124ce565b91505092959194509250565b600080604083850312156126ae576126ad6134ae565b5b60006126bc85828601612450565b92505060206126cd85828601612465565b9150509250929050565b600080604083850312156126ee576126ed6134ae565b5b60006126fc85828601612450565b925050602061270d8582860161252a565b9150509250929050565b60006020828403121561272d5761272c6134ae565b5b600061273b8482850161247a565b91505092915050565b60006020828403121561275a576127596134ae565b5b60006127688482850161248f565b91505092915050565b60008060408385031215612788576127876134ae565b5b60006127968582860161248f565b92505060206127a78582860161252a565b9150509250929050565b6000602082840312156127c7576127c66134ae565b5b60006127d5848285016124a4565b91505092915050565b6000602082840312156127f4576127f36134ae565b5b6000612802848285016124b9565b91505092915050565b600060208284031215612821576128206134ae565b5b600082013567ffffffffffffffff81111561283f5761283e6134a9565b5b61284b848285016124fc565b91505092915050565b60006020828403121561286a576128696134ae565b5b60006128788482850161252a565b91505092915050565b600060208284031215612897576128966134ae565b5b60006128a58482850161253f565b91505092915050565b600080604083850312156128c5576128c46134ae565b5b60006128d38582860161252a565b925050602083013567ffffffffffffffff8111156128f4576128f36134a9565b5b612900858286016124fc565b9150509250929050565b612913816131ec565b82525050565b612922816131fe565b82525050565b6129318161320a565b82525050565b6129486129438261320a565b613340565b82525050565b60006129598261312a565b6129638185613140565b93506129738185602086016132aa565b61297c816134b3565b840191505092915050565b61299081613277565b82525050565b61299f81613289565b82525050565b60006129b082613135565b6129ba8185613151565b93506129ca8185602086016132aa565b6129d3816134b3565b840191505092915050565b60006129eb602b83613151565b91506129f6826134c4565b604082019050919050565b6000612a0e603283613151565b9150612a1982613513565b604082019050919050565b6000612a31601c83613151565b9150612a3c82613562565b602082019050919050565b6000612a54602483613151565b9150612a5f8261358b565b604082019050919050565b6000612a77601983613151565b9150612a82826135da565b602082019050919050565b6000612a9a602b83613151565b9150612aa582613603565b604082019050919050565b6000612abd602c83613151565b9150612ac882613652565b604082019050919050565b6000612ae0603883613151565b9150612aeb826136a1565b604082019050919050565b6000612b03602a83613151565b9150612b0e826136f0565b604082019050919050565b6000612b26602983613151565b9150612b318261373f565b604082019050919050565b6000612b49602083613151565b9150612b548261378e565b602082019050919050565b6000612b6c602c83613151565b9150612b77826137b7565b604082019050919050565b6000612b8f602983613151565b9150612b9a82613806565b604082019050919050565b6000612bb2602f83613151565b9150612bbd82613855565b604082019050919050565b6000612bd5601f83613151565b9150612be0826138a4565b602082019050919050565b6000612bf8602183613151565b9150612c03826138cd565b604082019050919050565b6000612c1b603183613151565b9150612c268261391c565b604082019050919050565b6000612c3e602c83613151565b9150612c498261396b565b604082019050919050565b612c5d81613260565b82525050565b612c74612c6f82613260565b61334a565b82525050565b6000612c868285612937565b602082019150612c968284612c63565b6020820191508190509392505050565b6000602082019050612cbb600083018461290a565b92915050565b6000608082019050612cd6600083018761290a565b612ce3602083018661290a565b612cf06040830185612c54565b8181036060830152612d02818461294e565b905095945050505050565b6000606082019050612d22600083018661290a565b612d2f6020830185612c54565b8181036040830152612d41818461294e565b9050949350505050565b6000602082019050612d606000830184612919565b92915050565b6000604082019050612d7b6000830185612928565b612d886020830184612c54565b9392505050565b6000608082019050612da46000830187612928565b612db16020830186612c54565b612dbe604083018561290a565b612dcb6060830184612c54565b95945050505050565b60006020820190508181036000830152612dee81846129a5565b905092915050565b60006020820190508181036000830152612e0f816129de565b9050919050565b60006020820190508181036000830152612e2f81612a01565b9050919050565b60006020820190508181036000830152612e4f81612a24565b9050919050565b60006020820190508181036000830152612e6f81612a47565b9050919050565b60006020820190508181036000830152612e8f81612a6a565b9050919050565b60006020820190508181036000830152612eaf81612a8d565b9050919050565b60006020820190508181036000830152612ecf81612ab0565b9050919050565b60006020820190508181036000830152612eef81612ad3565b9050919050565b60006020820190508181036000830152612f0f81612af6565b9050919050565b60006020820190508181036000830152612f2f81612b19565b9050919050565b60006020820190508181036000830152612f4f81612b3c565b9050919050565b60006020820190508181036000830152612f6f81612b5f565b9050919050565b60006020820190508181036000830152612f8f81612b82565b9050919050565b60006020820190508181036000830152612faf81612ba5565b9050919050565b60006020820190508181036000830152612fcf81612bc8565b9050919050565b60006020820190508181036000830152612fef81612beb565b9050919050565b6000602082019050818103600083015261300f81612c0e565b9050919050565b6000602082019050818103600083015261302f81612c31565b9050919050565b600060208201905061304b6000830184612c54565b92915050565b60006040820190506130666000830185612c54565b6130736020830184612987565b9392505050565b600060408201905061308f6000830185612c54565b61309c6020830184612996565b9392505050565b60006130ad6130be565b90506130b9828261330f565b919050565b6000604051905090565b600067ffffffffffffffff8211156130e3576130e2613470565b5b6130ec826134b3565b9050602081019050919050565b600067ffffffffffffffff82111561311457613113613470565b5b61311d826134b3565b9050602081019050919050565b600081519050919050565b600081519050919050565b600082825260208201905092915050565b600082825260208201905092915050565b600061316d82613260565b915061317883613260565b9250827fffffffffffffffffffffffffffffffffffffffffffffffffffffffffffffffff038211156131ad576131ac613385565b5b828201905092915050565b60006131c382613260565b91506131ce83613260565b9250828210156131e1576131e0613385565b5b828203905092915050565b60006131f782613240565b9050919050565b60008115159050919050565b6000819050919050565b60007fffffffff0000000000000000000000000000000000000000000000000000000082169050919050565b600073ffffffffffffffffffffffffffffffffffffffff82169050919050565b6000819050919050565b600060ff82169050919050565b60006132828261326a565b9050919050565b60006132948261326a565b9050919050565b82818337600083830152505050565b60005b838110156132c85780820151818401526020810190506132ad565b838111156132d7576000848401525b50505050565b600060028204905060018216806132f557607f821691505b60208210811415613309576133086133e3565b5b50919050565b613318826134b3565b810181811067ffffffffffffffff8211171561333757613336613470565b5b80604052505050565b6000819050919050565b6000819050919050565b600061335f82613260565b915061336a83613260565b92508261337a576133796133b4565b5b828206905092915050565b7f4e487b7100000000000000000000000000000000000000000000000000000000600052601160045260246000fd5b7f4e487b7100000000000000000000000000000000000000000000000000000000600052601260045260246000fd5b7f4e487b7100000000000000000000000000000000000000000000000000000000600052602260045260246000fd5b7f4e487b7100000000000000000000000000000000000000000000000000000000600052603160045260246000fd5b7f4e487b7100000000000000000000000000000000000000000000000000000000600052603260045260246000fd5b7f4e487b7100000000000000000000000000000000000000000000000000000000600052604160045260246000fd5b600080fd5b600080fd5b600080fd5b600080fd5b6000601f19601f8301169050919050565b7f455243373231456e756d657261626c653a206f776e657220696e646578206f7560008201527f74206f6620626f756e6473000000000000000000000000000000000000000000602082015250565b7f4552433732313a207472616e7366657220746f206e6f6e20455243373231526560008201527f63656976657220696d706c656d656e7465720000000000000000000000000000602082015250565b7f4552433732313a20746f6b656e20616c7265616479206d696e74656400000000600082015250565b7f4552433732313a207472616e7366657220746f20746865207a65726f2061646460008201527f7265737300000000000000000000000000000000000000000000000000000000602082015250565b7f4552433732313a20617070726f766520746f2063616c6c657200000000000000600082015250565b7f4e6f7420656e6f756768204c494e4b202d2066696c6c20636f6e74726163742060008201527f7769746820666175636574000000000000000000000000000000000000000000602082015250565b7f4552433732313a206f70657261746f7220717565727920666f72206e6f6e657860008201527f697374656e7420746f6b656e0000000000000000000000000000000000000000602082015250565b7f4552433732313a20617070726f76652063616c6c6572206973206e6f74206f7760008201527f6e6572206e6f7220617070726f76656420666f7220616c6c0000000000000000602082015250565b7f4552433732313a2062616c616e636520717565727920666f7220746865207a6560008201527f726f206164647265737300000000000000000000000000000000000000000000602082015250565b7f4552433732313a206f776e657220717565727920666f72206e6f6e657869737460008201527f656e7420746f6b656e0000000000000000000000000000000000000000000000602082015250565b7f4552433732313a206d696e7420746f20746865207a65726f2061646472657373600082015250565b7f4552433732313a20617070726f76656420717565727920666f72206e6f6e657860008201527f697374656e7420746f6b656e0000000000000000000000000000000000000000602082015250565b7f4552433732313a207472616e73666572206f6620746f6b656e2074686174206960008201527f73206e6f74206f776e0000000000000000000000000000000000000000000000602082015250565b7f4552433732314d657461646174613a2055524920717565727920666f72206e6f60008201527f6e6578697374656e7420746f6b656e0000000000000000000000000000000000602082015250565b7f4f6e6c7920565246436f6f7264696e61746f722063616e2066756c66696c6c00600082015250565b7f4552433732313a20617070726f76616c20746f2063757272656e74206f776e6560008201527f7200000000000000000000000000000000000000000000000000000000000000602082015250565b7f4552433732313a207472616e736665722063616c6c6572206973206e6f74206f60008201527f776e6572206e6f7220617070726f766564000000000000000000000000000000602082015250565b7f455243373231456e756d657261626c653a20676c6f62616c20696e646578206f60008201527f7574206f6620626f756e64730000000000000000000000000000000000000000602082015250565b6139c3816131ec565b81146139ce57600080fd5b50565b6139da816131fe565b81146139e557600080fd5b50565b6139f18161320a565b81146139fc57600080fd5b50565b613a0881613214565b8114613a1357600080fd5b50565b613a1f81613260565b8114613a2a57600080fd5b5056fea2646970667358221220d9f7cb0dae472b81ca1578e6e5090bb573ecda063adfa4bb2306e3b8fea99ff264736f6c63430008060033",
  "immutableReferences": {
    "3368": [
      {
        "length": 32,
        "start": 2418
      },
      {
        "length": 32,
        "start": 5871
      }
    ],
    "3370": [
      {
        "length": 32,
        "start": 3118
      },
      {
        "length": 32,
        "start": 5931
      }
    ]
  },
  "source": "// SPDX-License-Identifier: MIT\npragma solidity 0.8.6;\n\nimport \"./dependencies/ERC20.sol\";\nimport \"./dependencies/ERC721.sol\";\nimport \"./dependencies/ERC721Enumerable.sol\";\nimport \"./dependencies/VRFConsumerBase.sol\";\n\ncontract Gachapon is ERC721, ERC721Enumerable, VRFConsumerBase {\n  uint MAXIMUM_ATTACK = 100;\n  uint256 public token_count;\n  mapping (uint256 => uint256) public token_uri_ids;\n  mapping (bytes32 => address) public request_address;\n  string[] public uri_pool;\n  mapping (uint256 => uint) public token_attack;\n\n  //Chainlink preset variables\n  address LINK_TOKEN = 0x01BE23585060835E02B77ef475b0Cc51aA1e0709;\n  address VRF_COORDINATOR = 0xb3dCcb4Cf7a26f6cf6B120Cf5A73875B7BBc655B;\n  bytes32 KEYHASH = 0x2ed0feb3e7fd2022120aa84fab1945545a9f2ffc9076fd6156fa96eaff4c1311;\n  uint256 internal FEE = 0.1 ether;\n\n  constructor()\n    ERC721(\"My NFT\", \"NFT10\") \n    VRFConsumerBase(\n      VRF_COORDINATOR, // VRF Coordinator\n      LINK_TOKEN // LINK Token\n    ){}\n\n  function tokenURI(uint256 tokenId) public view virtual override returns (string memory) {\n    require(_exists(tokenId), \"ERC721Metadata: URI query for nonexistent token\");\n    return uri_pool[token_uri_ids[tokenId]];\n  }\n\n  function addURIToPool(string memory uri) public {\n    uri_pool.push(uri);\n  }\n\n  function setURIInPool(uint256 id, string memory uri) public {\n    uri_pool[id] = uri;\n  }\n\n  function mintNFT(address to) public\n  {\n    require(LINK.balanceOf(address(this)) >= FEE, \"Not enough LINK - fill contract with faucet\");\n\n    bytes32 requestId = requestRandomness(\n      KEYHASH, // KeyHash\n      FEE // Fee\n    );\n    request_address[requestId] = to;\n  }\n\n  function fulfillRandomness(bytes32 requestId, uint256 randomness) internal override {\n    token_count += 1;\n    _mint(request_address[requestId], token_count);\n    uint256 randomness1 = uint256(keccak256(abi.encode(randomness, 0)));\n    uint256 randomness2 = uint256(keccak256(abi.encode(randomness, 1)));\n    token_uri_ids[token_count] = randomness1 % uri_pool.length;\n    token_attack[token_count] = (randomness2 % MAXIMUM_ATTACK) + 1;\n  }\n\n  function supportsInterface(bytes4 interfaceId)\n    public\n    view\n    override(ERC721, ERC721Enumerable)\n    returns (bool)\n  {\n      return super.supportsInterface(interfaceId);\n  }\n\n  function _beforeTokenTransfer(address from, address to, uint256 tokenId)\n    internal\n    override(ERC721, ERC721Enumerable)\n  {\n    super._beforeTokenTransfer(from, to, tokenId);\n  }\n}",
  "sourcePath": "/home/turupawn/Projects/Cryptobrawl/contracts/Gachapon.sol",
  "compiler": {
    "name": "solc",
    "version": "0.8.6+commit.11564f7e.Emscripten.clang"
  },
  "schemaVersion": "3.3.4",
  "updatedAt": "2021-07-24T18:26:00.060Z",
  "networkType": "ethereum",
  "devdoc": {
    "kind": "dev",
    "methods": {
      "approve(address,uint256)": {
        "details": "See {IERC721-approve}."
      },
      "balanceOf(address)": {
        "details": "See {IERC721-balanceOf}."
      },
      "getApproved(uint256)": {
        "details": "See {IERC721-getApproved}."
      },
      "isApprovedForAll(address,address)": {
        "details": "See {IERC721-isApprovedForAll}."
      },
      "name()": {
        "details": "See {IERC721Metadata-name}."
      },
      "ownerOf(uint256)": {
        "details": "See {IERC721-ownerOf}."
      },
      "safeTransferFrom(address,address,uint256)": {
        "details": "See {IERC721-safeTransferFrom}."
      },
      "safeTransferFrom(address,address,uint256,bytes)": {
        "details": "See {IERC721-safeTransferFrom}."
      },
      "setApprovalForAll(address,bool)": {
        "details": "See {IERC721-setApprovalForAll}."
      },
      "symbol()": {
        "details": "See {IERC721Metadata-symbol}."
      },
      "tokenByIndex(uint256)": {
        "details": "See {IERC721Enumerable-tokenByIndex}."
      },
      "tokenOfOwnerByIndex(address,uint256)": {
        "details": "See {IERC721Enumerable-tokenOfOwnerByIndex}."
      },
      "tokenURI(uint256)": {
        "details": "See {IERC721Metadata-tokenURI}."
      },
      "totalSupply()": {
        "details": "See {IERC721Enumerable-totalSupply}."
      },
      "transferFrom(address,address,uint256)": {
        "details": "See {IERC721-transferFrom}."
      }
    },
    "version": 1
  },
  "userdoc": {
    "kind": "user",
    "methods": {},
    "version": 1
  }
}