{
  "contractName": "Gachapon",
  "abi": [
    {
      "inputs": [],
      "stateMutability": "nonpayable",
      "type": "constructor"
    },
    {
      "anonymous": false,
      "inputs": [
        {
          "indexed": true,
          "internalType": "address",
          "name": "owner",
          "type": "address"
        },
        {
          "indexed": true,
          "internalType": "address",
          "name": "approved",
          "type": "address"
        },
        {
          "indexed": true,
          "internalType": "uint256",
          "name": "tokenId",
          "type": "uint256"
        }
      ],
      "name": "Approval",
      "type": "event"
    },
    {
      "anonymous": false,
      "inputs": [
        {
          "indexed": true,
          "internalType": "address",
          "name": "owner",
          "type": "address"
        },
        {
          "indexed": true,
          "internalType": "address",
          "name": "operator",
          "type": "address"
        },
        {
          "indexed": false,
          "internalType": "bool",
          "name": "approved",
          "type": "bool"
        }
      ],
      "name": "ApprovalForAll",
      "type": "event"
    },
    {
      "anonymous": false,
      "inputs": [
        {
          "indexed": true,
          "internalType": "address",
          "name": "from",
          "type": "address"
        },
        {
          "indexed": true,
          "internalType": "address",
          "name": "to",
          "type": "address"
        },
        {
          "indexed": true,
          "internalType": "uint256",
          "name": "tokenId",
          "type": "uint256"
        }
      ],
      "name": "Transfer",
      "type": "event"
    },
    {
      "inputs": [
        {
          "internalType": "address",
          "name": "to",
          "type": "address"
        },
        {
          "internalType": "uint256",
          "name": "tokenId",
          "type": "uint256"
        }
      ],
      "name": "approve",
      "outputs": [],
      "stateMutability": "nonpayable",
      "type": "function"
    },
    {
      "inputs": [
        {
          "internalType": "address",
          "name": "owner",
          "type": "address"
        }
      ],
      "name": "balanceOf",
      "outputs": [
        {
          "internalType": "uint256",
          "name": "",
          "type": "uint256"
        }
      ],
      "stateMutability": "view",
      "type": "function",
      "constant": true
    },
    {
      "inputs": [
        {
          "internalType": "uint256",
          "name": "",
          "type": "uint256"
        }
      ],
      "name": "class_pool",
      "outputs": [
        {
          "internalType": "string",
          "name": "",
          "type": "string"
        }
      ],
      "stateMutability": "view",
      "type": "function",
      "constant": true
    },
    {
      "inputs": [
        {
          "internalType": "uint256",
          "name": "tokenId",
          "type": "uint256"
        }
      ],
      "name": "getApproved",
      "outputs": [
        {
          "internalType": "address",
          "name": "",
          "type": "address"
        }
      ],
      "stateMutability": "view",
      "type": "function",
      "constant": true
    },
    {
      "inputs": [
        {
          "internalType": "address",
          "name": "owner",
          "type": "address"
        },
        {
          "internalType": "address",
          "name": "operator",
          "type": "address"
        }
      ],
      "name": "isApprovedForAll",
      "outputs": [
        {
          "internalType": "bool",
          "name": "",
          "type": "bool"
        }
      ],
      "stateMutability": "view",
      "type": "function",
      "constant": true
    },
    {
      "inputs": [],
      "name": "name",
      "outputs": [
        {
          "internalType": "string",
          "name": "",
          "type": "string"
        }
      ],
      "stateMutability": "view",
      "type": "function",
      "constant": true
    },
    {
      "inputs": [
        {
          "internalType": "uint256",
          "name": "tokenId",
          "type": "uint256"
        }
      ],
      "name": "ownerOf",
      "outputs": [
        {
          "internalType": "address",
          "name": "",
          "type": "address"
        }
      ],
      "stateMutability": "view",
      "type": "function",
      "constant": true
    },
    {
      "inputs": [
        {
          "internalType": "uint256",
          "name": "",
          "type": "uint256"
        }
      ],
      "name": "rarity_pool",
      "outputs": [
        {
          "internalType": "string",
          "name": "",
          "type": "string"
        }
      ],
      "stateMutability": "view",
      "type": "function",
      "constant": true
    },
    {
      "inputs": [
        {
          "internalType": "bytes32",
          "name": "requestId",
          "type": "bytes32"
        },
        {
          "internalType": "uint256",
          "name": "randomness",
          "type": "uint256"
        }
      ],
      "name": "rawFulfillRandomness",
      "outputs": [],
      "stateMutability": "nonpayable",
      "type": "function"
    },
    {
      "inputs": [
        {
          "internalType": "bytes32",
          "name": "",
          "type": "bytes32"
        }
      ],
      "name": "request_address",
      "outputs": [
        {
          "internalType": "address",
          "name": "",
          "type": "address"
        }
      ],
      "stateMutability": "view",
      "type": "function",
      "constant": true
    },
    {
      "inputs": [
        {
          "internalType": "address",
          "name": "from",
          "type": "address"
        },
        {
          "internalType": "address",
          "name": "to",
          "type": "address"
        },
        {
          "internalType": "uint256",
          "name": "tokenId",
          "type": "uint256"
        }
      ],
      "name": "safeTransferFrom",
      "outputs": [],
      "stateMutability": "nonpayable",
      "type": "function"
    },
    {
      "inputs": [
        {
          "internalType": "address",
          "name": "from",
          "type": "address"
        },
        {
          "internalType": "address",
          "name": "to",
          "type": "address"
        },
        {
          "internalType": "uint256",
          "name": "tokenId",
          "type": "uint256"
        },
        {
          "internalType": "bytes",
          "name": "_data",
          "type": "bytes"
        }
      ],
      "name": "safeTransferFrom",
      "outputs": [],
      "stateMutability": "nonpayable",
      "type": "function"
    },
    {
      "inputs": [
        {
          "internalType": "address",
          "name": "operator",
          "type": "address"
        },
        {
          "internalType": "bool",
          "name": "approved",
          "type": "bool"
        }
      ],
      "name": "setApprovalForAll",
      "outputs": [],
      "stateMutability": "nonpayable",
      "type": "function"
    },
    {
      "inputs": [],
      "name": "symbol",
      "outputs": [
        {
          "internalType": "string",
          "name": "",
          "type": "string"
        }
      ],
      "stateMutability": "view",
      "type": "function",
      "constant": true
    },
    {
      "inputs": [
        {
          "internalType": "uint256",
          "name": "index",
          "type": "uint256"
        }
      ],
      "name": "tokenByIndex",
      "outputs": [
        {
          "internalType": "uint256",
          "name": "",
          "type": "uint256"
        }
      ],
      "stateMutability": "view",
      "type": "function",
      "constant": true
    },
    {
      "inputs": [
        {
          "internalType": "address",
          "name": "owner",
          "type": "address"
        },
        {
          "internalType": "uint256",
          "name": "index",
          "type": "uint256"
        }
      ],
      "name": "tokenOfOwnerByIndex",
      "outputs": [
        {
          "internalType": "uint256",
          "name": "",
          "type": "uint256"
        }
      ],
      "stateMutability": "view",
      "type": "function",
      "constant": true
    },
    {
      "inputs": [
        {
          "internalType": "uint256",
          "name": "",
          "type": "uint256"
        }
      ],
      "name": "token_attack",
      "outputs": [
        {
          "internalType": "uint256",
          "name": "",
          "type": "uint256"
        }
      ],
      "stateMutability": "view",
      "type": "function",
      "constant": true
    },
    {
      "inputs": [
        {
          "internalType": "uint256",
          "name": "",
          "type": "uint256"
        }
      ],
      "name": "token_class",
      "outputs": [
        {
          "internalType": "string",
          "name": "",
          "type": "string"
        }
      ],
      "stateMutability": "view",
      "type": "function",
      "constant": true
    },
    {
      "inputs": [],
      "name": "token_count",
      "outputs": [
        {
          "internalType": "uint256",
          "name": "",
          "type": "uint256"
        }
      ],
      "stateMutability": "view",
      "type": "function",
      "constant": true
    },
    {
      "inputs": [
        {
          "internalType": "uint256",
          "name": "",
          "type": "uint256"
        }
      ],
      "name": "token_rarity",
      "outputs": [
        {
          "internalType": "string",
          "name": "",
          "type": "string"
        }
      ],
      "stateMutability": "view",
      "type": "function",
      "constant": true
    },
    {
      "inputs": [],
      "name": "totalSupply",
      "outputs": [
        {
          "internalType": "uint256",
          "name": "",
          "type": "uint256"
        }
      ],
      "stateMutability": "view",
      "type": "function",
      "constant": true
    },
    {
      "inputs": [
        {
          "internalType": "address",
          "name": "from",
          "type": "address"
        },
        {
          "internalType": "address",
          "name": "to",
          "type": "address"
        },
        {
          "internalType": "uint256",
          "name": "tokenId",
          "type": "uint256"
        }
      ],
      "name": "transferFrom",
      "outputs": [],
      "stateMutability": "nonpayable",
      "type": "function"
    },
    {
      "inputs": [
        {
          "internalType": "uint256",
          "name": "tokenId",
          "type": "uint256"
        }
      ],
      "name": "tokenURI",
      "outputs": [
        {
          "internalType": "string",
          "name": "",
          "type": "string"
        }
      ],
      "stateMutability": "view",
      "type": "function",
      "constant": true
    },
    {
      "inputs": [
        {
          "internalType": "string",
          "name": "uri",
          "type": "string"
        },
        {
          "internalType": "string",
          "name": "class",
          "type": "string"
        },
        {
          "internalType": "string",
          "name": "rarity",
          "type": "string"
        },
        {
          "internalType": "uint256",
          "name": "attack",
          "type": "uint256"
        }
      ],
      "name": "addURIToPool",
      "outputs": [],
      "stateMutability": "nonpayable",
      "type": "function"
    },
    {
      "inputs": [
        {
          "internalType": "string",
          "name": "class",
          "type": "string"
        }
      ],
      "name": "addClassToPool",
      "outputs": [],
      "stateMutability": "nonpayable",
      "type": "function"
    },
    {
      "inputs": [
        {
          "internalType": "string",
          "name": "rarity",
          "type": "string"
        }
      ],
      "name": "addRarityToPool",
      "outputs": [],
      "stateMutability": "nonpayable",
      "type": "function"
    },
    {
      "inputs": [
        {
          "internalType": "string",
          "name": "uri",
          "type": "string"
        },
        {
          "internalType": "string",
          "name": "class",
          "type": "string"
        },
        {
          "internalType": "string",
          "name": "rarity",
          "type": "string"
        },
        {
          "internalType": "uint256",
          "name": "attack",
          "type": "uint256"
        }
      ],
      "name": "setURIInPool",
      "outputs": [],
      "stateMutability": "nonpayable",
      "type": "function"
    },
    {
      "inputs": [
        {
          "internalType": "address",
          "name": "to",
          "type": "address"
        }
      ],
      "name": "mintNFT",
      "outputs": [],
      "stateMutability": "nonpayable",
      "type": "function"
    },
    {
      "inputs": [
        {
          "internalType": "bytes4",
          "name": "interfaceId",
          "type": "bytes4"
        }
      ],
      "name": "supportsInterface",
      "outputs": [
        {
          "internalType": "bool",
          "name": "",
          "type": "bool"
        }
      ],
      "stateMutability": "view",
      "type": "function",
      "constant": true
    }
  ],
  "bytecode": "0x60c0604052600a600b557301be23585060835e02b77ef475b0cc51aa1e0709601460006101000a81548173ffffffffffffffffffffffffffffffffffffffff021916908373ffffffffffffffffffffffffffffffffffffffff16021790555073b3dccb4cf7a26f6cf6b120cf5a73875b7bbc655b601560006101000a81548173ffffffffffffffffffffffffffffffffffffffff021916908373ffffffffffffffffffffffffffffffffffffffff1602179055507f2ed0feb3e7fd2022120aa84fab1945545a9f2ffc9076fd6156fa96eaff4c131160001b60165567016345785d8a0000601755348015620000f357600080fd5b50601560009054906101000a900473ffffffffffffffffffffffffffffffffffffffff16601460009054906101000a900473ffffffffffffffffffffffffffffffffffffffff166040518060400160405280600681526020017f4d79204e465400000000000000000000000000000000000000000000000000008152506040518060400160405280600581526020017f4e465431300000000000000000000000000000000000000000000000000000008152508160009080519060200190620001be92919062000250565b508060019080519060200190620001d792919062000250565b5050508173ffffffffffffffffffffffffffffffffffffffff1660a08173ffffffffffffffffffffffffffffffffffffffff1660601b815250508073ffffffffffffffffffffffffffffffffffffffff1660808173ffffffffffffffffffffffffffffffffffffffff1660601b81525050505062000365565b8280546200025e9062000300565b90600052602060002090601f016020900481019282620002825760008555620002ce565b82601f106200029d57805160ff1916838001178555620002ce565b82800160010185558215620002ce579182015b82811115620002cd578251825591602001919060010190620002b0565b5b509050620002dd9190620002e1565b5090565b5b80821115620002fc576000816000905550600101620002e2565b5090565b600060028204905060018216806200031957607f821691505b6020821081141562000330576200032f62000336565b5b50919050565b7f4e487b7100000000000000000000000000000000000000000000000000000000600052602260045260246000fd5b60805160601c60a05160601c6141856200039f60003960008181610f9b0152611b18015260008181610b9a0152611adc01526141856000f3fe608060405234801561001057600080fd5b50600436106101cf5760003560e01c806357cde02011610104578063a048499f116100a2578063c87b56dd11610071578063c87b56dd14610560578063ca72206414610590578063e985e9c5146105c0578063ea763e44146105f0576101cf565b8063a048499f146104dc578063a22cb465146104f8578063ac7a53ea14610514578063b88d4fde14610544576101cf565b80637f987469116100de5780637f9874691461046a578063841aee901461048657806394985ddd146104a257806395d89b41146104be576101cf565b806357cde020146103da5780636352211e1461040a57806370a082311461043a576101cf565b80632e7ac72a116101715780633ea2a6451161014b5780633ea2a6451461034257806342842e0e146103725780634f6ccce71461038e57806354ba0f27146103be576101cf565b80632e7ac72a146102c65780632f745c59146102e25780633a9f01f814610312576101cf565b8063095ea7b3116101ad578063095ea7b31461025257806318160ddd1461026e57806323b161ab1461028c57806323b872dd146102aa576101cf565b806301ffc9a7146101d457806306fdde0314610204578063081812fc14610222575b600080fd5b6101ee60048036038101906101e99190612d76565b610620565b6040516101fb919061344d565b60405180910390f35b61020c610632565b60405161021991906134d6565b60405180910390f35b61023c60048036038101906102379190612ed4565b6106c4565b60405161024991906133a8565b60405180910390f35b61026c60048036038101906102679190612c9c565b610749565b005b610276610861565b6040516102839190613738565b60405180910390f35b61029461086e565b6040516102a19190613738565b60405180910390f35b6102c460048036038101906102bf9190612b86565b610874565b005b6102e060048036038101906102db9190612dd0565b6108d4565b005b6102fc60048036038101906102f79190612c9c565b610913565b6040516103099190613738565b60405180910390f35b61032c60048036038101906103279190612ed4565b6109b8565b60405161033991906134d6565b60405180910390f35b61035c60048036038101906103579190612ed4565b610a64565b60405161036991906134d6565b60405180910390f35b61038c60048036038101906103879190612b86565b610b04565b005b6103a860048036038101906103a39190612ed4565b610b24565b6040516103b59190613738565b60405180910390f35b6103d860048036038101906103d39190612b19565b610b95565b005b6103f460048036038101906103ef9190612ed4565b610cea565b60405161040191906134d6565b60405180910390f35b610424600480360381019061041f9190612ed4565b610d8a565b60405161043191906133a8565b60405180910390f35b610454600480360381019061044f9190612b19565b610e3c565b6040516104619190613738565b60405180910390f35b610484600480360381019061047f9190612dd0565b610ef4565b005b6104a0600480360381019061049b9190612e19565b610f33565b005b6104bc60048036038101906104b79190612d36565b610f99565b005b6104c6611035565b6040516104d391906134d6565b60405180910390f35b6104f660048036038101906104f19190612e19565b6110c7565b005b610512600480360381019061050d9190612c5c565b61112d565b005b61052e60048036038101906105299190612d09565b6112ae565b60405161053b91906133a8565b60405180910390f35b61055e60048036038101906105599190612bd9565b6112e1565b005b61057a60048036038101906105759190612ed4565b611343565b60405161058791906134d6565b60405180910390f35b6105aa60048036038101906105a59190612ed4565b61149f565b6040516105b791906134d6565b60405180910390f35b6105da60048036038101906105d59190612b46565b61154b565b6040516105e7919061344d565b60405180910390f35b61060a60048036038101906106059190612ed4565b6115df565b6040516106179190613738565b60405180910390f35b600061062b826115f7565b9050919050565b606060008054610641906139ff565b80601f016020809104026020016040519081016040528092919081815260200182805461066d906139ff565b80156106ba5780601f1061068f576101008083540402835291602001916106ba565b820191906000526020600020905b81548152906001019060200180831161069d57829003601f168201915b5050505050905090565b60006106cf82611671565b61070e576040517f08c379a000000000000000000000000000000000000000000000000000000000815260040161070590613658565b60405180910390fd5b6004600083815260200190815260200160002060009054906101000a900473ffffffffffffffffffffffffffffffffffffffff169050919050565b600061075482610d8a565b90508073ffffffffffffffffffffffffffffffffffffffff168373ffffffffffffffffffffffffffffffffffffffff1614156107c5576040517f08c379a00000000000000000000000000000000000000000000000000000000081526004016107bc906136d8565b60405180910390fd5b8073ffffffffffffffffffffffffffffffffffffffff166107e46116dd565b73ffffffffffffffffffffffffffffffffffffffff16148061081357506108128161080d6116dd565b61154b565b5b610852576040517f08c379a0000000000000000000000000000000000000000000000000000000008152600401610849906135d8565b60405180910390fd5b61085c83836116e5565b505050565b6000600880549050905090565b600c5481565b61088561087f6116dd565b8261179e565b6108c4576040517f08c379a00000000000000000000000000000000000000000000000000000000081526004016108bb906136f8565b60405180910390fd5b6108cf83838361187c565b505050565b600e8190806001815401808255809150506001900390600052602060002001600090919091909150908051906020019061090f9291906128ee565b5050565b600061091e83610e3c565b821061095f576040517f08c379a0000000000000000000000000000000000000000000000000000000008152600401610956906134f8565b60405180910390fd5b600660008473ffffffffffffffffffffffffffffffffffffffff1673ffffffffffffffffffffffffffffffffffffffff168152602001908152602001600020600083815260200190815260200160002054905092915050565b600f81815481106109c857600080fd5b9060005260206000200160009150905080546109e3906139ff565b80601f0160208091040260200160405190810160405280929190818152602001828054610a0f906139ff565b8015610a5c5780601f10610a3157610100808354040283529160200191610a5c565b820191906000526020600020905b815481529060010190602001808311610a3f57829003601f168201915b505050505081565b60116020528060005260406000206000915090508054610a83906139ff565b80601f0160208091040260200160405190810160405280929190818152602001828054610aaf906139ff565b8015610afc5780601f10610ad157610100808354040283529160200191610afc565b820191906000526020600020905b815481529060010190602001808311610adf57829003601f168201915b505050505081565b610b1f838383604051806020016040528060008152506112e1565b505050565b6000610b2e610861565b8210610b6f576040517f08c379a0000000000000000000000000000000000000000000000000000000008152600401610b6690613718565b60405180910390fd5b60088281548110610b8357610b82613b63565b5b90600052602060002001549050919050565b6017547f000000000000000000000000000000000000000000000000000000000000000073ffffffffffffffffffffffffffffffffffffffff166370a08231306040518263ffffffff1660e01b8152600401610bf191906133a8565b60206040518083038186803b158015610c0957600080fd5b505afa158015610c1d573d6000803e3d6000fd5b505050506040513d601f19601f82011682018060405250810190610c419190612f01565b1015610c82576040517f08c379a0000000000000000000000000000000000000000000000000000000008152600401610c7990613598565b60405180910390fd5b6000610c92601654601754611ad8565b905081600d600083815260200190815260200160002060006101000a81548173ffffffffffffffffffffffffffffffffffffffff021916908373ffffffffffffffffffffffffffffffffffffffff1602179055505050565b60126020528060005260406000206000915090508054610d09906139ff565b80601f0160208091040260200160405190810160405280929190818152602001828054610d35906139ff565b8015610d825780601f10610d5757610100808354040283529160200191610d82565b820191906000526020600020905b815481529060010190602001808311610d6557829003601f168201915b505050505081565b6000806002600084815260200190815260200160002060009054906101000a900473ffffffffffffffffffffffffffffffffffffffff169050600073ffffffffffffffffffffffffffffffffffffffff168173ffffffffffffffffffffffffffffffffffffffff161415610e33576040517f08c379a0000000000000000000000000000000000000000000000000000000008152600401610e2a90613618565b60405180910390fd5b80915050919050565b60008073ffffffffffffffffffffffffffffffffffffffff168273ffffffffffffffffffffffffffffffffffffffff161415610ead576040517f08c379a0000000000000000000000000000000000000000000000000000000008152600401610ea4906135f8565b60405180910390fd5b600360008373ffffffffffffffffffffffffffffffffffffffff1673ffffffffffffffffffffffffffffffffffffffff168152602001908152602001600020549050919050565b600f81908060018154018082558091505060019003906000526020600020016000909190919091509080519060200190610f2f9291906128ee565b5050565b83601084604051610f44919061337a565b908152602001604051809103902083604051610f60919061337a565b908152602001604051809103902060008381526020019081526020016000209080519060200190610f929291906128ee565b5050505050565b7f000000000000000000000000000000000000000000000000000000000000000073ffffffffffffffffffffffffffffffffffffffff163373ffffffffffffffffffffffffffffffffffffffff1614611027576040517f08c379a000000000000000000000000000000000000000000000000000000000815260040161101e906136b8565b60405180910390fd5b6110318282611c3a565b5050565b606060018054611044906139ff565b80601f0160208091040260200160405190810160405280929190818152602001828054611070906139ff565b80156110bd5780601f10611092576101008083540402835291602001916110bd565b820191906000526020600020905b8154815290600101906020018083116110a057829003601f168201915b5050505050905090565b836010846040516110d8919061337a565b9081526020016040518091039020836040516110f4919061337a565b9081526020016040518091039020600083815260200190815260200160002090805190602001906111269291906128ee565b5050505050565b6111356116dd565b73ffffffffffffffffffffffffffffffffffffffff168273ffffffffffffffffffffffffffffffffffffffff1614156111a3576040517f08c379a000000000000000000000000000000000000000000000000000000000815260040161119a90613578565b60405180910390fd5b80600560006111b06116dd565b73ffffffffffffffffffffffffffffffffffffffff1673ffffffffffffffffffffffffffffffffffffffff16815260200190815260200160002060008473ffffffffffffffffffffffffffffffffffffffff1673ffffffffffffffffffffffffffffffffffffffff16815260200190815260200160002060006101000a81548160ff0219169083151502179055508173ffffffffffffffffffffffffffffffffffffffff1661125d6116dd565b73ffffffffffffffffffffffffffffffffffffffff167f17307eab39ab6107e8899845ad3d59bd9653f200f220920489ca2b5937696c31836040516112a2919061344d565b60405180910390a35050565b600d6020528060005260406000206000915054906101000a900473ffffffffffffffffffffffffffffffffffffffff1681565b6112f26112ec6116dd565b8361179e565b611331576040517f08c379a0000000000000000000000000000000000000000000000000000000008152600401611328906136f8565b60405180910390fd5b61133d84848484611f30565b50505050565b606061134e82611671565b61138d576040517f08c379a000000000000000000000000000000000000000000000000000000000815260040161138490613698565b60405180910390fd5b6010601160008481526020019081526020016000206040516113af9190613391565b9081526020016040518091039020601260008481526020019081526020016000206040516113dd9190613391565b9081526020016040518091039020600060136000858152602001908152602001600020548152602001908152602001600020805461141a906139ff565b80601f0160208091040260200160405190810160405280929190818152602001828054611446906139ff565b80156114935780601f1061146857610100808354040283529160200191611493565b820191906000526020600020905b81548152906001019060200180831161147657829003601f168201915b50505050509050919050565b600e81815481106114af57600080fd5b9060005260206000200160009150905080546114ca906139ff565b80601f01602080910402602001604051908101604052809291908181526020018280546114f6906139ff565b80156115435780601f1061151857610100808354040283529160200191611543565b820191906000526020600020905b81548152906001019060200180831161152657829003601f168201915b505050505081565b6000600560008473ffffffffffffffffffffffffffffffffffffffff1673ffffffffffffffffffffffffffffffffffffffff16815260200190815260200160002060008373ffffffffffffffffffffffffffffffffffffffff1673ffffffffffffffffffffffffffffffffffffffff16815260200190815260200160002060009054906101000a900460ff16905092915050565b60136020528060005260406000206000915090505481565b60007f780e9d63000000000000000000000000000000000000000000000000000000007bffffffffffffffffffffffffffffffffffffffffffffffffffffffff1916827bffffffffffffffffffffffffffffffffffffffffffffffffffffffff1916148061166a575061166982611f8c565b5b9050919050565b60008073ffffffffffffffffffffffffffffffffffffffff166002600084815260200190815260200160002060009054906101000a900473ffffffffffffffffffffffffffffffffffffffff1673ffffffffffffffffffffffffffffffffffffffff1614159050919050565b600033905090565b816004600083815260200190815260200160002060006101000a81548173ffffffffffffffffffffffffffffffffffffffff021916908373ffffffffffffffffffffffffffffffffffffffff160217905550808273ffffffffffffffffffffffffffffffffffffffff1661175883610d8a565b73ffffffffffffffffffffffffffffffffffffffff167f8c5be1e5ebec7d5bd14f71427d1e84f3dd0314c0f7b2291e5b200ac8c7c3b92560405160405180910390a45050565b60006117a982611671565b6117e8576040517f08c379a00000000000000000000000000000000000000000000000000000000081526004016117df906135b8565b60405180910390fd5b60006117f383610d8a565b90508073ffffffffffffffffffffffffffffffffffffffff168473ffffffffffffffffffffffffffffffffffffffff16148061186257508373ffffffffffffffffffffffffffffffffffffffff1661184a846106c4565b73ffffffffffffffffffffffffffffffffffffffff16145b806118735750611872818561154b565b5b91505092915050565b8273ffffffffffffffffffffffffffffffffffffffff1661189c82610d8a565b73ffffffffffffffffffffffffffffffffffffffff16146118f2576040517f08c379a00000000000000000000000000000000000000000000000000000000081526004016118e990613678565b60405180910390fd5b600073ffffffffffffffffffffffffffffffffffffffff168273ffffffffffffffffffffffffffffffffffffffff161415611962576040517f08c379a000000000000000000000000000000000000000000000000000000000815260040161195990613558565b60405180910390fd5b61196d83838361206e565b6119786000826116e5565b6001600360008573ffffffffffffffffffffffffffffffffffffffff1673ffffffffffffffffffffffffffffffffffffffff16815260200190815260200160002060008282546119c891906138da565b925050819055506001600360008473ffffffffffffffffffffffffffffffffffffffff1673ffffffffffffffffffffffffffffffffffffffff1681526020019081526020016000206000828254611a1f9190613884565b92505081905550816002600083815260200190815260200160002060006101000a81548173ffffffffffffffffffffffffffffffffffffffff021916908373ffffffffffffffffffffffffffffffffffffffff160217905550808273ffffffffffffffffffffffffffffffffffffffff168473ffffffffffffffffffffffffffffffffffffffff167fddf252ad1be2c89b69c2b068fc378daa952ba7f163c4a11628f55a4df523b3ef60405160405180910390a4505050565b60007f000000000000000000000000000000000000000000000000000000000000000073ffffffffffffffffffffffffffffffffffffffff16634000aea07f000000000000000000000000000000000000000000000000000000000000000084866000604051602001611b4c929190613468565b6040516020818303038152906040526040518463ffffffff1660e01b8152600401611b799392919061340f565b602060405180830381600087803b158015611b9357600080fd5b505af1158015611ba7573d6000803e3d6000fd5b505050506040513d601f19601f82011682018060405250810190611bcb9190612cdc565b506000611bee84600030600a60008981526020019081526020016000205461207e565b90506001600a600086815260200190815260200160002054611c109190613884565b600a600086815260200190815260200160002081905550611c3184826120ba565b91505092915050565b6001600c6000828254611c4d9190613884565b92505081905550611c93600d600084815260200190815260200160002060009054906101000a900473ffffffffffffffffffffffffffffffffffffffff16600c546120ed565b6000816000604051602001611ca9929190613753565b6040516020818303038152906040528051906020012060001c90506000826001604051602001611cda92919061377c565b6040516020818303038152906040528051906020012060001c90506000836001604051602001611d0b92919061377c565b6040516020818303038152906040528051906020012060001c90506000600e808054905085611d3a9190613a76565b81548110611d4b57611d4a613b63565b5b906000526020600020018054611d60906139ff565b80601f0160208091040260200160405190810160405280929190818152602001828054611d8c906139ff565b8015611dd95780601f10611dae57610100808354040283529160200191611dd9565b820191906000526020600020905b815481529060010190602001808311611dbc57829003601f168201915b505050505090506000600f808054905085611df49190613a76565b81548110611e0557611e04613b63565b5b906000526020600020018054611e1a906139ff565b80601f0160208091040260200160405190810160405280929190818152602001828054611e46906139ff565b8015611e935780601f10611e6857610100808354040283529160200191611e93565b820191906000526020600020905b815481529060010190602001808311611e7657829003601f168201915b5050505050905060006005600b5485611eac9190613a76565b611eb69190613884565b90508260116000600c5481526020019081526020016000209080519060200190611ee19291906128ee565b508160126000600c5481526020019081526020016000209080519060200190611f0b9291906128ee565b508060136000600c548152602001908152602001600020819055505050505050505050565b611f3b84848461187c565b611f47848484846122bb565b611f86576040517f08c379a0000000000000000000000000000000000000000000000000000000008152600401611f7d90613518565b60405180910390fd5b50505050565b60007f80ac58cd000000000000000000000000000000000000000000000000000000007bffffffffffffffffffffffffffffffffffffffffffffffffffffffff1916827bffffffffffffffffffffffffffffffffffffffffffffffffffffffff1916148061205757507f5b5e139f000000000000000000000000000000000000000000000000000000007bffffffffffffffffffffffffffffffffffffffffffffffffffffffff1916827bffffffffffffffffffffffffffffffffffffffffffffffffffffffff1916145b80612067575061206682612452565b5b9050919050565b6120798383836124bc565b505050565b6000848484846040516020016120979493929190613491565b6040516020818303038152906040528051906020012060001c9050949350505050565b600082826040516020016120cf92919061334e565b60405160208183030381529060405280519060200120905092915050565b600073ffffffffffffffffffffffffffffffffffffffff168273ffffffffffffffffffffffffffffffffffffffff16141561215d576040517f08c379a000000000000000000000000000000000000000000000000000000000815260040161215490613638565b60405180910390fd5b61216681611671565b156121a6576040517f08c379a000000000000000000000000000000000000000000000000000000000815260040161219d90613538565b60405180910390fd5b6121b26000838361206e565b6001600360008473ffffffffffffffffffffffffffffffffffffffff1673ffffffffffffffffffffffffffffffffffffffff16815260200190815260200160002060008282546122029190613884565b92505081905550816002600083815260200190815260200160002060006101000a81548173ffffffffffffffffffffffffffffffffffffffff021916908373ffffffffffffffffffffffffffffffffffffffff160217905550808273ffffffffffffffffffffffffffffffffffffffff16600073ffffffffffffffffffffffffffffffffffffffff167fddf252ad1be2c89b69c2b068fc378daa952ba7f163c4a11628f55a4df523b3ef60405160405180910390a45050565b60006122dc8473ffffffffffffffffffffffffffffffffffffffff166125d0565b15612445578373ffffffffffffffffffffffffffffffffffffffff1663150b7a026123056116dd565b8786866040518563ffffffff1660e01b815260040161232794939291906133c3565b602060405180830381600087803b15801561234157600080fd5b505af192505050801561237257506040513d601f19601f8201168201806040525081019061236f9190612da3565b60015b6123f5573d80600081146123a2576040519150601f19603f3d011682016040523d82523d6000602084013e6123a7565b606091505b506000815114156123ed576040517f08c379a00000000000000000000000000000000000000000000000000000000081526004016123e490613518565b60405180910390fd5b805181602001fd5b63150b7a0260e01b7bffffffffffffffffffffffffffffffffffffffffffffffffffffffff1916817bffffffffffffffffffffffffffffffffffffffffffffffffffffffff19161491505061244a565b600190505b949350505050565b60007f01ffc9a7000000000000000000000000000000000000000000000000000000007bffffffffffffffffffffffffffffffffffffffffffffffffffffffff1916827bffffffffffffffffffffffffffffffffffffffffffffffffffffffff1916149050919050565b6124c78383836125e3565b600073ffffffffffffffffffffffffffffffffffffffff168373ffffffffffffffffffffffffffffffffffffffff16141561250a57612505816125e8565b612549565b8173ffffffffffffffffffffffffffffffffffffffff168373ffffffffffffffffffffffffffffffffffffffff1614612548576125478382612631565b5b5b600073ffffffffffffffffffffffffffffffffffffffff168273ffffffffffffffffffffffffffffffffffffffff16141561258c576125878161279e565b6125cb565b8273ffffffffffffffffffffffffffffffffffffffff168273ffffffffffffffffffffffffffffffffffffffff16146125ca576125c9828261286f565b5b5b505050565b600080823b905060008111915050919050565b505050565b6008805490506009600083815260200190815260200160002081905550600881908060018154018082558091505060019003906000526020600020016000909190919091505550565b6000600161263e84610e3c565b61264891906138da565b905060006007600084815260200190815260200160002054905081811461272d576000600660008673ffffffffffffffffffffffffffffffffffffffff1673ffffffffffffffffffffffffffffffffffffffff168152602001908152602001600020600084815260200190815260200160002054905080600660008773ffffffffffffffffffffffffffffffffffffffff1673ffffffffffffffffffffffffffffffffffffffff168152602001908152602001600020600084815260200190815260200160002081905550816007600083815260200190815260200160002081905550505b6007600084815260200190815260200160002060009055600660008573ffffffffffffffffffffffffffffffffffffffff1673ffffffffffffffffffffffffffffffffffffffff16815260200190815260200160002060008381526020019081526020016000206000905550505050565b600060016008805490506127b291906138da565b90506000600960008481526020019081526020016000205490506000600883815481106127e2576127e1613b63565b5b90600052602060002001549050806008838154811061280457612803613b63565b5b90600052602060002001819055508160096000838152602001908152602001600020819055506009600085815260200190815260200160002060009055600880548061285357612852613b34565b5b6001900381819060005260206000200160009055905550505050565b600061287a83610e3c565b905081600660008573ffffffffffffffffffffffffffffffffffffffff1673ffffffffffffffffffffffffffffffffffffffff168152602001908152602001600020600083815260200190815260200160002081905550806007600084815260200190815260200160002081905550505050565b8280546128fa906139ff565b90600052602060002090601f01602090048101928261291c5760008555612963565b82601f1061293557805160ff1916838001178555612963565b82800160010185558215612963579182015b82811115612962578251825591602001919060010190612947565b5b5090506129709190612974565b5090565b5b8082111561298d576000816000905550600101612975565b5090565b60006129a461299f846137ca565b6137a5565b9050828152602081018484840111156129c0576129bf613bc6565b5b6129cb8482856139bd565b509392505050565b60006129e66129e1846137fb565b6137a5565b905082815260208101848484011115612a0257612a01613bc6565b5b612a0d8482856139bd565b509392505050565b600081359050612a24816140dc565b92915050565b600081359050612a39816140f3565b92915050565b600081519050612a4e816140f3565b92915050565b600081359050612a638161410a565b92915050565b600081359050612a7881614121565b92915050565b600081519050612a8d81614121565b92915050565b600082601f830112612aa857612aa7613bc1565b5b8135612ab8848260208601612991565b91505092915050565b600082601f830112612ad657612ad5613bc1565b5b8135612ae68482602086016129d3565b91505092915050565b600081359050612afe81614138565b92915050565b600081519050612b1381614138565b92915050565b600060208284031215612b2f57612b2e613bd0565b5b6000612b3d84828501612a15565b91505092915050565b60008060408385031215612b5d57612b5c613bd0565b5b6000612b6b85828601612a15565b9250506020612b7c85828601612a15565b9150509250929050565b600080600060608486031215612b9f57612b9e613bd0565b5b6000612bad86828701612a15565b9350506020612bbe86828701612a15565b9250506040612bcf86828701612aef565b9150509250925092565b60008060008060808587031215612bf357612bf2613bd0565b5b6000612c0187828801612a15565b9450506020612c1287828801612a15565b9350506040612c2387828801612aef565b925050606085013567ffffffffffffffff811115612c4457612c43613bcb565b5b612c5087828801612a93565b91505092959194509250565b60008060408385031215612c7357612c72613bd0565b5b6000612c8185828601612a15565b9250506020612c9285828601612a2a565b9150509250929050565b60008060408385031215612cb357612cb2613bd0565b5b6000612cc185828601612a15565b9250506020612cd285828601612aef565b9150509250929050565b600060208284031215612cf257612cf1613bd0565b5b6000612d0084828501612a3f565b91505092915050565b600060208284031215612d1f57612d1e613bd0565b5b6000612d2d84828501612a54565b91505092915050565b60008060408385031215612d4d57612d4c613bd0565b5b6000612d5b85828601612a54565b9250506020612d6c85828601612aef565b9150509250929050565b600060208284031215612d8c57612d8b613bd0565b5b6000612d9a84828501612a69565b91505092915050565b600060208284031215612db957612db8613bd0565b5b6000612dc784828501612a7e565b91505092915050565b600060208284031215612de657612de5613bd0565b5b600082013567ffffffffffffffff811115612e0457612e03613bcb565b5b612e1084828501612ac1565b91505092915050565b60008060008060808587031215612e3357612e32613bd0565b5b600085013567ffffffffffffffff811115612e5157612e50613bcb565b5b612e5d87828801612ac1565b945050602085013567ffffffffffffffff811115612e7e57612e7d613bcb565b5b612e8a87828801612ac1565b935050604085013567ffffffffffffffff811115612eab57612eaa613bcb565b5b612eb787828801612ac1565b9250506060612ec887828801612aef565b91505092959194509250565b600060208284031215612eea57612ee9613bd0565b5b6000612ef884828501612aef565b91505092915050565b600060208284031215612f1757612f16613bd0565b5b6000612f2584828501612b04565b91505092915050565b612f378161390e565b82525050565b612f4681613920565b82525050565b612f558161392c565b82525050565b612f6c612f678261392c565b613a62565b82525050565b6000612f7d82613841565b612f878185613857565b9350612f978185602086016139cc565b612fa081613bd5565b840191505092915050565b612fb481613999565b82525050565b612fc3816139ab565b82525050565b6000612fd48261384c565b612fde8185613868565b9350612fee8185602086016139cc565b612ff781613bd5565b840191505092915050565b600061300d8261384c565b6130178185613879565b93506130278185602086016139cc565b80840191505092915050565b60008154613040816139ff565b61304a8186613879565b945060018216600081146130655760018114613076576130a9565b60ff198316865281860193506130a9565b61307f8561382c565b60005b838110156130a157815481890152600182019150602081019050613082565b838801955050505b50505092915050565b60006130bf602b83613868565b91506130ca82613be6565b604082019050919050565b60006130e2603283613868565b91506130ed82613c35565b604082019050919050565b6000613105601c83613868565b915061311082613c84565b602082019050919050565b6000613128602483613868565b915061313382613cad565b604082019050919050565b600061314b601983613868565b915061315682613cfc565b602082019050919050565b600061316e602b83613868565b915061317982613d25565b604082019050919050565b6000613191602c83613868565b915061319c82613d74565b604082019050919050565b60006131b4603883613868565b91506131bf82613dc3565b604082019050919050565b60006131d7602a83613868565b91506131e282613e12565b604082019050919050565b60006131fa602983613868565b915061320582613e61565b604082019050919050565b600061321d602083613868565b915061322882613eb0565b602082019050919050565b6000613240602c83613868565b915061324b82613ed9565b604082019050919050565b6000613263602983613868565b915061326e82613f28565b604082019050919050565b6000613286602f83613868565b915061329182613f77565b604082019050919050565b60006132a9601f83613868565b91506132b482613fc6565b602082019050919050565b60006132cc602183613868565b91506132d782613fef565b604082019050919050565b60006132ef603183613868565b91506132fa8261403e565b604082019050919050565b6000613312602c83613868565b915061331d8261408d565b604082019050919050565b61333181613982565b82525050565b61334861334382613982565b613a6c565b82525050565b600061335a8285612f5b565b60208201915061336a8284613337565b6020820191508190509392505050565b60006133868284613002565b915081905092915050565b600061339d8284613033565b915081905092915050565b60006020820190506133bd6000830184612f2e565b92915050565b60006080820190506133d86000830187612f2e565b6133e56020830186612f2e565b6133f26040830185613328565b81810360608301526134048184612f72565b905095945050505050565b60006060820190506134246000830186612f2e565b6134316020830185613328565b81810360408301526134438184612f72565b9050949350505050565b60006020820190506134626000830184612f3d565b92915050565b600060408201905061347d6000830185612f4c565b61348a6020830184613328565b9392505050565b60006080820190506134a66000830187612f4c565b6134b36020830186613328565b6134c06040830185612f2e565b6134cd6060830184613328565b95945050505050565b600060208201905081810360008301526134f08184612fc9565b905092915050565b60006020820190508181036000830152613511816130b2565b9050919050565b60006020820190508181036000830152613531816130d5565b9050919050565b60006020820190508181036000830152613551816130f8565b9050919050565b600060208201905081810360008301526135718161311b565b9050919050565b600060208201905081810360008301526135918161313e565b9050919050565b600060208201905081810360008301526135b181613161565b9050919050565b600060208201905081810360008301526135d181613184565b9050919050565b600060208201905081810360008301526135f1816131a7565b9050919050565b60006020820190508181036000830152613611816131ca565b9050919050565b60006020820190508181036000830152613631816131ed565b9050919050565b6000602082019050818103600083015261365181613210565b9050919050565b6000602082019050818103600083015261367181613233565b9050919050565b6000602082019050818103600083015261369181613256565b9050919050565b600060208201905081810360008301526136b181613279565b9050919050565b600060208201905081810360008301526136d18161329c565b9050919050565b600060208201905081810360008301526136f1816132bf565b9050919050565b60006020820190508181036000830152613711816132e2565b9050919050565b6000602082019050818103600083015261373181613305565b9050919050565b600060208201905061374d6000830184613328565b92915050565b60006040820190506137686000830185613328565b6137756020830184612fab565b9392505050565b60006040820190506137916000830185613328565b61379e6020830184612fba565b9392505050565b60006137af6137c0565b90506137bb8282613a31565b919050565b6000604051905090565b600067ffffffffffffffff8211156137e5576137e4613b92565b5b6137ee82613bd5565b9050602081019050919050565b600067ffffffffffffffff82111561381657613815613b92565b5b61381f82613bd5565b9050602081019050919050565b60008190508160005260206000209050919050565b600081519050919050565b600081519050919050565b600082825260208201905092915050565b600082825260208201905092915050565b600081905092915050565b600061388f82613982565b915061389a83613982565b9250827fffffffffffffffffffffffffffffffffffffffffffffffffffffffffffffffff038211156138cf576138ce613aa7565b5b828201905092915050565b60006138e582613982565b91506138f083613982565b92508282101561390357613902613aa7565b5b828203905092915050565b600061391982613962565b9050919050565b60008115159050919050565b6000819050919050565b60007fffffffff0000000000000000000000000000000000000000000000000000000082169050919050565b600073ffffffffffffffffffffffffffffffffffffffff82169050919050565b6000819050919050565b600060ff82169050919050565b60006139a48261398c565b9050919050565b60006139b68261398c565b9050919050565b82818337600083830152505050565b60005b838110156139ea5780820151818401526020810190506139cf565b838111156139f9576000848401525b50505050565b60006002820490506001821680613a1757607f821691505b60208210811415613a2b57613a2a613b05565b5b50919050565b613a3a82613bd5565b810181811067ffffffffffffffff82111715613a5957613a58613b92565b5b80604052505050565b6000819050919050565b6000819050919050565b6000613a8182613982565b9150613a8c83613982565b925082613a9c57613a9b613ad6565b5b828206905092915050565b7f4e487b7100000000000000000000000000000000000000000000000000000000600052601160045260246000fd5b7f4e487b7100000000000000000000000000000000000000000000000000000000600052601260045260246000fd5b7f4e487b7100000000000000000000000000000000000000000000000000000000600052602260045260246000fd5b7f4e487b7100000000000000000000000000000000000000000000000000000000600052603160045260246000fd5b7f4e487b7100000000000000000000000000000000000000000000000000000000600052603260045260246000fd5b7f4e487b7100000000000000000000000000000000000000000000000000000000600052604160045260246000fd5b600080fd5b600080fd5b600080fd5b600080fd5b6000601f19601f8301169050919050565b7f455243373231456e756d657261626c653a206f776e657220696e646578206f7560008201527f74206f6620626f756e6473000000000000000000000000000000000000000000602082015250565b7f4552433732313a207472616e7366657220746f206e6f6e20455243373231526560008201527f63656976657220696d706c656d656e7465720000000000000000000000000000602082015250565b7f4552433732313a20746f6b656e20616c7265616479206d696e74656400000000600082015250565b7f4552433732313a207472616e7366657220746f20746865207a65726f2061646460008201527f7265737300000000000000000000000000000000000000000000000000000000602082015250565b7f4552433732313a20617070726f766520746f2063616c6c657200000000000000600082015250565b7f4e6f7420656e6f756768204c494e4b202d2066696c6c20636f6e74726163742060008201527f7769746820666175636574000000000000000000000000000000000000000000602082015250565b7f4552433732313a206f70657261746f7220717565727920666f72206e6f6e657860008201527f697374656e7420746f6b656e0000000000000000000000000000000000000000602082015250565b7f4552433732313a20617070726f76652063616c6c6572206973206e6f74206f7760008201527f6e6572206e6f7220617070726f76656420666f7220616c6c0000000000000000602082015250565b7f4552433732313a2062616c616e636520717565727920666f7220746865207a6560008201527f726f206164647265737300000000000000000000000000000000000000000000602082015250565b7f4552433732313a206f776e657220717565727920666f72206e6f6e657869737460008201527f656e7420746f6b656e0000000000000000000000000000000000000000000000602082015250565b7f4552433732313a206d696e7420746f20746865207a65726f2061646472657373600082015250565b7f4552433732313a20617070726f76656420717565727920666f72206e6f6e657860008201527f697374656e7420746f6b656e0000000000000000000000000000000000000000602082015250565b7f4552433732313a207472616e73666572206f6620746f6b656e2074686174206960008201527f73206e6f74206f776e0000000000000000000000000000000000000000000000602082015250565b7f4552433732314d657461646174613a2055524920717565727920666f72206e6f60008201527f6e6578697374656e7420746f6b656e0000000000000000000000000000000000602082015250565b7f4f6e6c7920565246436f6f7264696e61746f722063616e2066756c66696c6c00600082015250565b7f4552433732313a20617070726f76616c20746f2063757272656e74206f776e6560008201527f7200000000000000000000000000000000000000000000000000000000000000602082015250565b7f4552433732313a207472616e736665722063616c6c6572206973206e6f74206f60008201527f776e6572206e6f7220617070726f766564000000000000000000000000000000602082015250565b7f455243373231456e756d657261626c653a20676c6f62616c20696e646578206f60008201527f7574206f6620626f756e64730000000000000000000000000000000000000000602082015250565b6140e58161390e565b81146140f057600080fd5b50565b6140fc81613920565b811461410757600080fd5b50565b6141138161392c565b811461411e57600080fd5b50565b61412a81613936565b811461413557600080fd5b50565b61414181613982565b811461414c57600080fd5b5056fea264697066735822122082353ac8c371ddf3151c9215b83f5cb776859b7bf1d88eabfa63e356c7967b3c64736f6c63430008060033",
  "source": "// SPDX-License-Identifier: MIT\npragma solidity 0.8.6;\n\nimport \"./dependencies/ERC20.sol\";\nimport \"./dependencies/ERC721.sol\";\nimport \"./dependencies/ERC721Enumerable.sol\";\nimport \"./dependencies/VRFConsumerBase.sol\";\n\ncontract Gachapon is ERC721, ERC721Enumerable, VRFConsumerBase {\n  uint MAXIMUM_ATTACK = 10;\n  uint256 public token_count;\n  mapping (bytes32 => address) public request_address;\n  string[] public class_pool;\n  string[] public rarity_pool;\n  mapping (string => mapping (string => mapping (uint => string))) uri_pool; // maps Class->Rarity->Atk\n  mapping (uint256 => string) public token_class;\n  mapping (uint256 => string) public token_rarity;\n  mapping (uint256 => uint) public token_attack;\n\n  //Chainlink preset variables\n  address LINK_TOKEN = 0x01BE23585060835E02B77ef475b0Cc51aA1e0709;\n  address VRF_COORDINATOR = 0xb3dCcb4Cf7a26f6cf6B120Cf5A73875B7BBc655B;\n  bytes32 KEYHASH = 0x2ed0feb3e7fd2022120aa84fab1945545a9f2ffc9076fd6156fa96eaff4c1311;\n  uint256 internal FEE = 0.1 ether;\n\n  constructor()\n    ERC721(\"My NFT\", \"NFT10\") \n    VRFConsumerBase(\n      VRF_COORDINATOR, // VRF Coordinator\n      LINK_TOKEN // LINK Token\n    ){}\n\n  function tokenURI(uint256 tokenId) public view virtual override returns (string memory) {\n    require(_exists(tokenId), \"ERC721Metadata: URI query for nonexistent token\");\n    return uri_pool[token_class[tokenId]][token_rarity[tokenId]][token_attack[tokenId]];\n  }\n\n  function addURIToPool(string memory uri, string memory class, string memory rarity, uint attack) public {\n    uri_pool[class][rarity][attack] = uri;\n  }\n\n  function addClassToPool(string memory class) public {\n    class_pool.push(class);\n  }\n\n  function addRarityToPool(string memory rarity) public {\n    rarity_pool.push(rarity);\n  }\n\n  function setURIInPool(string memory uri, string memory class, string memory rarity, uint256 attack) public {\n    uri_pool[class][rarity][attack] = uri;\n  }\n\n  function mintNFT(address to) public\n  {\n    require(LINK.balanceOf(address(this)) >= FEE, \"Not enough LINK - fill contract with faucet\");\n\n    bytes32 requestId = requestRandomness(\n      KEYHASH, // KeyHash\n      FEE // Fee\n    );\n    request_address[requestId] = to;\n  }\n\n  function fulfillRandomness(bytes32 requestId, uint256 randomness) internal override {\n    token_count += 1;\n    _mint(request_address[requestId], token_count);\n    uint256 randomness1 = uint256(keccak256(abi.encode(randomness, 0)));\n    uint256 randomness2 = uint256(keccak256(abi.encode(randomness, 1)));\n    uint256 randomness3 = uint256(keccak256(abi.encode(randomness, 1)));\n\n    string memory class = class_pool[randomness1 % class_pool.length];\n    string memory rarity = rarity_pool[randomness2 % rarity_pool.length];\n    uint256 attack = (randomness3 % MAXIMUM_ATTACK) + 5;\n\n    token_class[token_count] = class;\n    token_rarity[token_count] = rarity;\n    token_attack[token_count] = attack;\n  }\n\n  function supportsInterface(bytes4 interfaceId)\n    public\n    view\n    override(ERC721, ERC721Enumerable)\n    returns (bool)\n  {\n      return super.supportsInterface(interfaceId);\n  }\n\n  function _beforeTokenTransfer(address from, address to, uint256 tokenId)\n    internal\n    override(ERC721, ERC721Enumerable)\n  {\n    super._beforeTokenTransfer(from, to, tokenId);\n  }\n}",
  "sourcePath": "/home/turupawn/Projects/Cryptobrawl/contracts/Gachapon.sol",
  "compiler": {
    "name": "solc",
    "version": "0.8.6+commit.11564f7e.Emscripten.clang"
  },
  "schemaVersion": "3.0.23",
  "updatedAt": "2021-07-29T08:07:05.170Z",
  "networkType": "ethereum",
  "devdoc": {
    "kind": "dev",
    "methods": {
      "approve(address,uint256)": {
        "details": "See {IERC721-approve}."
      },
      "balanceOf(address)": {
        "details": "See {IERC721-balanceOf}."
      },
      "getApproved(uint256)": {
        "details": "See {IERC721-getApproved}."
      },
      "isApprovedForAll(address,address)": {
        "details": "See {IERC721-isApprovedForAll}."
      },
      "name()": {
        "details": "See {IERC721Metadata-name}."
      },
      "ownerOf(uint256)": {
        "details": "See {IERC721-ownerOf}."
      },
      "safeTransferFrom(address,address,uint256)": {
        "details": "See {IERC721-safeTransferFrom}."
      },
      "safeTransferFrom(address,address,uint256,bytes)": {
        "details": "See {IERC721-safeTransferFrom}."
      },
      "setApprovalForAll(address,bool)": {
        "details": "See {IERC721-setApprovalForAll}."
      },
      "symbol()": {
        "details": "See {IERC721Metadata-symbol}."
      },
      "tokenByIndex(uint256)": {
        "details": "See {IERC721Enumerable-tokenByIndex}."
      },
      "tokenOfOwnerByIndex(address,uint256)": {
        "details": "See {IERC721Enumerable-tokenOfOwnerByIndex}."
      },
      "tokenURI(uint256)": {
        "details": "See {IERC721Metadata-tokenURI}."
      },
      "totalSupply()": {
        "details": "See {IERC721Enumerable-totalSupply}."
      },
      "transferFrom(address,address,uint256)": {
        "details": "See {IERC721-transferFrom}."
      }
    },
    "version": 1
  },
  "userdoc": {
    "kind": "user",
    "methods": {},
    "version": 1
  }
}