{
  "contractName": "TestgroundGame",
  "abi": [
    {
      "inputs": [],
      "stateMutability": "nonpayable",
      "type": "constructor"
    },
    {
      "anonymous": false,
      "inputs": [
        {
          "indexed": true,
          "internalType": "address",
          "name": "owner",
          "type": "address"
        },
        {
          "indexed": true,
          "internalType": "address",
          "name": "approved",
          "type": "address"
        },
        {
          "indexed": true,
          "internalType": "uint256",
          "name": "tokenId",
          "type": "uint256"
        }
      ],
      "name": "Approval",
      "type": "event"
    },
    {
      "anonymous": false,
      "inputs": [
        {
          "indexed": true,
          "internalType": "address",
          "name": "owner",
          "type": "address"
        },
        {
          "indexed": true,
          "internalType": "address",
          "name": "operator",
          "type": "address"
        },
        {
          "indexed": false,
          "internalType": "bool",
          "name": "approved",
          "type": "bool"
        }
      ],
      "name": "ApprovalForAll",
      "type": "event"
    },
    {
      "anonymous": false,
      "inputs": [
        {
          "indexed": true,
          "internalType": "address",
          "name": "from",
          "type": "address"
        },
        {
          "indexed": true,
          "internalType": "address",
          "name": "to",
          "type": "address"
        },
        {
          "indexed": true,
          "internalType": "uint256",
          "name": "tokenId",
          "type": "uint256"
        }
      ],
      "name": "Transfer",
      "type": "event"
    },
    {
      "inputs": [
        {
          "internalType": "address",
          "name": "to",
          "type": "address"
        },
        {
          "internalType": "uint256",
          "name": "tokenId",
          "type": "uint256"
        }
      ],
      "name": "approve",
      "outputs": [],
      "stateMutability": "nonpayable",
      "type": "function"
    },
    {
      "inputs": [
        {
          "internalType": "address",
          "name": "owner",
          "type": "address"
        }
      ],
      "name": "balanceOf",
      "outputs": [
        {
          "internalType": "uint256",
          "name": "",
          "type": "uint256"
        }
      ],
      "stateMutability": "view",
      "type": "function",
      "constant": true
    },
    {
      "inputs": [
        {
          "internalType": "uint256",
          "name": "tokenId",
          "type": "uint256"
        }
      ],
      "name": "getApproved",
      "outputs": [
        {
          "internalType": "address",
          "name": "",
          "type": "address"
        }
      ],
      "stateMutability": "view",
      "type": "function",
      "constant": true
    },
    {
      "inputs": [
        {
          "internalType": "address",
          "name": "owner",
          "type": "address"
        },
        {
          "internalType": "address",
          "name": "operator",
          "type": "address"
        }
      ],
      "name": "isApprovedForAll",
      "outputs": [
        {
          "internalType": "bool",
          "name": "",
          "type": "bool"
        }
      ],
      "stateMutability": "view",
      "type": "function",
      "constant": true
    },
    {
      "inputs": [],
      "name": "logger",
      "outputs": [
        {
          "internalType": "string",
          "name": "",
          "type": "string"
        }
      ],
      "stateMutability": "view",
      "type": "function",
      "constant": true
    },
    {
      "inputs": [],
      "name": "name",
      "outputs": [
        {
          "internalType": "string",
          "name": "",
          "type": "string"
        }
      ],
      "stateMutability": "view",
      "type": "function",
      "constant": true
    },
    {
      "inputs": [
        {
          "internalType": "uint256",
          "name": "tokenId",
          "type": "uint256"
        }
      ],
      "name": "ownerOf",
      "outputs": [
        {
          "internalType": "address",
          "name": "",
          "type": "address"
        }
      ],
      "stateMutability": "view",
      "type": "function",
      "constant": true
    },
    {
      "inputs": [
        {
          "internalType": "bytes32",
          "name": "requestId",
          "type": "bytes32"
        },
        {
          "internalType": "uint256",
          "name": "randomness",
          "type": "uint256"
        }
      ],
      "name": "rawFulfillRandomness",
      "outputs": [],
      "stateMutability": "nonpayable",
      "type": "function"
    },
    {
      "inputs": [
        {
          "internalType": "bytes32",
          "name": "",
          "type": "bytes32"
        }
      ],
      "name": "requestIdToMsgSender",
      "outputs": [
        {
          "internalType": "address",
          "name": "",
          "type": "address"
        }
      ],
      "stateMutability": "view",
      "type": "function",
      "constant": true
    },
    {
      "inputs": [
        {
          "internalType": "bytes32",
          "name": "",
          "type": "bytes32"
        }
      ],
      "name": "requestIdToRandomNumber",
      "outputs": [
        {
          "internalType": "uint256",
          "name": "",
          "type": "uint256"
        }
      ],
      "stateMutability": "view",
      "type": "function",
      "constant": true
    },
    {
      "inputs": [
        {
          "internalType": "address",
          "name": "from",
          "type": "address"
        },
        {
          "internalType": "address",
          "name": "to",
          "type": "address"
        },
        {
          "internalType": "uint256",
          "name": "tokenId",
          "type": "uint256"
        }
      ],
      "name": "safeTransferFrom",
      "outputs": [],
      "stateMutability": "nonpayable",
      "type": "function"
    },
    {
      "inputs": [
        {
          "internalType": "address",
          "name": "from",
          "type": "address"
        },
        {
          "internalType": "address",
          "name": "to",
          "type": "address"
        },
        {
          "internalType": "uint256",
          "name": "tokenId",
          "type": "uint256"
        },
        {
          "internalType": "bytes",
          "name": "_data",
          "type": "bytes"
        }
      ],
      "name": "safeTransferFrom",
      "outputs": [],
      "stateMutability": "nonpayable",
      "type": "function"
    },
    {
      "inputs": [
        {
          "internalType": "address",
          "name": "operator",
          "type": "address"
        },
        {
          "internalType": "bool",
          "name": "approved",
          "type": "bool"
        }
      ],
      "name": "setApprovalForAll",
      "outputs": [],
      "stateMutability": "nonpayable",
      "type": "function"
    },
    {
      "inputs": [
        {
          "internalType": "bytes4",
          "name": "interfaceId",
          "type": "bytes4"
        }
      ],
      "name": "supportsInterface",
      "outputs": [
        {
          "internalType": "bool",
          "name": "",
          "type": "bool"
        }
      ],
      "stateMutability": "view",
      "type": "function",
      "constant": true
    },
    {
      "inputs": [],
      "name": "symbol",
      "outputs": [
        {
          "internalType": "string",
          "name": "",
          "type": "string"
        }
      ],
      "stateMutability": "view",
      "type": "function",
      "constant": true
    },
    {
      "inputs": [
        {
          "internalType": "address",
          "name": "from",
          "type": "address"
        },
        {
          "internalType": "address",
          "name": "to",
          "type": "address"
        },
        {
          "internalType": "uint256",
          "name": "tokenId",
          "type": "uint256"
        }
      ],
      "name": "transferFrom",
      "outputs": [],
      "stateMutability": "nonpayable",
      "type": "function"
    },
    {
      "inputs": [
        {
          "internalType": "string",
          "name": "baseURI_",
          "type": "string"
        }
      ],
      "name": "setBaseURI",
      "outputs": [],
      "stateMutability": "nonpayable",
      "type": "function"
    },
    {
      "inputs": [
        {
          "internalType": "uint256",
          "name": "tokenId",
          "type": "uint256"
        }
      ],
      "name": "tokenURI",
      "outputs": [
        {
          "internalType": "string",
          "name": "",
          "type": "string"
        }
      ],
      "stateMutability": "view",
      "type": "function",
      "constant": true
    },
    {
      "inputs": [
        {
          "internalType": "uint256",
          "name": "userProvidedSeed",
          "type": "uint256"
        }
      ],
      "name": "triggerGacha",
      "outputs": [
        {
          "internalType": "bytes32",
          "name": "_requestId",
          "type": "bytes32"
        }
      ],
      "stateMutability": "nonpayable",
      "type": "function"
    },
    {
      "inputs": [
        {
          "internalType": "address",
          "name": "_owner",
          "type": "address"
        }
      ],
      "name": "tokensOfOwner",
      "outputs": [
        {
          "internalType": "uint256[]",
          "name": "ownerTokens",
          "type": "uint256[]"
        }
      ],
      "stateMutability": "view",
      "type": "function",
      "constant": true
    }
  ],
  "bytecode": "0x60c060405260006009556040518060400160405280600481526020017f696e697400000000000000000000000000000000000000000000000000000000815250600b90805190602001906200005692919062000387565b506040518060400160405280601581526020017f68747470733a2f2f697066732e696f2f697066732f0000000000000000000000815250600c9080519060200190620000a492919062000387565b50348015620000b257600080fd5b50738c7382f9d8f56b33781fe506e897a4f1e2d1725573326c977e6efc84e512bb9c30f76e30c160ed06fb6040518060400160405280600681526020017f4d794e46545400000000000000000000000000000000000000000000000000008152506040518060400160405280600481526020017f53424c4c0000000000000000000000000000000000000000000000000000000081525081600090805190602001906200016192919062000387565b5080600190805190602001906200017a92919062000387565b5050508173ffffffffffffffffffffffffffffffffffffffff1660a08173ffffffffffffffffffffffffffffffffffffffff1660601b815250508073ffffffffffffffffffffffffffffffffffffffff1660808173ffffffffffffffffffffffffffffffffffffffff1660601b8152505050507f6e75b569a01ef56d18cab6a8e71e6600d6ce853834d4a5748b720d06f878b3a460001b600d81905550655af3107a4000600e819055506040518060600160405280602e815260200162003cdd602e91396008600080815260200190815260200160002090805190602001906200026692919062000387565b506040518060600160405280602e815260200162003d0b602e913960086000600181526020019081526020016000209080519060200190620002aa92919062000387565b506040518060600160405280602e815260200162003caf602e913960086000600281526020019081526020016000209080519060200190620002ee92919062000387565b506040518060600160405280602e815260200162003c81602e9139600860006003815260200190815260200160002090805190602001906200033292919062000387565b506040518060400160405280600b81526020017f636f6e7374727563746f72000000000000000000000000000000000000000000815250600b90805190602001906200038092919062000387565b506200049c565b828054620003959062000437565b90600052602060002090601f016020900481019282620003b9576000855562000405565b82601f10620003d457805160ff191683800117855562000405565b8280016001018555821562000405579182015b8281111562000404578251825591602001919060010190620003e7565b5b50905062000414919062000418565b5090565b5b808211156200043357600081600090555060010162000419565b5090565b600060028204905060018216806200045057607f821691505b602082108114156200046757620004666200046d565b5b50919050565b7f4e487b7100000000000000000000000000000000000000000000000000000000600052602260045260246000fd5b60805160601c60a05160601c6137ab620004d660003960008181610d1701526117e40152600081816107da01526117a801526137ab6000f3fe608060405234801561001057600080fd5b506004361061012c5760003560e01c806370a08231116100ad578063a22cb46511610071578063a22cb46514610379578063b88d4fde14610395578063c87b56dd146103b1578063e985e9c5146103e1578063f24ccbfe146104115761012c565b806370a08231146102af5780638462151c146102df57806394985ddd1461030f57806395d89b411461032b5780639bef9200146103495761012c565b806323b872dd116100f457806323b872dd146101fb57806338dc11d91461021757806342842e0e1461024757806355f804b3146102635780636352211e1461027f5761012c565b806301ffc9a71461013157806306fdde0314610161578063081812fc1461017f578063095ea7b3146101af578063121dc7eb146101cb575b600080fd5b61014b60048036038101906101469190612630565b61042f565b6040516101589190612fec565b60405180910390f35b610169610511565b6040516101769190613090565b60405180910390f35b610199600480360381019061019491906126c3565b6105a3565b6040516101a69190612f25565b60405180910390f35b6101c960048036038101906101c49190612566565b610628565b005b6101e560048036038101906101e091906125cb565b610740565b6040516101f29190612f25565b60405180910390f35b61021560048036038101906102109190612460565b610773565b005b610231600480360381019061022c91906126c3565b6107d3565b60405161023e9190613007565b60405180910390f35b610261600480360381019061025c9190612460565b61097b565b005b61027d60048036038101906102789190612682565b61099b565b005b610299600480360381019061029491906126c3565b6109b5565b6040516102a69190612f25565b60405180910390f35b6102c960048036038101906102c491906123fb565b610a67565b6040516102d691906132d2565b60405180910390f35b6102f960048036038101906102f491906123fb565b610b1f565b6040516103069190612fca565b60405180910390f35b610329600480360381019061032491906125f4565b610d15565b005b610333610db1565b6040516103409190613090565b60405180910390f35b610363600480360381019061035e91906125cb565b610e43565b60405161037091906132d2565b60405180910390f35b610393600480360381019061038e919061252a565b610e5b565b005b6103af60048036038101906103aa91906124af565b610fdc565b005b6103cb60048036038101906103c691906126c3565b61103e565b6040516103d89190613090565b60405180910390f35b6103fb60048036038101906103f69190612424565b6111b1565b6040516104089190612fec565b60405180910390f35b610419611245565b6040516104269190613090565b60405180910390f35b60007f80ac58cd000000000000000000000000000000000000000000000000000000007bffffffffffffffffffffffffffffffffffffffffffffffffffffffff1916827bffffffffffffffffffffffffffffffffffffffffffffffffffffffff191614806104fa57507f5b5e139f000000000000000000000000000000000000000000000000000000007bffffffffffffffffffffffffffffffffffffffffffffffffffffffff1916827bffffffffffffffffffffffffffffffffffffffffffffffffffffffff1916145b8061050a5750610509826112d3565b5b9050919050565b60606000805461052090613575565b80601f016020809104026020016040519081016040528092919081815260200182805461054c90613575565b80156105995780601f1061056e57610100808354040283529160200191610599565b820191906000526020600020905b81548152906001019060200180831161057c57829003601f168201915b5050505050905090565b60006105ae8261133d565b6105ed576040517f08c379a00000000000000000000000000000000000000000000000000000000081526004016105e4906131f2565b60405180910390fd5b6004600083815260200190815260200160002060009054906101000a900473ffffffffffffffffffffffffffffffffffffffff169050919050565b6000610633826109b5565b90508073ffffffffffffffffffffffffffffffffffffffff168373ffffffffffffffffffffffffffffffffffffffff1614156106a4576040517f08c379a000000000000000000000000000000000000000000000000000000000815260040161069b90613292565b60405180910390fd5b8073ffffffffffffffffffffffffffffffffffffffff166106c36113a9565b73ffffffffffffffffffffffffffffffffffffffff1614806106f257506106f1816106ec6113a9565b6111b1565b5b610731576040517f08c379a000000000000000000000000000000000000000000000000000000000815260040161072890613172565b60405180910390fd5b61073b83836113b1565b505050565b600f6020528060005260406000206000915054906101000a900473ffffffffffffffffffffffffffffffffffffffff1681565b61078461077e6113a9565b8261146a565b6107c3576040517f08c379a00000000000000000000000000000000000000000000000000000000081526004016107ba906132b2565b60405180910390fd5b6107ce838383611548565b505050565b6000600e547f000000000000000000000000000000000000000000000000000000000000000073ffffffffffffffffffffffffffffffffffffffff166370a08231306040518263ffffffff1660e01b81526004016108319190612f25565b60206040518083038186803b15801561084957600080fd5b505afa15801561085d573d6000803e3d6000fd5b505050506040513d601f19601f8201168201806040525081019061088191906126ec565b116108c1576040517f08c379a00000000000000000000000000000000000000000000000000000000081526004016108b890613132565b60405180910390fd5b60006108d2600d54600e54856117a4565b905033600f600083815260200190815260200160002060006101000a81548173ffffffffffffffffffffffffffffffffffffffff021916908373ffffffffffffffffffffffffffffffffffffffff1602179055506040518060400160405280600581526020017f6761636861000000000000000000000000000000000000000000000000000000815250600b90805190602001906109719291906121e0565b5080915050919050565b61099683838360405180602001604052806000815250610fdc565b505050565b80600c90805190602001906109b19291906121e0565b5050565b6000806002600084815260200190815260200160002060009054906101000a900473ffffffffffffffffffffffffffffffffffffffff169050600073ffffffffffffffffffffffffffffffffffffffff168173ffffffffffffffffffffffffffffffffffffffff161415610a5e576040517f08c379a0000000000000000000000000000000000000000000000000000000008152600401610a55906131b2565b60405180910390fd5b80915050919050565b60008073ffffffffffffffffffffffffffffffffffffffff168273ffffffffffffffffffffffffffffffffffffffff161415610ad8576040517f08c379a0000000000000000000000000000000000000000000000000000000008152600401610acf90613192565b60405180910390fd5b600360008373ffffffffffffffffffffffffffffffffffffffff1673ffffffffffffffffffffffffffffffffffffffff168152602001908152602001600020549050919050565b60606000610b2c83610a67565b90506000811415610baf57600067ffffffffffffffff811115610b78577f4e487b7100000000000000000000000000000000000000000000000000000000600052604160045260246000fd5b604051908082528060200260200182016040528015610ba65781602001602082028036833780820191505090505b50915050610d10565b60008167ffffffffffffffff811115610bf1577f4e487b7100000000000000000000000000000000000000000000000000000000600052604160045260246000fd5b604051908082528060200260200182016040528015610c1f5781602001602082028036833780820191505090505b50905060006009549050600080600190505b828111610d07578673ffffffffffffffffffffffffffffffffffffffff16600a600083815260200190815260200160002060009054906101000a900473ffffffffffffffffffffffffffffffffffffffff1673ffffffffffffffffffffffffffffffffffffffff161415610cf45780848381518110610cd9577f4e487b7100000000000000000000000000000000000000000000000000000000600052603260045260246000fd5b6020026020010181815250508180610cf0906135a7565b9250505b8080610cff906135a7565b915050610c31565b83955050505050505b919050565b7f000000000000000000000000000000000000000000000000000000000000000073ffffffffffffffffffffffffffffffffffffffff163373ffffffffffffffffffffffffffffffffffffffff1614610da3576040517f08c379a0000000000000000000000000000000000000000000000000000000008152600401610d9a90613272565b60405180910390fd5b610dad8282611905565b5050565b606060018054610dc090613575565b80601f0160208091040260200160405190810160405280929190818152602001828054610dec90613575565b8015610e395780601f10610e0e57610100808354040283529160200191610e39565b820191906000526020600020905b815481529060010190602001808311610e1c57829003601f168201915b5050505050905090565b60106020528060005260406000206000915090505481565b610e636113a9565b73ffffffffffffffffffffffffffffffffffffffff168273ffffffffffffffffffffffffffffffffffffffff161415610ed1576040517f08c379a0000000000000000000000000000000000000000000000000000000008152600401610ec890613112565b60405180910390fd5b8060056000610ede6113a9565b73ffffffffffffffffffffffffffffffffffffffff1673ffffffffffffffffffffffffffffffffffffffff16815260200190815260200160002060008473ffffffffffffffffffffffffffffffffffffffff1673ffffffffffffffffffffffffffffffffffffffff16815260200190815260200160002060006101000a81548160ff0219169083151502179055508173ffffffffffffffffffffffffffffffffffffffff16610f8b6113a9565b73ffffffffffffffffffffffffffffffffffffffff167f17307eab39ab6107e8899845ad3d59bd9653f200f220920489ca2b5937696c3183604051610fd09190612fec565b60405180910390a35050565b610fed610fe76113a9565b8361146a565b61102c576040517f08c379a0000000000000000000000000000000000000000000000000000000008152600401611023906132b2565b60405180910390fd5b61103884848484611ae5565b50505050565b60606110498261133d565b611088576040517f08c379a000000000000000000000000000000000000000000000000000000000815260040161107f90613252565b60405180910390fd5b60006007600084815260200190815260200160002080546110a890613575565b80601f01602080910402602001604051908101604052809291908181526020018280546110d490613575565b80156111215780601f106110f657610100808354040283529160200191611121565b820191906000526020600020905b81548152906001019060200180831161110457829003601f168201915b505050505090506000611132611b41565b90506000815114156111485781925050506111ac565b60008251111561117d578082604051602001611165929190612f01565b604051602081830303815290604052925050506111ac565b8061118785611bd3565b604051602001611198929190612f01565b604051602081830303815290604052925050505b919050565b6000600560008473ffffffffffffffffffffffffffffffffffffffff1673ffffffffffffffffffffffffffffffffffffffff16815260200190815260200160002060008373ffffffffffffffffffffffffffffffffffffffff1673ffffffffffffffffffffffffffffffffffffffff16815260200190815260200160002060009054906101000a900460ff16905092915050565b600b805461125290613575565b80601f016020809104026020016040519081016040528092919081815260200182805461127e90613575565b80156112cb5780601f106112a0576101008083540402835291602001916112cb565b820191906000526020600020905b8154815290600101906020018083116112ae57829003601f168201915b505050505081565b60007f01ffc9a7000000000000000000000000000000000000000000000000000000007bffffffffffffffffffffffffffffffffffffffffffffffffffffffff1916827bffffffffffffffffffffffffffffffffffffffffffffffffffffffff1916149050919050565b60008073ffffffffffffffffffffffffffffffffffffffff166002600084815260200190815260200160002060009054906101000a900473ffffffffffffffffffffffffffffffffffffffff1673ffffffffffffffffffffffffffffffffffffffff1614159050919050565b600033905090565b816004600083815260200190815260200160002060006101000a81548173ffffffffffffffffffffffffffffffffffffffff021916908373ffffffffffffffffffffffffffffffffffffffff160217905550808273ffffffffffffffffffffffffffffffffffffffff16611424836109b5565b73ffffffffffffffffffffffffffffffffffffffff167f8c5be1e5ebec7d5bd14f71427d1e84f3dd0314c0f7b2291e5b200ac8c7c3b92560405160405180910390a45050565b60006114758261133d565b6114b4576040517f08c379a00000000000000000000000000000000000000000000000000000000081526004016114ab90613152565b60405180910390fd5b60006114bf836109b5565b90508073ffffffffffffffffffffffffffffffffffffffff168473ffffffffffffffffffffffffffffffffffffffff16148061152e57508373ffffffffffffffffffffffffffffffffffffffff16611516846105a3565b73ffffffffffffffffffffffffffffffffffffffff16145b8061153f575061153e81856111b1565b5b91505092915050565b8273ffffffffffffffffffffffffffffffffffffffff16611568826109b5565b73ffffffffffffffffffffffffffffffffffffffff16146115be576040517f08c379a00000000000000000000000000000000000000000000000000000000081526004016115b590613232565b60405180910390fd5b600073ffffffffffffffffffffffffffffffffffffffff168273ffffffffffffffffffffffffffffffffffffffff16141561162e576040517f08c379a0000000000000000000000000000000000000000000000000000000008152600401611625906130f2565b60405180910390fd5b611639838383611d80565b6116446000826113b1565b6001600360008573ffffffffffffffffffffffffffffffffffffffff1673ffffffffffffffffffffffffffffffffffffffff16815260200190815260200160002060008282546116949190613481565b925050819055506001600360008473ffffffffffffffffffffffffffffffffffffffff1673ffffffffffffffffffffffffffffffffffffffff16815260200190815260200160002060008282546116eb91906133fa565b92505081905550816002600083815260200190815260200160002060006101000a81548173ffffffffffffffffffffffffffffffffffffffff021916908373ffffffffffffffffffffffffffffffffffffffff160217905550808273ffffffffffffffffffffffffffffffffffffffff168473ffffffffffffffffffffffffffffffffffffffff167fddf252ad1be2c89b69c2b068fc378daa952ba7f163c4a11628f55a4df523b3ef60405160405180910390a4505050565b60007f000000000000000000000000000000000000000000000000000000000000000073ffffffffffffffffffffffffffffffffffffffff16634000aea07f0000000000000000000000000000000000000000000000000000000000000000858786604051602001611817929190613022565b6040516020818303038152906040526040518463ffffffff1660e01b815260040161184493929190612f8c565b602060405180830381600087803b15801561185e57600080fd5b505af1158015611872573d6000803e3d6000fd5b505050506040513d601f19601f8201168201806040525081019061189691906125a2565b5060006118b8858430600660008a815260200190815260200160002054611d85565b9050600160066000878152602001908152602001600020546118da91906133fa565b60066000878152602001908152602001600020819055506118fb8582611dc1565b9150509392505050565b80601060008481526020019081526020016000208190555060016009600082825461193091906133fa565b92505081905550611976600f600084815260200190815260200160002060009054906101000a900473ffffffffffffffffffffffffffffffffffffffff16600954611df4565b611a296009546008600060048561198d9190613604565b815260200190815260200160002080546119a690613575565b80601f01602080910402602001604051908101604052809291908181526020018280546119d290613575565b8015611a1f5780601f106119f457610100808354040283529160200191611a1f565b820191906000526020600020905b815481529060010190602001808311611a0257829003601f168201915b5050505050611fc2565b600f600083815260200190815260200160002060009054906101000a900473ffffffffffffffffffffffffffffffffffffffff1673ffffffffffffffffffffffffffffffffffffffff16600a6000600954815260200190815260200160002060009054906101000a905050506040518060400160405280600481526020017f66756c6c00000000000000000000000000000000000000000000000000000000815250600b9080519060200190611ae09291906121e0565b505050565b611af0848484611548565b611afc84848484612036565b611b3b576040517f08c379a0000000000000000000000000000000000000000000000000000000008152600401611b32906130b2565b60405180910390fd5b50505050565b6060600c8054611b5090613575565b80601f0160208091040260200160405190810160405280929190818152602001828054611b7c90613575565b8015611bc95780601f10611b9e57610100808354040283529160200191611bc9565b820191906000526020600020905b815481529060010190602001808311611bac57829003601f168201915b5050505050905090565b60606000821415611c1b576040518060400160405280600181526020017f30000000000000000000000000000000000000000000000000000000000000008152509050611d7b565b600082905060005b60008214611c4d578080611c36906135a7565b915050600a82611c469190613450565b9150611c23565b60008167ffffffffffffffff811115611c8f577f4e487b7100000000000000000000000000000000000000000000000000000000600052604160045260246000fd5b6040519080825280601f01601f191660200182016040528015611cc15781602001600182028036833780820191505090505b5090505b60008514611d7457600182611cda9190613481565b9150600a85611ce99190613604565b6030611cf591906133fa565b60f81b818381518110611d31577f4e487b7100000000000000000000000000000000000000000000000000000000600052603260045260246000fd5b60200101907effffffffffffffffffffffffffffffffffffffffffffffffffffffffffffff1916908160001a905350600a85611d6d9190613450565b9450611cc5565b8093505050505b919050565b505050565b600084848484604051602001611d9e949392919061304b565b6040516020818303038152906040528051906020012060001c9050949350505050565b60008282604051602001611dd6929190612ed5565b60405160208183030381529060405280519060200120905092915050565b600073ffffffffffffffffffffffffffffffffffffffff168273ffffffffffffffffffffffffffffffffffffffff161415611e64576040517f08c379a0000000000000000000000000000000000000000000000000000000008152600401611e5b906131d2565b60405180910390fd5b611e6d8161133d565b15611ead576040517f08c379a0000000000000000000000000000000000000000000000000000000008152600401611ea4906130d2565b60405180910390fd5b611eb960008383611d80565b6001600360008473ffffffffffffffffffffffffffffffffffffffff1673ffffffffffffffffffffffffffffffffffffffff1681526020019081526020016000206000828254611f0991906133fa565b92505081905550816002600083815260200190815260200160002060006101000a81548173ffffffffffffffffffffffffffffffffffffffff021916908373ffffffffffffffffffffffffffffffffffffffff160217905550808273ffffffffffffffffffffffffffffffffffffffff16600073ffffffffffffffffffffffffffffffffffffffff167fddf252ad1be2c89b69c2b068fc378daa952ba7f163c4a11628f55a4df523b3ef60405160405180910390a45050565b611fcb8261133d565b61200a576040517f08c379a000000000000000000000000000000000000000000000000000000000815260040161200190613212565b60405180910390fd5b806007600084815260200190815260200160002090805190602001906120319291906121e0565b505050565b60006120578473ffffffffffffffffffffffffffffffffffffffff166121cd565b156121c0578373ffffffffffffffffffffffffffffffffffffffff1663150b7a026120806113a9565b8786866040518563ffffffff1660e01b81526004016120a29493929190612f40565b602060405180830381600087803b1580156120bc57600080fd5b505af19250505080156120ed57506040513d601f19601f820116820180604052508101906120ea9190612659565b60015b612170573d806000811461211d576040519150601f19603f3d011682016040523d82523d6000602084013e612122565b606091505b50600081511415612168576040517f08c379a000000000000000000000000000000000000000000000000000000000815260040161215f906130b2565b60405180910390fd5b805181602001fd5b63150b7a0260e01b7bffffffffffffffffffffffffffffffffffffffffffffffffffffffff1916817bffffffffffffffffffffffffffffffffffffffffffffffffffffffff1916149150506121c5565b600190505b949350505050565b600080823b905060008111915050919050565b8280546121ec90613575565b90600052602060002090601f01602090048101928261220e5760008555612255565b82601f1061222757805160ff1916838001178555612255565b82800160010185558215612255579182015b82811115612254578251825591602001919060010190612239565b5b5090506122629190612266565b5090565b5b8082111561227f576000816000905550600101612267565b5090565b60006122966122918461331e565b6132ed565b9050828152602081018484840111156122ae57600080fd5b6122b9848285613533565b509392505050565b60006122d46122cf8461334e565b6132ed565b9050828152602081018484840111156122ec57600080fd5b6122f7848285613533565b509392505050565b60008135905061230e81613702565b92915050565b60008135905061232381613719565b92915050565b60008151905061233881613719565b92915050565b60008135905061234d81613730565b92915050565b60008135905061236281613747565b92915050565b60008151905061237781613747565b92915050565b600082601f83011261238e57600080fd5b813561239e848260208601612283565b91505092915050565b600082601f8301126123b857600080fd5b81356123c88482602086016122c1565b91505092915050565b6000813590506123e08161375e565b92915050565b6000815190506123f58161375e565b92915050565b60006020828403121561240d57600080fd5b600061241b848285016122ff565b91505092915050565b6000806040838503121561243757600080fd5b6000612445858286016122ff565b9250506020612456858286016122ff565b9150509250929050565b60008060006060848603121561247557600080fd5b6000612483868287016122ff565b9350506020612494868287016122ff565b92505060406124a5868287016123d1565b9150509250925092565b600080600080608085870312156124c557600080fd5b60006124d3878288016122ff565b94505060206124e4878288016122ff565b93505060406124f5878288016123d1565b925050606085013567ffffffffffffffff81111561251257600080fd5b61251e8782880161237d565b91505092959194509250565b6000806040838503121561253d57600080fd5b600061254b858286016122ff565b925050602061255c85828601612314565b9150509250929050565b6000806040838503121561257957600080fd5b6000612587858286016122ff565b9250506020612598858286016123d1565b9150509250929050565b6000602082840312156125b457600080fd5b60006125c284828501612329565b91505092915050565b6000602082840312156125dd57600080fd5b60006125eb8482850161233e565b91505092915050565b6000806040838503121561260757600080fd5b60006126158582860161233e565b9250506020612626858286016123d1565b9150509250929050565b60006020828403121561264257600080fd5b600061265084828501612353565b91505092915050565b60006020828403121561266b57600080fd5b600061267984828501612368565b91505092915050565b60006020828403121561269457600080fd5b600082013567ffffffffffffffff8111156126ae57600080fd5b6126ba848285016123a7565b91505092915050565b6000602082840312156126d557600080fd5b60006126e3848285016123d1565b91505092915050565b6000602082840312156126fe57600080fd5b600061270c848285016123e6565b91505092915050565b60006127218383612ea0565b60208301905092915050565b612736816134b5565b82525050565b60006127478261338e565b61275181856133bc565b935061275c8361337e565b8060005b8381101561278d5781516127748882612715565b975061277f836133af565b925050600181019050612760565b5085935050505092915050565b6127a3816134c7565b82525050565b6127b2816134d3565b82525050565b6127c96127c4826134d3565b6135f0565b82525050565b60006127da82613399565b6127e481856133cd565b93506127f4818560208601613542565b6127fd816136f1565b840191505092915050565b6000612813826133a4565b61281d81856133de565b935061282d818560208601613542565b612836816136f1565b840191505092915050565b600061284c826133a4565b61285681856133ef565b9350612866818560208601613542565b80840191505092915050565b600061287f6032836133de565b91507f4552433732313a207472616e7366657220746f206e6f6e20455243373231526560008301527f63656976657220696d706c656d656e74657200000000000000000000000000006020830152604082019050919050565b60006128e5601c836133de565b91507f4552433732313a20746f6b656e20616c7265616479206d696e746564000000006000830152602082019050919050565b60006129256024836133de565b91507f4552433732313a207472616e7366657220746f20746865207a65726f2061646460008301527f72657373000000000000000000000000000000000000000000000000000000006020830152604082019050919050565b600061298b6019836133de565b91507f4552433732313a20617070726f766520746f2063616c6c6572000000000000006000830152602082019050919050565b60006129cb602b836133de565b91507f4e6f7420656e6f756768204c494e4b202d2066696c6c20636f6e74726163742060008301527f77697468206661756365740000000000000000000000000000000000000000006020830152604082019050919050565b6000612a31602c836133de565b91507f4552433732313a206f70657261746f7220717565727920666f72206e6f6e657860008301527f697374656e7420746f6b656e00000000000000000000000000000000000000006020830152604082019050919050565b6000612a976038836133de565b91507f4552433732313a20617070726f76652063616c6c6572206973206e6f74206f7760008301527f6e6572206e6f7220617070726f76656420666f7220616c6c00000000000000006020830152604082019050919050565b6000612afd602a836133de565b91507f4552433732313a2062616c616e636520717565727920666f7220746865207a6560008301527f726f2061646472657373000000000000000000000000000000000000000000006020830152604082019050919050565b6000612b636029836133de565b91507f4552433732313a206f776e657220717565727920666f72206e6f6e657869737460008301527f656e7420746f6b656e00000000000000000000000000000000000000000000006020830152604082019050919050565b6000612bc96020836133de565b91507f4552433732313a206d696e7420746f20746865207a65726f20616464726573736000830152602082019050919050565b6000612c09602c836133de565b91507f4552433732313a20617070726f76656420717565727920666f72206e6f6e657860008301527f697374656e7420746f6b656e00000000000000000000000000000000000000006020830152604082019050919050565b6000612c6f602c836133de565b91507f4552433732314d657461646174613a2055524920736574206f66206e6f6e657860008301527f697374656e7420746f6b656e00000000000000000000000000000000000000006020830152604082019050919050565b6000612cd56029836133de565b91507f4552433732313a207472616e73666572206f6620746f6b656e2074686174206960008301527f73206e6f74206f776e00000000000000000000000000000000000000000000006020830152604082019050919050565b6000612d3b602f836133de565b91507f4552433732314d657461646174613a2055524920717565727920666f72206e6f60008301527f6e6578697374656e7420746f6b656e00000000000000000000000000000000006020830152604082019050919050565b6000612da1601f836133de565b91507f4f6e6c7920565246436f6f7264696e61746f722063616e2066756c66696c6c006000830152602082019050919050565b6000612de16021836133de565b91507f4552433732313a20617070726f76616c20746f2063757272656e74206f776e6560008301527f72000000000000000000000000000000000000000000000000000000000000006020830152604082019050919050565b6000612e476031836133de565b91507f4552433732313a207472616e736665722063616c6c6572206973206e6f74206f60008301527f776e6572206e6f7220617070726f7665640000000000000000000000000000006020830152604082019050919050565b612ea981613529565b82525050565b612eb881613529565b82525050565b612ecf612eca82613529565b6135fa565b82525050565b6000612ee182856127b8565b602082019150612ef18284612ebe565b6020820191508190509392505050565b6000612f0d8285612841565b9150612f198284612841565b91508190509392505050565b6000602082019050612f3a600083018461272d565b92915050565b6000608082019050612f55600083018761272d565b612f62602083018661272d565b612f6f6040830185612eaf565b8181036060830152612f8181846127cf565b905095945050505050565b6000606082019050612fa1600083018661272d565b612fae6020830185612eaf565b8181036040830152612fc081846127cf565b9050949350505050565b60006020820190508181036000830152612fe4818461273c565b905092915050565b6000602082019050613001600083018461279a565b92915050565b600060208201905061301c60008301846127a9565b92915050565b600060408201905061303760008301856127a9565b6130446020830184612eaf565b9392505050565b600060808201905061306060008301876127a9565b61306d6020830186612eaf565b61307a604083018561272d565b6130876060830184612eaf565b95945050505050565b600060208201905081810360008301526130aa8184612808565b905092915050565b600060208201905081810360008301526130cb81612872565b9050919050565b600060208201905081810360008301526130eb816128d8565b9050919050565b6000602082019050818103600083015261310b81612918565b9050919050565b6000602082019050818103600083015261312b8161297e565b9050919050565b6000602082019050818103600083015261314b816129be565b9050919050565b6000602082019050818103600083015261316b81612a24565b9050919050565b6000602082019050818103600083015261318b81612a8a565b9050919050565b600060208201905081810360008301526131ab81612af0565b9050919050565b600060208201905081810360008301526131cb81612b56565b9050919050565b600060208201905081810360008301526131eb81612bbc565b9050919050565b6000602082019050818103600083015261320b81612bfc565b9050919050565b6000602082019050818103600083015261322b81612c62565b9050919050565b6000602082019050818103600083015261324b81612cc8565b9050919050565b6000602082019050818103600083015261326b81612d2e565b9050919050565b6000602082019050818103600083015261328b81612d94565b9050919050565b600060208201905081810360008301526132ab81612dd4565b9050919050565b600060208201905081810360008301526132cb81612e3a565b9050919050565b60006020820190506132e76000830184612eaf565b92915050565b6000604051905081810181811067ffffffffffffffff82111715613314576133136136c2565b5b8060405250919050565b600067ffffffffffffffff821115613339576133386136c2565b5b601f19601f8301169050602081019050919050565b600067ffffffffffffffff821115613369576133686136c2565b5b601f19601f8301169050602081019050919050565b6000819050602082019050919050565b600081519050919050565b600081519050919050565b600081519050919050565b6000602082019050919050565b600082825260208201905092915050565b600082825260208201905092915050565b600082825260208201905092915050565b600081905092915050565b600061340582613529565b915061341083613529565b9250827fffffffffffffffffffffffffffffffffffffffffffffffffffffffffffffffff0382111561344557613444613635565b5b828201905092915050565b600061345b82613529565b915061346683613529565b92508261347657613475613664565b5b828204905092915050565b600061348c82613529565b915061349783613529565b9250828210156134aa576134a9613635565b5b828203905092915050565b60006134c082613509565b9050919050565b60008115159050919050565b6000819050919050565b60007fffffffff0000000000000000000000000000000000000000000000000000000082169050919050565b600073ffffffffffffffffffffffffffffffffffffffff82169050919050565b6000819050919050565b82818337600083830152505050565b60005b83811015613560578082015181840152602081019050613545565b8381111561356f576000848401525b50505050565b6000600282049050600182168061358d57607f821691505b602082108114156135a1576135a0613693565b5b50919050565b60006135b282613529565b91507fffffffffffffffffffffffffffffffffffffffffffffffffffffffffffffffff8214156135e5576135e4613635565b5b600182019050919050565b6000819050919050565b6000819050919050565b600061360f82613529565b915061361a83613529565b92508261362a57613629613664565b5b828206905092915050565b7f4e487b7100000000000000000000000000000000000000000000000000000000600052601160045260246000fd5b7f4e487b7100000000000000000000000000000000000000000000000000000000600052601260045260246000fd5b7f4e487b7100000000000000000000000000000000000000000000000000000000600052602260045260246000fd5b7f4e487b7100000000000000000000000000000000000000000000000000000000600052604160045260246000fd5b6000601f19601f8301169050919050565b61370b816134b5565b811461371657600080fd5b50565b613722816134c7565b811461372d57600080fd5b50565b613739816134d3565b811461374457600080fd5b50565b613750816134dd565b811461375b57600080fd5b50565b61376781613529565b811461377257600080fd5b5056fea2646970667358221220ea688ccce075d276a58a3b13c4446a14070e4680b458bf338aca74f5556006de64736f6c63430008000033516d6163785842347938594c4172706b4267454b5144416558657941635252324a61706f6f777a4b4d414a416941516d4e75586f437069446e5048784c7a656e734b7a666778686e434c746f6770344e62794274334769686e34644d516d613262617047576b327239526b7939594478325676566356524b5835444a47454b31473471644269594b7156516d633457784a614848444e6572586f436f314b626f4a66393434334e4244514a727a6e6e5462764e3561523874",
  "immutableReferences": {
    "2075": [
      {
        "length": 32,
        "start": 2010
      },
      {
        "length": 32,
        "start": 6056
      }
    ],
    "2077": [
      {
        "length": 32,
        "start": 3351
      },
      {
        "length": 32,
        "start": 6116
      }
    ]
  },
  "source": "// SPDX-License-Identifier: MIT\npragma solidity 0.8.0;\n\nimport \"./dependencies/VRFConsumerBase.sol\";\nimport \"./dependencies/ERC721.sol\";\n\ncontract TestgroundGame is ERC721, VRFConsumerBase {\n  using Strings for uint256;\n  mapping (uint256 => string) private _tokenURIs;\n  mapping (uint256 => string) private uploaded_tokens_uris;\n  uint256 token_count = 0;\n  mapping (uint256 => address) private kittyIndexToOwner;\n\n  string public logger = \"init\";\n\n  string private _baseURIextended = \"https://ipfs.io/ipfs/\";\n\n  // Link stuff\n  bytes32 internal keyHash;\n  uint256 internal fee;\n  mapping(bytes32 => address) public requestIdToMsgSender;\n  mapping(bytes32 => uint256) public requestIdToRandomNumber;\n\n  constructor()\n    ERC721(\"MyNFTT\", \"SBLL\")\n    VRFConsumerBase(0x8C7382F9D8f56b33781fE506E897a4F1e2d17255, 0x326C977E6efc84E512bB9C30f76E30c160eD06FB)\n  {\n    keyHash = 0x6e75b569a01ef56d18cab6a8e71e6600d6ce853834d4a5748b720d06f878b3a4;\n    fee = 0.0001 * 10 ** 18;\n    uploaded_tokens_uris[0] = \"Qma2bapGWk2r9Rky9YDx2VvVcVRKX5DJGEK1G4qdBiYKqV\";\n    uploaded_tokens_uris[1] = \"Qmc4WxJaHHDNerXoCo1KboJf9443NBDQJrznnTbvN5aR8t\";\n    uploaded_tokens_uris[2] = \"QmNuXoCpiDnPHxLzensKzfgxhnCLtogp4NbyBt3Gihn4dM\";\n    uploaded_tokens_uris[3] = \"QmacxXB4y8YLArpkBgEKQDAeXeyAcRR2JapoowzKMAJAiA\";\n\n    logger = \"constructor\";\n  }\n  \n  function setBaseURI(string memory baseURI_) external {\n    _baseURIextended = baseURI_;\n  }\n\n  function _setTokenURI(uint256 tokenId, string memory _tokenURI) internal virtual {\n    require(_exists(tokenId), \"ERC721Metadata: URI set of nonexistent token\");\n    _tokenURIs[tokenId] = _tokenURI;\n  }\n  \n  function _baseURI() internal view virtual override returns (string memory) {\n    return _baseURIextended;\n  }\n  \n  function tokenURI(uint256 tokenId) public view virtual override returns (string memory) {\n    require(_exists(tokenId), \"ERC721Metadata: URI query for nonexistent token\");\n\n    string memory _tokenURI = _tokenURIs[tokenId];\n    string memory base = _baseURI();\n\n    // If there is no base URI, return the token URI.\n    if (bytes(base).length == 0) {\n      return _tokenURI;\n    }\n    // If both are set, concatenate the baseURI and tokenURI (via abi.encodePacked).\n    if (bytes(_tokenURI).length > 0) {\n      return string(abi.encodePacked(base, _tokenURI));\n    }\n    // If there is a baseURI but no tokenURI, concatenate the tokenID to the baseURI.\n    return string(abi.encodePacked(base, tokenId.toString()));\n  }\n\n  function triggerGacha(uint256 userProvidedSeed) public returns (bytes32 _requestId) {\n    require(LINK.balanceOf(address(this)) > fee, \"Not enough LINK - fill contract with faucet\");\n    bytes32 requestId = requestRandomness(keyHash, fee, userProvidedSeed);\n    requestIdToMsgSender[requestId] = msg.sender;\n\n    logger = \"gacha\";\n    return requestId;\n  }\n\n  function fulfillRandomness(bytes32 requestId, uint256 randomness) internal override {\n    requestIdToRandomNumber[requestId] = randomness;\n\n    token_count += 1;\n    _mint(requestIdToMsgSender[requestId], token_count);\n    _setTokenURI(token_count, uploaded_tokens_uris[randomness%4]);\n\n    kittyIndexToOwner[token_count] == requestIdToMsgSender[requestId];\n\n    logger = \"full\";\n  }\n\n\n\n\n\n  function tokensOfOwner(address _owner) external view returns(uint256[] memory ownerTokens) {\n    uint256 tokenCount = balanceOf(_owner);\n\n    if (tokenCount == 0) {\n      // Return an empty array\n      return new uint256[](0);\n    } else {\n      uint256[] memory result = new uint256[](tokenCount);\n      uint256 totalCats = token_count;\n      uint256 resultIndex = 0;\n\n      // We count on the fact that all cats have IDs starting at 1 and increasing\n      // sequentially up to the totalCat count.\n      uint256 catId;\n\n      for (catId = 1; catId <= totalCats; catId++) {\n        if (kittyIndexToOwner[catId] == _owner) {\n          result[resultIndex] = catId;\n          resultIndex++;\n        }\n      }\n\n      return result;\n    }\n  }\n}",
  "sourcePath": "/home/turupawn/Projects/Blockchain/Gachapon/contracts/TestgroundGame.sol",
  "compiler": {
    "name": "solc",
    "version": "0.8.0+commit.c7dfd78e.Emscripten.clang"
  },
  "schemaVersion": "3.4.0",
  "updatedAt": "2021-05-11T06:42:03.115Z",
  "networkType": "ethereum",
  "devdoc": {
    "kind": "dev",
    "methods": {
      "approve(address,uint256)": {
        "details": "See {IERC721-approve}."
      },
      "balanceOf(address)": {
        "details": "See {IERC721-balanceOf}."
      },
      "getApproved(uint256)": {
        "details": "See {IERC721-getApproved}."
      },
      "isApprovedForAll(address,address)": {
        "details": "See {IERC721-isApprovedForAll}."
      },
      "name()": {
        "details": "See {IERC721Metadata-name}."
      },
      "ownerOf(uint256)": {
        "details": "See {IERC721-ownerOf}."
      },
      "safeTransferFrom(address,address,uint256)": {
        "details": "See {IERC721-safeTransferFrom}."
      },
      "safeTransferFrom(address,address,uint256,bytes)": {
        "details": "See {IERC721-safeTransferFrom}."
      },
      "setApprovalForAll(address,bool)": {
        "details": "See {IERC721-setApprovalForAll}."
      },
      "supportsInterface(bytes4)": {
        "details": "See {IERC165-supportsInterface}."
      },
      "symbol()": {
        "details": "See {IERC721Metadata-symbol}."
      },
      "tokenURI(uint256)": {
        "details": "See {IERC721Metadata-tokenURI}."
      },
      "transferFrom(address,address,uint256)": {
        "details": "See {IERC721-transferFrom}."
      }
    },
    "version": 1
  },
  "userdoc": {
    "kind": "user",
    "methods": {},
    "version": 1
  }
}