{
  "contractName": "TestgroundGame",
  "abi": [
    {
      "inputs": [
        {
          "internalType": "uint256",
          "name": "challenger_index",
          "type": "uint256"
        },
        {
          "internalType": "uint256",
          "name": "challenged_index",
          "type": "uint256"
        }
      ],
      "name": "challenge",
      "outputs": [],
      "stateMutability": "nonpayable",
      "type": "function"
    },
    {
      "inputs": [
        {
          "internalType": "uint256",
          "name": "token_id",
          "type": "uint256"
        }
      ],
      "name": "signUp",
      "outputs": [],
      "stateMutability": "nonpayable",
      "type": "function"
    }
  ],
  "bytecode": "0x608060405273033339a9bcdece1fc33ef019a1ba3598d6983de9600160006101000a81548173ffffffffffffffffffffffffffffffffffffffff021916908373ffffffffffffffffffffffffffffffffffffffff16021790555034801561006557600080fd5b506105ef806100756000396000f3fe608060405234801561001057600080fd5b50600436106100365760003560e01c80631fc645c71461003b5780632e41489014610057575b600080fd5b610055600480360381019061005091906103e1565b610073565b005b610071600480360381019061006c919061040e565b6101b9565b005b803373ffffffffffffffffffffffffffffffffffffffff16600160009054906101000a900473ffffffffffffffffffffffffffffffffffffffff1673ffffffffffffffffffffffffffffffffffffffff16636352211e836040518263ffffffff1660e01b81526004016100e691906104a0565b60206040518083038186803b1580156100fe57600080fd5b505afa158015610112573d6000803e3d6000fd5b505050506040513d601f19601f8201168201806040525081019061013691906103b4565b73ffffffffffffffffffffffffffffffffffffffff161461018c576040517f08c379a000000000000000000000000000000000000000000000000000000000815260040161018390610480565b60405180910390fd5b60008290806001815401808255809150506001900390600052602060002001600090919091909150555050565b600082815481106101cd576101cc610508565b5b90600052602060002001543373ffffffffffffffffffffffffffffffffffffffff16600160009054906101000a900473ffffffffffffffffffffffffffffffffffffffff1673ffffffffffffffffffffffffffffffffffffffff16636352211e836040518263ffffffff1660e01b815260040161024a91906104a0565b60206040518083038186803b15801561026257600080fd5b505afa158015610276573d6000803e3d6000fd5b505050506040513d601f19601f8201168201806040525081019061029a91906103b4565b73ffffffffffffffffffffffffffffffffffffffff16146102f0576040517f08c379a00000000000000000000000000000000000000000000000000000000081526004016102e790610480565b60405180910390fd5b6102fa83836102ff565b505050565b600080838154811061031457610313610508565b5b906000526020600020015490506000828154811061033557610334610508565b5b90600052602060002001546000848154811061035457610353610508565b5b9060005260206000200181905550806000838154811061037757610376610508565b5b9060005260206000200181905550505050565b6000815190506103998161058b565b92915050565b6000813590506103ae816105a2565b92915050565b6000602082840312156103ca576103c9610537565b5b60006103d88482850161038a565b91505092915050565b6000602082840312156103f7576103f6610537565b5b60006104058482850161039f565b91505092915050565b6000806040838503121561042557610424610537565b5b60006104338582860161039f565b92505060206104448582860161039f565b9150509250929050565b600061045b6021836104bb565b91506104668261053c565b604082019050919050565b61047a816104fe565b82525050565b600060208201905081810360008301526104998161044e565b9050919050565b60006020820190506104b56000830184610471565b92915050565b600082825260208201905092915050565b60006104d7826104de565b9050919050565b600073ffffffffffffffffffffffffffffffffffffffff82169050919050565b6000819050919050565b7f4e487b7100000000000000000000000000000000000000000000000000000000600052603260045260246000fd5b600080fd5b7f596f75206d757374206f776e20746865206368616c6c656e67657220746f6b6560008201527f6e00000000000000000000000000000000000000000000000000000000000000602082015250565b610594816104cc565b811461059f57600080fd5b50565b6105ab816104fe565b81146105b657600080fd5b5056fea264697066735822122068aaadcccd9e5b8918692d31fa4cc8d7510a9a7b8f08eb643509ebeb0d08098164736f6c63430008060033",
  "source": "// SPDX-License-Identifier: MIT\npragma solidity 0.8.6;\n\nimport \"./dependencies/VRFConsumerBase.sol\";\nimport \"./Gachapon.sol\";\n\ncontract TestgroundGame {\n  uint256[] leaderboard;\n  Gachapon gachapon = Gachapon(0x033339A9BcdeCE1Fc33ef019a1ba3598d6983De9);\n\n  function swap(uint256 index1, uint256 index2) internal\n  {\n    uint256 temp = leaderboard[index1];\n    leaderboard[index1] = leaderboard[index2];\n    leaderboard[index2] = temp;\n  }\n\n  function challenge(uint256 challenger_index, uint256 challenged_index)\n    public\n    mustBeOwner(leaderboard[challenger_index])\n  {\n    swap(challenger_index, challenged_index);\n  }\n\n  function signUp(uint256 token_id)\n    public\n    mustBeOwner(token_id)\n  {\n    leaderboard.push(token_id);\n  }\n\n  modifier mustBeOwner(uint256 token_id)\n  {\n    require(gachapon.ownerOf(token_id) == msg.sender, \"You must own the challenger token\");\n    _;\n  }\n}",
  "sourcePath": "/home/turupawn/Projects/Cryptobrawl/contracts/TestgroundGame.sol",
  "compiler": {
    "name": "solc",
    "version": "0.8.6+commit.11564f7e.Emscripten.clang"
  },
  "schemaVersion": "3.0.23",
  "updatedAt": "2021-07-29T08:08:04.465Z",
  "networkType": "ethereum",
  "devdoc": {
    "kind": "dev",
    "methods": {},
    "version": 1
  },
  "userdoc": {
    "kind": "user",
    "methods": {},
    "version": 1
  }
}