{
  "contractName": "Duels",
  "abi": [
    {
      "inputs": [
        {
          "internalType": "address",
          "name": "gachapon_address",
          "type": "address"
        }
      ],
      "stateMutability": "nonpayable",
      "type": "constructor"
    },
    {
      "inputs": [
        {
          "internalType": "uint256",
          "name": "",
          "type": "uint256"
        }
      ],
      "name": "challenges",
      "outputs": [
        {
          "internalType": "uint256",
          "name": "id",
          "type": "uint256"
        },
        {
          "internalType": "enum Duels.State",
          "name": "state",
          "type": "uint8"
        },
        {
          "internalType": "uint256",
          "name": "challenger_token_id",
          "type": "uint256"
        },
        {
          "internalType": "uint256",
          "name": "challenged_token_id",
          "type": "uint256"
        }
      ],
      "stateMutability": "view",
      "type": "function",
      "constant": true
    },
    {
      "inputs": [
        {
          "internalType": "bytes32",
          "name": "requestId",
          "type": "bytes32"
        },
        {
          "internalType": "uint256",
          "name": "randomness",
          "type": "uint256"
        }
      ],
      "name": "rawFulfillRandomness",
      "outputs": [],
      "stateMutability": "nonpayable",
      "type": "function"
    },
    {
      "inputs": [
        {
          "internalType": "bytes32",
          "name": "",
          "type": "bytes32"
        }
      ],
      "name": "request_challenge_id",
      "outputs": [
        {
          "internalType": "uint256",
          "name": "",
          "type": "uint256"
        }
      ],
      "stateMutability": "view",
      "type": "function",
      "constant": true
    },
    {
      "inputs": [
        {
          "internalType": "uint256",
          "name": "challenger_token_id",
          "type": "uint256"
        },
        {
          "internalType": "uint256",
          "name": "challenged_token_id",
          "type": "uint256"
        }
      ],
      "name": "createChallenge",
      "outputs": [],
      "stateMutability": "nonpayable",
      "type": "function"
    },
    {
      "inputs": [
        {
          "internalType": "uint256",
          "name": "challenge_id",
          "type": "uint256"
        }
      ],
      "name": "cancelChallenge",
      "outputs": [],
      "stateMutability": "nonpayable",
      "type": "function"
    },
    {
      "inputs": [
        {
          "internalType": "uint256",
          "name": "challenge_id",
          "type": "uint256"
        }
      ],
      "name": "declineChallenge",
      "outputs": [],
      "stateMutability": "nonpayable",
      "type": "function"
    },
    {
      "inputs": [
        {
          "internalType": "uint256",
          "name": "challenge_id",
          "type": "uint256"
        }
      ],
      "name": "acceptChallenge",
      "outputs": [],
      "stateMutability": "nonpayable",
      "type": "function"
    }
  ],
  "bytecode": "0x60c06040527301be23585060835e02b77ef475b0cc51aa1e0709600460006101000a81548173ffffffffffffffffffffffffffffffffffffffff021916908373ffffffffffffffffffffffffffffffffffffffff16021790555073b3dccb4cf7a26f6cf6b120cf5a73875b7bbc655b600560006101000a81548173ffffffffffffffffffffffffffffffffffffffff021916908373ffffffffffffffffffffffffffffffffffffffff1602179055507f2ed0feb3e7fd2022120aa84fab1945545a9f2ffc9076fd6156fa96eaff4c131160001b60065567016345785d8a0000600755348015620000ee57600080fd5b506040516200164738038062001647833981810160405281019062000114919062000229565b600560009054906101000a900473ffffffffffffffffffffffffffffffffffffffff16600460009054906101000a900473ffffffffffffffffffffffffffffffffffffffff168173ffffffffffffffffffffffffffffffffffffffff1660a08173ffffffffffffffffffffffffffffffffffffffff1660601b815250508073ffffffffffffffffffffffffffffffffffffffff1660808173ffffffffffffffffffffffffffffffffffffffff1660601b81525050505080600160006101000a81548173ffffffffffffffffffffffffffffffffffffffff021916908373ffffffffffffffffffffffffffffffffffffffff16021790555050620002ae565b600081519050620002238162000294565b92915050565b6000602082840312156200024257620002416200028f565b5b6000620002528482850162000212565b91505092915050565b600062000268826200026f565b9050919050565b600073ffffffffffffffffffffffffffffffffffffffff82169050919050565b600080fd5b6200029f816200025b565b8114620002ab57600080fd5b50565b60805160601c60a05160601c611366620002e16000396000818161074001526109f9015260006109bd01526113666000f3fe608060405234801561001057600080fd5b506004361061007c5760003560e01c80638f1d37761161005b5780638f1d3776146100d557806394985ddd14610108578063a41483e314610124578063ec593f89146101405761007c565b806212462a146100815780631b0fc1061461009d57806384f61585146100b9575b600080fd5b61009b60048036038101906100969190610d65565b610170565b005b6100b760048036038101906100b29190610d65565b610338565b005b6100d360048036038101906100ce9190610d92565b61052b565b005b6100ef60048036038101906100ea9190610d65565b610701565b6040516100ff9493929190610fee565b60405180910390f35b610122600480360381019061011d9190610d25565b61073e565b005b61013e60048036038101906101399190610d65565b6107da565b005b61015a60048036038101906101559190610cf8565b6109a1565b6040516101679190610fd3565b60405180910390f35b3360026000838152602001908152602001600020600301548173ffffffffffffffffffffffffffffffffffffffff16600160009054906101000a900473ffffffffffffffffffffffffffffffffffffffff1673ffffffffffffffffffffffffffffffffffffffff16636352211e836040518263ffffffff1660e01b81526004016101fa9190610fd3565b60206040518083038186803b15801561021257600080fd5b505afa158015610226573d6000803e3d6000fd5b505050506040513d601f19601f8201168201806040525081019061024a9190610c9e565b73ffffffffffffffffffffffffffffffffffffffff16146102a0576040517f08c379a000000000000000000000000000000000000000000000000000000000815260040161029790610fb3565b60405180910390fd5b600060058111156102b4576102b3611203565b5b6002600085815260200190815260200160002060010160009054906101000a900460ff1660058111156102ea576102e9611203565b5b146102f457600080fd5b60016002600085815260200190815260200160002060010160006101000a81548160ff0219169083600581111561032e5761032d611203565b5b0217905550505050565b3360026000838152602001908152602001600020600301548173ffffffffffffffffffffffffffffffffffffffff16600160009054906101000a900473ffffffffffffffffffffffffffffffffffffffff1673ffffffffffffffffffffffffffffffffffffffff16636352211e836040518263ffffffff1660e01b81526004016103c29190610fd3565b60206040518083038186803b1580156103da57600080fd5b505afa1580156103ee573d6000803e3d6000fd5b505050506040513d601f19601f820116820180604052508101906104129190610c9e565b73ffffffffffffffffffffffffffffffffffffffff1614610468576040517f08c379a000000000000000000000000000000000000000000000000000000000815260040161045f90610fb3565b60405180910390fd5b6000600581111561047c5761047b611203565b5b6002600085815260200190815260200160002060010160009054906101000a900460ff1660058111156104b2576104b1611203565b5b146104bc57600080fd5b60036002600085815260200190815260200160002060010160006101000a81548160ff021916908360058111156104f6576104f5611203565b5b0217905550600061050b6006546007546109b9565b905083600360008381526020019081526020016000208190555050505050565b33828173ffffffffffffffffffffffffffffffffffffffff16600160009054906101000a900473ffffffffffffffffffffffffffffffffffffffff1673ffffffffffffffffffffffffffffffffffffffff16636352211e836040518263ffffffff1660e01b815260040161059f9190610fd3565b60206040518083038186803b1580156105b757600080fd5b505afa1580156105cb573d6000803e3d6000fd5b505050506040513d601f19601f820116820180604052508101906105ef9190610c9e565b73ffffffffffffffffffffffffffffffffffffffff1614610645576040517f08c379a000000000000000000000000000000000000000000000000000000000815260040161063c90610fb3565b60405180910390fd5b6001600860008282546106589190611060565b92505081905550604051806080016040528060085481526020016000600581111561068657610685611203565b5b8152602001858152602001848152506002600060085481526020019081526020016000206000820151816000015560208201518160010160006101000a81548160ff021916908360058111156106df576106de611203565b5b0217905550604082015181600201556060820151816003015590505050505050565b60026020528060005260406000206000915090508060000154908060010160009054906101000a900460ff16908060020154908060030154905084565b7f000000000000000000000000000000000000000000000000000000000000000073ffffffffffffffffffffffffffffffffffffffff163373ffffffffffffffffffffffffffffffffffffffff16146107cc576040517f08c379a00000000000000000000000000000000000000000000000000000000081526004016107c390610f93565b60405180910390fd5b6107d68282610b18565b5050565b3360026000838152602001908152602001600020600201548173ffffffffffffffffffffffffffffffffffffffff16600160009054906101000a900473ffffffffffffffffffffffffffffffffffffffff1673ffffffffffffffffffffffffffffffffffffffff16636352211e836040518263ffffffff1660e01b81526004016108649190610fd3565b60206040518083038186803b15801561087c57600080fd5b505afa158015610890573d6000803e3d6000fd5b505050506040513d601f19601f820116820180604052508101906108b49190610c9e565b73ffffffffffffffffffffffffffffffffffffffff161461090a576040517f08c379a000000000000000000000000000000000000000000000000000000000815260040161090190610fb3565b60405180910390fd5b6000600581111561091e5761091d611203565b5b6002600085815260200190815260200160002060010160009054906101000a900460ff16600581111561095457610953611203565b5b1461095e57600080fd5b600280600085815260200190815260200160002060010160006101000a81548160ff0219169083600581111561099757610996611203565b5b0217905550505050565b60036020528060005260406000206000915090505481565b60007f000000000000000000000000000000000000000000000000000000000000000073ffffffffffffffffffffffffffffffffffffffff16634000aea07f000000000000000000000000000000000000000000000000000000000000000084866000604051602001610a2d929190610f25565b6040516020818303038152906040526040518463ffffffff1660e01b8152600401610a5a93929190610ee7565b602060405180830381600087803b158015610a7457600080fd5b505af1158015610a88573d6000803e3d6000fd5b505050506040513d601f19601f82011682018060405250810190610aac9190610ccb565b506000610ace8460003060008089815260200190815260200160002054610bdb565b9050600160008086815260200190815260200160002054610aef9190611060565b60008086815260200190815260200160002081905550610b0f8482610c17565b91505092915050565b6000600282610b279190611174565b1415610b84576005600260006003600086815260200190815260200160002054815260200190815260200160002060010160006101000a81548160ff02191690836005811115610b7a57610b79611203565b5b0217905550610bd7565b6004600260006003600086815260200190815260200160002054815260200190815260200160002060010160006101000a81548160ff02191690836005811115610bd157610bd0611203565b5b02179055505b5050565b600084848484604051602001610bf49493929190610f4e565b6040516020818303038152906040528051906020012060001c9050949350505050565b60008282604051602001610c2c929190610ebb565b60405160208183030381529060405280519060200120905092915050565b600081519050610c59816112d4565b92915050565b600081519050610c6e816112eb565b92915050565b600081359050610c8381611302565b92915050565b600081359050610c9881611319565b92915050565b600060208284031215610cb457610cb3611232565b5b6000610cc284828501610c4a565b91505092915050565b600060208284031215610ce157610ce0611232565b5b6000610cef84828501610c5f565b91505092915050565b600060208284031215610d0e57610d0d611232565b5b6000610d1c84828501610c74565b91505092915050565b60008060408385031215610d3c57610d3b611232565b5b6000610d4a85828601610c74565b9250506020610d5b85828601610c89565b9150509250929050565b600060208284031215610d7b57610d7a611232565b5b6000610d8984828501610c89565b91505092915050565b60008060408385031215610da957610da8611232565b5b6000610db785828601610c89565b9250506020610dc885828601610c89565b9150509250929050565b610ddb816110b6565b82525050565b610dea816110d4565b82525050565b610e01610dfc826110d4565b611160565b82525050565b6000610e1282611033565b610e1c818561103e565b9350610e2c81856020860161112d565b610e3581611237565b840191505092915050565b610e498161111b565b82525050565b6000610e5c601f8361104f565b9150610e6782611248565b602082019050919050565b6000610e7f60218361104f565b9150610e8a82611271565b604082019050919050565b610e9e81611111565b82525050565b610eb5610eb082611111565b61116a565b82525050565b6000610ec78285610df0565b602082019150610ed78284610ea4565b6020820191508190509392505050565b6000606082019050610efc6000830186610dd2565b610f096020830185610e95565b8181036040830152610f1b8184610e07565b9050949350505050565b6000604082019050610f3a6000830185610de1565b610f476020830184610e95565b9392505050565b6000608082019050610f636000830187610de1565b610f706020830186610e95565b610f7d6040830185610dd2565b610f8a6060830184610e95565b95945050505050565b60006020820190508181036000830152610fac81610e4f565b9050919050565b60006020820190508181036000830152610fcc81610e72565b9050919050565b6000602082019050610fe86000830184610e95565b92915050565b60006080820190506110036000830187610e95565b6110106020830186610e40565b61101d6040830185610e95565b61102a6060830184610e95565b95945050505050565b600081519050919050565b600082825260208201905092915050565b600082825260208201905092915050565b600061106b82611111565b915061107683611111565b9250827fffffffffffffffffffffffffffffffffffffffffffffffffffffffffffffffff038211156110ab576110aa6111a5565b5b828201905092915050565b60006110c1826110f1565b9050919050565b60008115159050919050565b6000819050919050565b60008190506110ec826112c0565b919050565b600073ffffffffffffffffffffffffffffffffffffffff82169050919050565b6000819050919050565b6000611126826110de565b9050919050565b60005b8381101561114b578082015181840152602081019050611130565b8381111561115a576000848401525b50505050565b6000819050919050565b6000819050919050565b600061117f82611111565b915061118a83611111565b92508261119a576111996111d4565b5b828206905092915050565b7f4e487b7100000000000000000000000000000000000000000000000000000000600052601160045260246000fd5b7f4e487b7100000000000000000000000000000000000000000000000000000000600052601260045260246000fd5b7f4e487b7100000000000000000000000000000000000000000000000000000000600052602160045260246000fd5b600080fd5b6000601f19601f8301169050919050565b7f4f6e6c7920565246436f6f7264696e61746f722063616e2066756c66696c6c00600082015250565b7f596f75206d757374206f776e20746865206368616c6c656e67657220746f6b6560008201527f6e00000000000000000000000000000000000000000000000000000000000000602082015250565b600681106112d1576112d0611203565b5b50565b6112dd816110b6565b81146112e857600080fd5b50565b6112f4816110c8565b81146112ff57600080fd5b50565b61130b816110d4565b811461131657600080fd5b50565b61132281611111565b811461132d57600080fd5b5056fea26469706673582212206e2e43a34c2e48f0a63408028ea1101aaf6dab97fcffc931dda8036a31d668fa64736f6c63430008060033",
  "immutableReferences": {
    "3453": [
      {
        "length": 32,
        "start": 2493
      }
    ],
    "3455": [
      {
        "length": 32,
        "start": 1856
      },
      {
        "length": 32,
        "start": 2553
      }
    ]
  },
  "source": "// SPDX-License-Identifier: MIT\npragma solidity 0.8.6;\n\nimport \"./dependencies/VRFConsumerBase.sol\";\nimport \"./Gachapon.sol\";\n\ncontract Duels is VRFConsumerBase{\n  Gachapon gachapon;\n  enum State { Pending, Declined, Canceled, Accepted, ChallengerWon, ChallengedWon }\n  mapping(uint256 => Challenge) public challenges;\n  mapping(bytes32 => uint256) public request_challenge_id;\n\n  //Chainlink preset variables\n  address LINK_TOKEN = 0x01BE23585060835E02B77ef475b0Cc51aA1e0709;\n  address VRF_COORDINATOR = 0xb3dCcb4Cf7a26f6cf6B120Cf5A73875B7BBc655B;\n  bytes32 KEYHASH = 0x2ed0feb3e7fd2022120aa84fab1945545a9f2ffc9076fd6156fa96eaff4c1311;\n  uint256 internal FEE = 0.1 ether;\n\n  constructor(address gachapon_address)\n    VRFConsumerBase(\n      VRF_COORDINATOR, // VRF Coordinator\n      LINK_TOKEN // LINK Token\n    )\n  {\n    gachapon = Gachapon(gachapon_address);\n  }\n\n  uint256 challenge_count;\n  struct Challenge\n  {\n    uint256 id;\n    State state;\n    uint256 challenger_token_id;\n    uint256 challenged_token_id;\n  }\n\n  function createChallenge(uint256 challenger_token_id, uint256 challenged_token_id)\n    public\n    mustBeOwner(msg.sender, challenger_token_id)\n  {\n    challenge_count += 1;\n    challenges[challenge_count] =\n      Challenge(\n        challenge_count,\n        State.Pending,\n        challenger_token_id,\n        challenged_token_id);\n  }\n\n  function cancelChallenge(uint256 challenge_id)\n    public\n    mustBeOwner(msg.sender, challenges[challenge_id].challenger_token_id)\n  {\n    require(challenges[challenge_id].state == State.Pending);\n    challenges[challenge_id].state = State.Canceled;\n  }\n\n  function declineChallenge(uint256 challenge_id)\n    public\n    mustBeOwner(msg.sender, challenges[challenge_id].challenged_token_id)\n  {\n    require(challenges[challenge_id].state == State.Pending);\n    challenges[challenge_id].state = State.Declined;\n  }\n\n  function acceptChallenge(uint256 challenge_id)\n    public\n    mustBeOwner(msg.sender, challenges[challenge_id].challenged_token_id)\n  {\n    require(challenges[challenge_id].state == State.Pending);\n    challenges[challenge_id].state = State.Accepted;\n\n    bytes32 requestId = requestRandomness(\n      KEYHASH, // KeyHash\n      FEE // Fee\n    );\n    request_challenge_id[requestId] = challenge_id;\n  }\n\n  function fulfillRandomness(bytes32 requestId, uint256 randomness) internal override {\n    if(randomness %2 == 0)\n    {\n      challenges[request_challenge_id[requestId]].state = State.ChallengedWon;\n    }else\n    {\n      challenges[request_challenge_id[requestId]].state = State.ChallengerWon;\n    }\n  }\n\n  modifier mustBeOwner(address _address, uint256 token_id)\n  {\n    require(gachapon.ownerOf(token_id) == _address, \"You must own the challenger token\");\n    _;\n  }\n}",
  "sourcePath": "/home/turupawn/Projects/Cryptobrawl/contracts/Duels.sol",
  "compiler": {
    "name": "solc",
    "version": "0.8.6+commit.11564f7e.Emscripten.clang"
  },
  "schemaVersion": "3.4.1",
  "updatedAt": "2021-07-30T04:37:52.343Z",
  "networkType": "ethereum",
  "devdoc": {
    "kind": "dev",
    "methods": {},
    "version": 1
  },
  "userdoc": {
    "kind": "user",
    "methods": {},
    "version": 1
  }
}